{
  "_format": "hh-sol-artifact-1",
  "contractName": "ZenNft",
  "sourceName": "contracts/core/Zen.sol",
  "abi": [
    {
      "inputs": [
        {
          "internalType": "address",
          "name": "_zepV2Addr",
          "type": "address"
        },
        {
          "internalType": "address",
          "name": "_milesNftAddr",
          "type": "address"
        }
      ],
      "stateMutability": "nonpayable",
      "type": "constructor"
    },
    {
      "anonymous": false,
      "inputs": [
        {
          "indexed": true,
          "internalType": "address",
          "name": "owner",
          "type": "address"
        },
        {
          "indexed": true,
          "internalType": "address",
          "name": "approved",
          "type": "address"
        },
        {
          "indexed": true,
          "internalType": "uint256",
          "name": "tokenId",
          "type": "uint256"
        }
      ],
      "name": "Approval",
      "type": "event"
    },
    {
      "anonymous": false,
      "inputs": [
        {
          "indexed": true,
          "internalType": "address",
          "name": "owner",
          "type": "address"
        },
        {
          "indexed": true,
          "internalType": "address",
          "name": "operator",
          "type": "address"
        },
        {
          "indexed": false,
          "internalType": "bool",
          "name": "approved",
          "type": "bool"
        }
      ],
      "name": "ApprovalForAll",
      "type": "event"
    },
    {
      "anonymous": false,
      "inputs": [
        {
          "indexed": false,
          "internalType": "address[3]",
          "name": "_top3",
          "type": "address[3]"
        },
        {
          "indexed": false,
          "internalType": "uint256",
          "name": "_totalAmount",
          "type": "uint256"
        }
      ],
      "name": "CycleConcluded",
      "type": "event"
    },
    {
      "anonymous": false,
      "inputs": [
        {
          "indexed": false,
          "internalType": "address",
          "name": "_from",
          "type": "address"
        },
        {
          "indexed": false,
          "internalType": "uint256",
          "name": "_tokenId",
          "type": "uint256"
        },
        {
          "indexed": false,
          "internalType": "uint256",
          "name": "blockNr",
          "type": "uint256"
        },
        {
          "indexed": false,
          "internalType": "uint256",
          "name": "_fromRank",
          "type": "uint256"
        },
        {
          "indexed": false,
          "internalType": "uint256",
          "name": "_toRank",
          "type": "uint256"
        }
      ],
      "name": "EvolvedRarityArtAndYield",
      "type": "event"
    },
    {
      "anonymous": false,
      "inputs": [
        {
          "indexed": false,
          "internalType": "address",
          "name": "_from",
          "type": "address"
        },
        {
          "indexed": false,
          "internalType": "uint256",
          "name": "_tokenId",
          "type": "uint256"
        },
        {
          "indexed": false,
          "internalType": "uint256",
          "name": "_rank",
          "type": "uint256"
        }
      ],
      "name": "NFTBurned",
      "type": "event"
    },
    {
      "anonymous": false,
      "inputs": [
        {
          "indexed": false,
          "internalType": "address",
          "name": "_to",
          "type": "address"
        },
        {
          "indexed": false,
          "internalType": "uint256",
          "name": "_tokenId",
          "type": "uint256"
        }
      ],
      "name": "NFTMinted",
      "type": "event"
    },
    {
      "anonymous": false,
      "inputs": [
        {
          "indexed": true,
          "internalType": "address",
          "name": "previousOwner",
          "type": "address"
        },
        {
          "indexed": true,
          "internalType": "address",
          "name": "newOwner",
          "type": "address"
        }
      ],
      "name": "OwnershipTransferred",
      "type": "event"
    },
    {
      "anonymous": false,
      "inputs": [
        {
          "indexed": false,
          "internalType": "uint256",
          "name": "_rewardsAdded",
          "type": "uint256"
        },
        {
          "indexed": false,
          "internalType": "uint256",
          "name": "_newTotal",
          "type": "uint256"
        },
        {
          "indexed": false,
          "internalType": "uint256",
          "name": "_totalBonuses",
          "type": "uint256"
        }
      ],
      "name": "ReceivedRewards",
      "type": "event"
    },
    {
      "anonymous": false,
      "inputs": [
        {
          "indexed": false,
          "internalType": "address",
          "name": "_owner",
          "type": "address"
        },
        {
          "indexed": false,
          "internalType": "uint256",
          "name": "_amountETH",
          "type": "uint256"
        }
      ],
      "name": "SpeedUp",
      "type": "event"
    },
    {
      "anonymous": false,
      "inputs": [
        {
          "indexed": false,
          "internalType": "address",
          "name": "_from",
          "type": "address"
        },
        {
          "indexed": false,
          "internalType": "uint256",
          "name": "_tokenId",
          "type": "uint256"
        },
        {
          "indexed": false,
          "internalType": "uint256",
          "name": "blocksSpeeded",
          "type": "uint256"
        },
        {
          "indexed": false,
          "internalType": "uint256",
          "name": "amountSpent",
          "type": "uint256"
        },
        {
          "indexed": false,
          "internalType": "uint256",
          "name": "ETHSpent",
          "type": "uint256"
        }
      ],
      "name": "SpeededUpEvolution",
      "type": "event"
    },
    {
      "anonymous": false,
      "inputs": [
        {
          "indexed": true,
          "internalType": "address",
          "name": "from",
          "type": "address"
        },
        {
          "indexed": true,
          "internalType": "address",
          "name": "to",
          "type": "address"
        },
        {
          "indexed": true,
          "internalType": "uint256",
          "name": "tokenId",
          "type": "uint256"
        }
      ],
      "name": "Transfer",
      "type": "event"
    },
    {
      "inputs": [],
      "name": "FOR_FOMO_FUND",
      "outputs": [
        {
          "internalType": "uint256",
          "name": "",
          "type": "uint256"
        }
      ],
      "stateMutability": "view",
      "type": "function"
    },
    {
      "inputs": [],
      "name": "FOR_LP",
      "outputs": [
        {
          "internalType": "uint256",
          "name": "",
          "type": "uint256"
        }
      ],
      "stateMutability": "view",
      "type": "function"
    },
    {
      "inputs": [],
      "name": "MARKETPLACE_ADDRESS",
      "outputs": [
        {
          "internalType": "address",
          "name": "",
          "type": "address"
        }
      ],
      "stateMutability": "view",
      "type": "function"
    },
    {
      "inputs": [],
      "name": "MIN_ETH_FOR_SPEEDUP",
      "outputs": [
        {
          "internalType": "uint256",
          "name": "",
          "type": "uint256"
        }
      ],
      "stateMutability": "view",
      "type": "function"
    },
    {
      "inputs": [],
      "name": "MilesNftContract",
      "outputs": [
        {
          "internalType": "contract IMilesNFT",
          "name": "",
          "type": "address"
        }
      ],
      "stateMutability": "view",
      "type": "function"
    },
    {
      "inputs": [],
      "name": "RoyaltyNftContract",
      "outputs": [
        {
          "internalType": "contract IRoyalSpotNFT",
          "name": "",
          "type": "address"
        }
      ],
      "stateMutability": "view",
      "type": "function"
    },
    {
      "inputs": [],
      "name": "SPEEDUP_BLOCK_PER_ETH",
      "outputs": [
        {
          "internalType": "uint256",
          "name": "",
          "type": "uint256"
        }
      ],
      "stateMutability": "view",
      "type": "function"
    },
    {
      "inputs": [],
      "name": "SPEED_FOR_LP",
      "outputs": [
        {
          "internalType": "uint256",
          "name": "",
          "type": "uint256"
        }
      ],
      "stateMutability": "view",
      "type": "function"
    },
    {
      "inputs": [],
      "name": "UROUTER",
      "outputs": [
        {
          "internalType": "address",
          "name": "",
          "type": "address"
        }
      ],
      "stateMutability": "view",
      "type": "function"
    },
    {
      "inputs": [],
      "name": "WETH_ADDRESS",
      "outputs": [
        {
          "internalType": "address",
          "name": "",
          "type": "address"
        }
      ],
      "stateMutability": "view",
      "type": "function"
    },
    {
      "inputs": [],
      "name": "YIELD_AGGREGATOR_ADDRESS",
      "outputs": [
        {
          "internalType": "address",
          "name": "",
          "type": "address"
        }
      ],
      "stateMutability": "view",
      "type": "function"
    },
    {
      "inputs": [],
      "name": "ZeppelinTokenContract",
      "outputs": [
        {
          "internalType": "contract IZeppelinToken",
          "name": "",
          "type": "address"
        }
      ],
      "stateMutability": "view",
      "type": "function"
    },
    {
      "inputs": [
        {
          "internalType": "address",
          "name": "",
          "type": "address"
        }
      ],
      "name": "accountToId",
      "outputs": [
        {
          "internalType": "uint256",
          "name": "",
          "type": "uint256"
        }
      ],
      "stateMutability": "view",
      "type": "function"
    },
    {
      "inputs": [
        {
          "internalType": "uint256",
          "name": "",
          "type": "uint256"
        }
      ],
      "name": "allMiles",
      "outputs": [
        {
          "internalType": "uint256",
          "name": "",
          "type": "uint256"
        }
      ],
      "stateMutability": "view",
      "type": "function"
    },
    {
      "inputs": [
        {
          "internalType": "uint256",
          "name": "",
          "type": "uint256"
        }
      ],
      "name": "allZenSpots",
      "outputs": [
        {
          "internalType": "uint256",
          "name": "",
          "type": "uint256"
        }
      ],
      "stateMutability": "view",
      "type": "function"
    },
    {
      "inputs": [
        {
          "internalType": "address",
          "name": "to",
          "type": "address"
        },
        {
          "internalType": "uint256",
          "name": "tokenId",
          "type": "uint256"
        }
      ],
      "name": "approve",
      "outputs": [],
      "stateMutability": "nonpayable",
      "type": "function"
    },
    {
      "inputs": [
        {
          "internalType": "address",
          "name": "owner",
          "type": "address"
        }
      ],
      "name": "balanceOf",
      "outputs": [
        {
          "internalType": "uint256",
          "name": "",
          "type": "uint256"
        }
      ],
      "stateMutability": "view",
      "type": "function"
    },
    {
      "inputs": [],
      "name": "burnToClaim",
      "outputs": [],
      "stateMutability": "nonpayable",
      "type": "function"
    },
    {
      "inputs": [
        {
          "internalType": "address",
          "name": "_account",
          "type": "address"
        }
      ],
      "name": "canEvolve",
      "outputs": [
        {
          "internalType": "bool",
          "name": "_canEvolve",
          "type": "bool"
        }
      ],
      "stateMutability": "view",
      "type": "function"
    },
    {
      "inputs": [
        {
          "internalType": "address",
          "name": "_account",
          "type": "address"
        }
      ],
      "name": "canMint",
      "outputs": [
        {
          "internalType": "bool",
          "name": "",
          "type": "bool"
        }
      ],
      "stateMutability": "view",
      "type": "function"
    },
    {
      "inputs": [],
      "name": "claimFee",
      "outputs": [
        {
          "internalType": "uint256",
          "name": "",
          "type": "uint256"
        }
      ],
      "stateMutability": "view",
      "type": "function"
    },
    {
      "inputs": [
        {
          "internalType": "address[3]",
          "name": "_top3",
          "type": "address[3]"
        }
      ],
      "name": "concludeMilesCycle",
      "outputs": [],
      "stateMutability": "nonpayable",
      "type": "function"
    },
    {
      "inputs": [
        {
          "internalType": "address",
          "name": "_account",
          "type": "address"
        },
        {
          "internalType": "uint256",
          "name": "_minReq",
          "type": "uint256"
        }
      ],
      "name": "createZenSpot",
      "outputs": [
        {
          "internalType": "uint256",
          "name": "",
          "type": "uint256"
        }
      ],
      "stateMutability": "nonpayable",
      "type": "function"
    },
    {
      "inputs": [],
      "name": "evolve",
      "outputs": [
        {
          "internalType": "bool",
          "name": "",
          "type": "bool"
        }
      ],
      "stateMutability": "nonpayable",
      "type": "function"
    },
    {
      "inputs": [
        {
          "internalType": "uint256",
          "name": "tokenId",
          "type": "uint256"
        }
      ],
      "name": "getApproved",
      "outputs": [
        {
          "internalType": "address",
          "name": "",
          "type": "address"
        }
      ],
      "stateMutability": "view",
      "type": "function"
    },
    {
      "inputs": [
        {
          "internalType": "uint256",
          "name": "_tokenId",
          "type": "uint256"
        }
      ],
      "name": "getBlocksTillFullEvolution",
      "outputs": [
        {
          "internalType": "uint256",
          "name": "",
          "type": "uint256"
        }
      ],
      "stateMutability": "view",
      "type": "function"
    },
    {
      "inputs": [
        {
          "internalType": "address",
          "name": "_acc",
          "type": "address"
        }
      ],
      "name": "getIdForAccount",
      "outputs": [
        {
          "internalType": "uint256",
          "name": "",
          "type": "uint256"
        }
      ],
      "stateMutability": "view",
      "type": "function"
    },
    {
      "inputs": [],
      "name": "getIds",
      "outputs": [
        {
          "internalType": "uint256[]",
          "name": "",
          "type": "uint256[]"
        }
      ],
      "stateMutability": "view",
      "type": "function"
    },
    {
      "inputs": [
        {
          "internalType": "address",
          "name": "_account",
          "type": "address"
        }
      ],
      "name": "getInfo",
      "outputs": [
        {
          "internalType": "uint256",
          "name": "rank",
          "type": "uint256"
        },
        {
          "internalType": "uint256",
          "name": "rewards",
          "type": "uint256"
        },
        {
          "internalType": "uint256",
          "name": "startMinReq",
          "type": "uint256"
        },
        {
          "internalType": "uint256",
          "name": "id",
          "type": "uint256"
        },
        {
          "internalType": "uint256",
          "name": "mintBlock",
          "type": "uint256"
        }
      ],
      "stateMutability": "view",
      "type": "function"
    },
    {
      "inputs": [
        {
          "internalType": "uint256",
          "name": "_tokenId",
          "type": "uint256"
        }
      ],
      "name": "getMinReq",
      "outputs": [
        {
          "internalType": "uint256",
          "name": "",
          "type": "uint256"
        }
      ],
      "stateMutability": "view",
      "type": "function"
    },
    {
      "inputs": [
        {
          "internalType": "uint256",
          "name": "_tokenId",
          "type": "uint256"
        }
      ],
      "name": "getMinter",
      "outputs": [
        {
          "internalType": "address",
          "name": "",
          "type": "address"
        }
      ],
      "stateMutability": "view",
      "type": "function"
    },
    {
      "inputs": [],
      "name": "getNextMintBlock",
      "outputs": [
        {
          "internalType": "uint256",
          "name": "",
          "type": "uint256"
        }
      ],
      "stateMutability": "view",
      "type": "function"
    },
    {
      "inputs": [],
      "name": "getOpenZenSpotsCount",
      "outputs": [
        {
          "internalType": "uint256",
          "name": "",
          "type": "uint256"
        }
      ],
      "stateMutability": "view",
      "type": "function"
    },
    {
      "inputs": [
        {
          "internalType": "uint256",
          "name": "_tokenId",
          "type": "uint256"
        }
      ],
      "name": "getOwnerOfNftID",
      "outputs": [
        {
          "internalType": "address",
          "name": "",
          "type": "address"
        }
      ],
      "stateMutability": "view",
      "type": "function"
    },
    {
      "inputs": [
        {
          "internalType": "uint256",
          "name": "_tokenId",
          "type": "uint256"
        }
      ],
      "name": "getRank",
      "outputs": [
        {
          "internalType": "uint256",
          "name": "",
          "type": "uint256"
        }
      ],
      "stateMutability": "view",
      "type": "function"
    },
    {
      "inputs": [
        {
          "internalType": "uint256",
          "name": "_zepAmount",
          "type": "uint256"
        }
      ],
      "name": "getReductionBlocksPerZep",
      "outputs": [
        {
          "internalType": "uint256",
          "name": "blocksReduced",
          "type": "uint256"
        },
        {
          "internalType": "uint256",
          "name": "ETH",
          "type": "uint256"
        }
      ],
      "stateMutability": "view",
      "type": "function"
    },
    {
      "inputs": [
        {
          "internalType": "uint256",
          "name": "_tokenId",
          "type": "uint256"
        }
      ],
      "name": "getRights",
      "outputs": [
        {
          "internalType": "uint256",
          "name": "",
          "type": "uint256"
        },
        {
          "internalType": "uint256",
          "name": "",
          "type": "uint256"
        },
        {
          "internalType": "uint256",
          "name": "",
          "type": "uint256"
        },
        {
          "internalType": "uint256",
          "name": "",
          "type": "uint256"
        }
      ],
      "stateMutability": "view",
      "type": "function"
    },
    {
      "inputs": [
        {
          "internalType": "uint256",
          "name": "_tokenId",
          "type": "uint256"
        }
      ],
      "name": "getfeeReduction",
      "outputs": [
        {
          "internalType": "uint256",
          "name": "",
          "type": "uint256"
        }
      ],
      "stateMutability": "view",
      "type": "function"
    },
    {
      "inputs": [
        {
          "internalType": "uint256",
          "name": "",
          "type": "uint256"
        },
        {
          "internalType": "uint256",
          "name": "",
          "type": "uint256"
        }
      ],
      "name": "historyWinners",
      "outputs": [
        {
          "internalType": "uint256",
          "name": "totalAmount",
          "type": "uint256"
        },
        {
          "internalType": "uint256",
          "name": "amount",
          "type": "uint256"
        },
        {
          "internalType": "address",
          "name": "owner",
          "type": "address"
        },
        {
          "internalType": "uint256",
          "name": "zenSpotId",
          "type": "uint256"
        }
      ],
      "stateMutability": "view",
      "type": "function"
    },
    {
      "inputs": [
        {
          "internalType": "address",
          "name": "owner",
          "type": "address"
        },
        {
          "internalType": "address",
          "name": "operator",
          "type": "address"
        }
      ],
      "name": "isApprovedForAll",
      "outputs": [
        {
          "internalType": "bool",
          "name": "",
          "type": "bool"
        }
      ],
      "stateMutability": "view",
      "type": "function"
    },
    {
      "inputs": [],
      "name": "lastMintBlock",
      "outputs": [
        {
          "internalType": "uint256",
          "name": "",
          "type": "uint256"
        }
      ],
      "stateMutability": "view",
      "type": "function"
    },
    {
      "inputs": [
        {
          "internalType": "address",
          "name": "_from",
          "type": "address"
        },
        {
          "internalType": "address",
          "name": "_to",
          "type": "address"
        },
        {
          "internalType": "uint256",
          "name": "_nftId",
          "type": "uint256"
        }
      ],
      "name": "marketTransfer",
      "outputs": [],
      "stateMutability": "nonpayable",
      "type": "function"
    },
    {
      "inputs": [
        {
          "internalType": "uint256",
          "name": "",
          "type": "uint256"
        }
      ],
      "name": "miles",
      "outputs": [
        {
          "internalType": "uint256",
          "name": "totalAmount",
          "type": "uint256"
        },
        {
          "internalType": "uint256",
          "name": "amount",
          "type": "uint256"
        },
        {
          "internalType": "address",
          "name": "owner",
          "type": "address"
        },
        {
          "internalType": "uint256",
          "name": "zenSpotId",
          "type": "uint256"
        }
      ],
      "stateMutability": "view",
      "type": "function"
    },
    {
      "inputs": [],
      "name": "milesCycle",
      "outputs": [
        {
          "internalType": "uint256",
          "name": "",
          "type": "uint256"
        }
      ],
      "stateMutability": "view",
      "type": "function"
    },
    {
      "inputs": [],
      "name": "mintCooldown",
      "outputs": [
        {
          "internalType": "uint256",
          "name": "",
          "type": "uint256"
        }
      ],
      "stateMutability": "view",
      "type": "function"
    },
    {
      "inputs": [],
      "name": "myInfo",
      "outputs": [
        {
          "internalType": "uint256",
          "name": "rank",
          "type": "uint256"
        },
        {
          "internalType": "uint256",
          "name": "rewards",
          "type": "uint256"
        },
        {
          "internalType": "uint256",
          "name": "startMinReq",
          "type": "uint256"
        },
        {
          "internalType": "uint256",
          "name": "id",
          "type": "uint256"
        },
        {
          "internalType": "uint256",
          "name": "mintBlock",
          "type": "uint256"
        }
      ],
      "stateMutability": "view",
      "type": "function"
    },
    {
      "inputs": [],
      "name": "name",
      "outputs": [
        {
          "internalType": "string",
          "name": "",
          "type": "string"
        }
      ],
      "stateMutability": "view",
      "type": "function"
    },
    {
      "inputs": [],
      "name": "owner",
      "outputs": [
        {
          "internalType": "address",
          "name": "",
          "type": "address"
        }
      ],
      "stateMutability": "view",
      "type": "function"
    },
    {
      "inputs": [
        {
          "internalType": "uint256",
          "name": "tokenId",
          "type": "uint256"
        }
      ],
      "name": "ownerOf",
      "outputs": [
        {
          "internalType": "address",
          "name": "",
          "type": "address"
        }
      ],
      "stateMutability": "view",
      "type": "function"
    },
    {
      "inputs": [
        {
          "internalType": "enum ZenNft.Rank",
          "name": "",
          "type": "uint8"
        }
      ],
      "name": "rankToRights",
      "outputs": [
        {
          "internalType": "uint256",
          "name": "feeReduction",
          "type": "uint256"
        },
        {
          "internalType": "uint256",
          "name": "votingPower",
          "type": "uint256"
        },
        {
          "internalType": "uint256",
          "name": "bonusPercent",
          "type": "uint256"
        },
        {
          "internalType": "string",
          "name": "uri",
          "type": "string"
        },
        {
          "internalType": "uint256",
          "name": "evolveBlocks",
          "type": "uint256"
        }
      ],
      "stateMutability": "view",
      "type": "function"
    },
    {
      "inputs": [
        {
          "internalType": "uint256",
          "name": "_dividendRewards",
          "type": "uint256"
        }
      ],
      "name": "receiveRewards",
      "outputs": [],
      "stateMutability": "nonpayable",
      "type": "function"
    },
    {
      "inputs": [],
      "name": "renounceOwnership",
      "outputs": [],
      "stateMutability": "nonpayable",
      "type": "function"
    },
    {
      "inputs": [
        {
          "internalType": "address",
          "name": "from",
          "type": "address"
        },
        {
          "internalType": "address",
          "name": "to",
          "type": "address"
        },
        {
          "internalType": "uint256",
          "name": "tokenId",
          "type": "uint256"
        }
      ],
      "name": "safeTransferFrom",
      "outputs": [],
      "stateMutability": "nonpayable",
      "type": "function"
    },
    {
      "inputs": [
        {
          "internalType": "address",
          "name": "from",
          "type": "address"
        },
        {
          "internalType": "address",
          "name": "to",
          "type": "address"
        },
        {
          "internalType": "uint256",
          "name": "tokenId",
          "type": "uint256"
        },
        {
          "internalType": "bytes",
          "name": "_data",
          "type": "bytes"
        }
      ],
      "name": "safeTransferFrom",
      "outputs": [],
      "stateMutability": "nonpayable",
      "type": "function"
    },
    {
      "inputs": [
        {
          "internalType": "address",
          "name": "operator",
          "type": "address"
        },
        {
          "internalType": "bool",
          "name": "approved",
          "type": "bool"
        }
      ],
      "name": "setApprovalForAll",
      "outputs": [],
      "stateMutability": "nonpayable",
      "type": "function"
    },
    {
      "inputs": [
        {
          "internalType": "uint256",
          "name": "_newFee",
          "type": "uint256"
        }
      ],
      "name": "setClaimFee",
      "outputs": [],
      "stateMutability": "nonpayable",
      "type": "function"
    },
    {
      "inputs": [
        {
          "internalType": "uint256",
          "name": "_fomo",
          "type": "uint256"
        },
        {
          "internalType": "uint256",
          "name": "_lp",
          "type": "uint256"
        }
      ],
      "name": "setClaimTaxDistribution",
      "outputs": [],
      "stateMutability": "nonpayable",
      "type": "function"
    },
    {
      "inputs": [
        {
          "internalType": "address",
          "name": "_addy",
          "type": "address"
        }
      ],
      "name": "setMarketplaceAddress",
      "outputs": [],
      "stateMutability": "nonpayable",
      "type": "function"
    },
    {
      "inputs": [
        {
          "internalType": "address",
          "name": "_addy",
          "type": "address"
        }
      ],
      "name": "setMilesContract",
      "outputs": [],
      "stateMutability": "nonpayable",
      "type": "function"
    },
    {
      "inputs": [
        {
          "internalType": "uint256",
          "name": "_newCd",
          "type": "uint256"
        }
      ],
      "name": "setMintCooldown",
      "outputs": [],
      "stateMutability": "nonpayable",
      "type": "function"
    },
    {
      "inputs": [
        {
          "internalType": "address",
          "name": "_addy",
          "type": "address"
        }
      ],
      "name": "setRoyalContract",
      "outputs": [],
      "stateMutability": "nonpayable",
      "type": "function"
    },
    {
      "inputs": [
        {
          "internalType": "uint256",
          "name": "_lp",
          "type": "uint256"
        }
      ],
      "name": "setSpeedDistribution",
      "outputs": [],
      "stateMutability": "nonpayable",
      "type": "function"
    },
    {
      "inputs": [
        {
          "internalType": "address",
          "name": "_rAdd",
          "type": "address"
        }
      ],
      "name": "setUAddr",
      "outputs": [],
      "stateMutability": "nonpayable",
      "type": "function"
    },
    {
      "inputs": [
        {
          "internalType": "address",
          "name": "_addy",
          "type": "address"
        }
      ],
      "name": "setYieldAggregatorAddress",
      "outputs": [],
      "stateMutability": "nonpayable",
      "type": "function"
    },
    {
      "inputs": [
        {
          "internalType": "address",
          "name": "_addy",
          "type": "address"
        }
      ],
      "name": "setZepContract",
      "outputs": [],
      "stateMutability": "nonpayable",
      "type": "function"
    },
    {
      "inputs": [
        {
          "internalType": "uint256",
          "name": "_zepAmountForFund",
          "type": "uint256"
        }
      ],
      "name": "speedUpEvolution",
      "outputs": [
        {
          "internalType": "uint256",
          "name": "newMintBlock",
          "type": "uint256"
        }
      ],
      "stateMutability": "nonpayable",
      "type": "function"
    },
    {
      "inputs": [
        {
          "internalType": "bytes4",
          "name": "interfaceId",
          "type": "bytes4"
        }
      ],
      "name": "supportsInterface",
      "outputs": [
        {
          "internalType": "bool",
          "name": "",
          "type": "bool"
        }
      ],
      "stateMutability": "view",
      "type": "function"
    },
    {
      "inputs": [],
      "name": "symbol",
      "outputs": [
        {
          "internalType": "string",
          "name": "",
          "type": "string"
        }
      ],
      "stateMutability": "view",
      "type": "function"
    },
    {
      "inputs": [],
      "name": "syncFund",
      "outputs": [
        {
          "internalType": "bool",
          "name": "",
          "type": "bool"
        }
      ],
      "stateMutability": "nonpayable",
      "type": "function"
    },
    {
      "inputs": [],
      "name": "tokenCounter",
      "outputs": [
        {
          "internalType": "uint256",
          "name": "",
          "type": "uint256"
        }
      ],
      "stateMutability": "view",
      "type": "function"
    },
    {
      "inputs": [],
      "name": "tokenSupply",
      "outputs": [
        {
          "internalType": "uint256",
          "name": "",
          "type": "uint256"
        }
      ],
      "stateMutability": "view",
      "type": "function"
    },
    {
      "inputs": [
        {
          "internalType": "uint256",
          "name": "tokenId",
          "type": "uint256"
        }
      ],
      "name": "tokenURI",
      "outputs": [
        {
          "internalType": "string",
          "name": "",
          "type": "string"
        }
      ],
      "stateMutability": "view",
      "type": "function"
    },
    {
      "inputs": [],
      "name": "totalRewards",
      "outputs": [
        {
          "internalType": "uint256",
          "name": "",
          "type": "uint256"
        }
      ],
      "stateMutability": "view",
      "type": "function"
    },
    {
      "inputs": [],
      "name": "totalSpeedUp",
      "outputs": [
        {
          "internalType": "uint256",
          "name": "",
          "type": "uint256"
        }
      ],
      "stateMutability": "view",
      "type": "function"
    },
    {
      "inputs": [],
      "name": "totalSupply",
      "outputs": [
        {
          "internalType": "uint256",
          "name": "",
          "type": "uint256"
        }
      ],
      "stateMutability": "view",
      "type": "function"
    },
    {
      "inputs": [],
      "name": "totalTokenValue",
      "outputs": [
        {
          "internalType": "uint256",
          "name": "",
          "type": "uint256"
        }
      ],
      "stateMutability": "view",
      "type": "function"
    },
    {
      "inputs": [
        {
          "internalType": "address",
          "name": "from",
          "type": "address"
        },
        {
          "internalType": "address",
          "name": "to",
          "type": "address"
        },
        {
          "internalType": "uint256",
          "name": "tokenId",
          "type": "uint256"
        }
      ],
      "name": "transferFrom",
      "outputs": [],
      "stateMutability": "nonpayable",
      "type": "function"
    },
    {
      "inputs": [
        {
          "internalType": "address",
          "name": "newOwner",
          "type": "address"
        }
      ],
      "name": "transferOwnership",
      "outputs": [],
      "stateMutability": "nonpayable",
      "type": "function"
    },
    {
      "inputs": [],
      "name": "uRouter",
      "outputs": [
        {
          "internalType": "contract IURouter",
          "name": "",
          "type": "address"
        }
      ],
      "stateMutability": "view",
      "type": "function"
    },
    {
      "inputs": [
        {
          "internalType": "uint256",
          "name": "",
          "type": "uint256"
        }
      ],
      "name": "zenSpots",
      "outputs": [
        {
          "internalType": "uint256",
          "name": "totalAmount",
          "type": "uint256"
        },
        {
          "internalType": "uint256",
          "name": "startMinReq",
          "type": "uint256"
        },
        {
          "internalType": "enum ZenNft.Rank",
          "name": "rank",
          "type": "uint8"
        },
        {
          "internalType": "address",
          "name": "owner",
          "type": "address"
        },
        {
          "internalType": "address",
          "name": "minter",
          "type": "address"
        },
        {
          "internalType": "uint256",
          "name": "id",
          "type": "uint256"
        },
        {
          "internalType": "uint256",
          "name": "mintBlock",
          "type": "uint256"
        }
      ],
      "stateMutability": "view",
      "type": "function"
    }
  ],
  "bytecode": "0x6080604052600a54601180546001600160a01b0319166001600160a01b03909216919091179055600160188190556107d0601955610fa0601a55611770601b55611f406025556026553480156200005557600080fd5b506040516200595a3803806200595a8339810160408190526200007891620005e7565b60408051808201825260068082526516995b93919560d21b602080840182815285518087019096529285528401528151919291620000b991600091620004cc565b508051620000cf906001906020840190620004cc565b505050620000ec620000e66200047660201b60201c565b6200047a565b600060088190556009819055600c80546001600160a01b03199081166001600160a01b03868116918217909355600d8054909216858416179091556015839055601683905543601755601e839055601f9290925560408051808201909152918252600b541660208201526200016690601d9060026200055b565b506040518060a001604052806000815260200160018152602001600181526020016040518060200160405280600081525081526020016000815250601c6000806003811115620001ba57620001ba6200061f565b6003811115620001ce57620001ce6200061f565b8152602001908152602001600020600082015181600001556020820151816001015560408201518160020155606082015181600301908051906020019062000218929190620004cc565b50608082015181600401559050506040518060a00160405280610bb881526020016005815260200160508152602001604051806020016040528060008152508152602001612260815250601c6000600160038111156200027c576200027c6200061f565b60038111156200029057620002906200061f565b81526020019081526020016000206000820151816000015560208201518160010155604082015181600201556060820151816003019080519060200190620002da929190620004cc565b50608082015181600401559050506040518060a001604052806113888152602001600d815260200161012c8152602001604051806020016040528060008152508152602001614010815250601c6000600260038111156200033f576200033f6200061f565b60038111156200035357620003536200061f565b815260200190815260200160002060008201518160000155602082015181600101556040820151816002015560608201518160030190805190602001906200039d929190620004cc565b50608082015181600401559050506040518060a00160405280611b588152602001601e81526020016101f48152602001604051806020016040528060008152508152602001620429a0815250601c60006003808111156200040257620004026200061f565b60038111156200041657620004166200061f565b8152602001908152602001600020600082015181600001556020820151816001015560408201518160020155606082015181600301908051906020019062000460929190620004cc565b5060808201518160040155905050505062000672565b3390565b600780546001600160a01b038381166001600160a01b0319831681179093556040519116919082907f8be0079c531659141344cd1fd0a4f28419497f9722a3daafe3b4186f6b6457e090600090a35050565b828054620004da9062000635565b90600052602060002090601f016020900481019282620004fe576000855562000549565b82601f106200051957805160ff191683800117855562000549565b8280016001018555821562000549579182015b82811115620005495782518255916020019190600101906200052c565b5062000557929150620005b3565b5090565b82805482825590600052602060002090810192821562000549579160200282015b828111156200054957825182546001600160a01b0319166001600160a01b039091161782556020909201916001909101906200057c565b5b80821115620005575760008155600101620005b4565b80516001600160a01b0381168114620005e257600080fd5b919050565b60008060408385031215620005fb57600080fd5b6200060683620005ca565b91506200061660208401620005ca565b90509250929050565b634e487b7160e01b600052602160045260246000fd5b600181811c908216806200064a57607f821691505b602082108114156200066c57634e487b7160e01b600052602260045260246000fd5b50919050565b6152d880620006826000396000f3fe608060405234801561001057600080fd5b50600436106104805760003560e01c806385b31d7b11610257578063ba7615d111610146578063d082e381116100c3578063f239937b11610087578063f239937b14610b1e578063f2fde38b14610b26578063f773027114610b39578063fe30a41914610b4c578063ffdd5cf114610b6c57600080fd5b8063d082e38114610a8b578063d77868da14610a94578063da51148314610aa7578063db73dcf714610acf578063e985e9c514610ae257600080fd5b8063c58876521161010a578063c588765214610a29578063c5cfae3014610a3c578063c840fbb814610a5c578063c87b56dd14610a65578063cd9810f414610a7857600080fd5b8063ba7615d1146109df578063bae7d8fc146109e8578063bcf0dd8e146109fb578063c2ba474414610a0e578063c4a643ad14610a2157600080fd5b8063a2f3a43e116101d4578063af52991611610198578063af5299161461096a578063b2b439c51461097d578063b3b33505146109a6578063b47cc556146109b9578063b88d4fde146109cc57600080fd5b8063a2f3a43e146108de578063a497b51e146108f1578063a5099bae14610904578063a74cc55c14610917578063ad1e2b5b1461095757600080fd5b806399d32fc41161021b57806399d32fc4146108645780639cf5c3f51461086d578063a17eb5fa14610876578063a2026f23146108b8578063a22cb465146108cb57600080fd5b806385b31d7b146108005780638da5cb5b14610830578063909b347a1461084157806395d89b411461084957806396e532c11461085157600080fd5b80633656cb8f116103735780636352211e116102f05780637824407f116102b45780637824407f146107a45780637c43dac1146107ad578063805bb399146107d15780638441c068146107da5780638457df94146107ed57600080fd5b80636352211e1461075b57806370a082311461076e578063715018a61461078157806372c3763c14610789578063734b81471461079c57600080fd5b806342842e0e1161033757806342842e0e146106ed578063469cd333146107005780634af7dc54146107135780635b7121f81461071c5780635cf390491461074857600080fd5b80633656cb8f1461067e57806339b37daf146106875780633c07d9ae1461069a5780633c4f9ea9146106ad5780633d6877e4146106bc57600080fd5b80632000d430116104015780632bd6f7b1116103c55780632bd6f7b1146105da5780632e75ab50146105e2578063344a681e146105f557806335b1abf81461060857806336148dd11461061157600080fd5b80632000d4301461056357806322a18de71461056c57806323b872dd1461057f578063265c1dde146105925780632b105663146105c557600080fd5b8063095ea7b311610448578063095ea7b3146105135780630e15561a146105285780630ff574f21461053f578063133573841461055257806318160ddd1461055b57600080fd5b806301ffc9a714610485578063040141e5146104ad57806305874723146104d857806306fdde03146104eb578063081812fc14610500575b600080fd5b6104986104933660046149df565b610b7f565b60405190151581526020015b60405180910390f35b600b546104c0906001600160a01b031681565b6040516001600160a01b0390911681526020016104a4565b600c546104c0906001600160a01b031681565b6104f3610bd1565b6040516104a49190614a54565b6104c061050e366004614a67565b610c63565b610526610521366004614a9c565b610cf0565b005b61053160165481565b6040519081526020016104a4565b61052661054d366004614ac6565b610e06565b610531601e5481565b600954610531565b61053160185481565b61052661057a366004614ae8565b610e8d565b61052661058d366004614b03565b610eff565b6105a56105a0366004614a67565b610f30565b6040805194855260208501939093529183015260608201526080016104a4565b6105cd61106a565b6040516104a49190614b3f565b6104986110c1565b6105266105f0366004614a67565b611325565b610526610603366004614a67565b6113a3565b610531601a5481565b61066b61061f366004614a67565b6012602052600090815260409020805460018201546002830154600384015460048501546005909501549394929360ff8316936101009093046001600160a01b03908116939216919087565b6040516104a49796959493929190614b99565b610531601f5481565b610526610695366004614ae8565b611413565b6105266106a8366004614a67565b611485565b610531670494654067e1000081565b6104c06106ca366004614a67565b60009081526012602052604090206002015461010090046001600160a01b031690565b6105266106fb366004614b03565b6114fe565b61053161070e366004614a67565b611519565b61053160255481565b6104c061072a366004614a67565b6000908152601260205260409020600301546001600160a01b031690565b6011546104c0906001600160a01b031681565b6104c0610769366004614a67565b61156c565b61053161077c366004614ae8565b6115e3565b61052661166a565b600a546104c0906001600160a01b031681565b6104986116a0565b61053160095481565b6107c06107bb366004614bf5565b611775565b6040516104a4959493929190614c16565b610531601b5481565b6105266107e8366004614ae8565b61182e565b6105316107fb366004614a67565b611884565b6108086118a5565b604080519586526020860194909452928401919091526060830152608082015260a0016104a4565b6007546001600160a01b03166104c0565b6105266118c7565b6104f3611e08565b61053161085f366004614a9c565b611e17565b61053160195481565b61053160175481565b610889610884366004614ac6565b611ee0565b6040516104a4949392919093845260208401929092526001600160a01b03166040830152606082015260800190565b6104986108c6366004614ae8565b611f35565b6105266108d9366004614c5b565b612199565b6105316108ec366004614a67565b61225e565b600e546104c0906001600160a01b031681565b610531610912366004614a67565b6122f2565b610889610925366004614a67565b60208052600090815260409020805460018201546002830154600390930154919290916001600160a01b039091169084565b6010546104c0906001600160a01b031681565b600d546104c0906001600160a01b031681565b61053161098b366004614ae8565b6001600160a01b031660009081526013602052604090205490565b600f546104c0906001600160a01b031681565b6105266109c7366004614ae8565b612318565b6105266109da366004614cd9565b6123ab565b61053160155481565b6105266109f6366004614ae8565b6123e3565b610526610a09366004614b03565b612455565b610498610a1c366004614ae8565b61247f565b61053161254e565b610526610a37366004614ae8565b612565565b610531610a4a366004614ae8565b60136020526000908152604090205481565b6105316104b081565b6104f3610a73366004614a67565b6125d7565b610531610a86366004614a67565b61274e565b61053160085481565b610526610aa2366004614a67565b612cbf565b610aba610ab5366004614a67565b612f6d565b604080519283526020830191909152016104a4565b610531610add366004614a67565b613083565b610498610af0366004614d99565b6001600160a01b03918216600090815260056020908152604080832093909416825291909152205460ff1690565b610531613093565b610526610b34366004614ae8565b613103565b610526610b47366004614dcc565b61319e565b610531610b5a366004614a67565b60009081526012602052604090205490565b610808610b7a366004614ae8565b61346e565b60006001600160e01b031982166380ac58cd60e01b1480610bb057506001600160e01b03198216635b5e139f60e01b145b80610bcb57506301ffc9a760e01b6001600160e01b03198316145b92915050565b606060008054610be090614df4565b80601f0160208091040260200160405190810160405280929190818152602001828054610c0c90614df4565b8015610c595780601f10610c2e57610100808354040283529160200191610c59565b820191906000526020600020905b815481529060010190602001808311610c3c57829003601f168201915b5050505050905090565b6000610c6e826134bb565b610cd45760405162461bcd60e51b815260206004820152602c60248201527f4552433732313a20617070726f76656420717565727920666f72206e6f6e657860448201526b34b9ba32b73a103a37b5b2b760a11b60648201526084015b60405180910390fd5b506000908152600460205260409020546001600160a01b031690565b6000610cfb8261156c565b9050806001600160a01b0316836001600160a01b03161415610d695760405162461bcd60e51b815260206004820152602160248201527f4552433732313a20617070726f76616c20746f2063757272656e74206f776e656044820152603960f91b6064820152608401610ccb565b336001600160a01b0382161480610d855750610d858133610af0565b610df75760405162461bcd60e51b815260206004820152603860248201527f4552433732313a20617070726f76652063616c6c6572206973206e6f74206f7760448201527f6e6572206e6f7220617070726f76656420666f7220616c6c00000000000000006064820152608401610ccb565b610e0183836134d8565b505050565b6007546001600160a01b03163314610e305760405162461bcd60e51b8152600401610ccb90614e29565b610e3a8183614e74565b61271014610e825760405162461bcd60e51b81526020600482015260156024820152744e6f7420616464696e6720757020746f203130302560581b6044820152606401610ccb565b601a91909155601b55565b6007546001600160a01b03163314610eb75760405162461bcd60e51b8152600401610ccb90614e29565b6001600160a01b038116610edd5760405162461bcd60e51b8152600401610ccb90614e8c565b601080546001600160a01b0319166001600160a01b0392909216919091179055565b610f093382613546565b610f255760405162461bcd60e51b8152600401610ccb90614eb2565b610e0183838361362c565b6000818152601260205260408120600201548190819081908190601c90829060ff166003811115610f6357610f63614b83565b6003811115610f7457610f74614b83565b81526020019081526020016000206040518060a0016040529081600082015481526020016001820154815260200160028201548152602001600382018054610fbb90614df4565b80601f0160208091040260200160405190810160405280929190818152602001828054610fe790614df4565b80156110345780601f1061100957610100808354040283529160200191611034565b820191906000526020600020905b81548152906001019060200180831161101757829003601f168201915b50505091835250506004919091015460209182015281519082015160408301516080909301519199909850919650945092505050565b60606014805480602002602001604051908101604052809291908181526020018280548015610c5957602002820191906000526020600020905b8154815260200190600101908083116110a4575050505050905090565b6010546000906001600160a01b03163314806110e757506007546001600160a01b031633145b6111035760405162461bcd60e51b8152600401610ccb90614f03565b600c546040516370a0823160e01b81523060048201526001600160a01b03909116906370a0823190602401602060405180830381865afa15801561114b573d6000803e3d6000fd5b505050506040513d601f19601f8201168201806040525081019061116f9190614f23565b60155411156111ed57600c546040516370a0823160e01b81523060048201526001600160a01b03909116906370a0823190602401602060405180830381865afa1580156111c0573d6000803e3d6000fd5b505050506040513d601f19601f820116820180604052508101906111e49190614f23565b60155550600190565b601554600c546040516370a0823160e01b8152306004820152600092916001600160a01b0316906370a0823190602401602060405180830381865afa15801561123a573d6000803e3d6000fd5b505050506040513d601f19601f8201168201806040525081019061125e9190614f23565b6112689190614f3c565b9050670de0b6b3a764000081101561128257600091505090565b600061128d60095490565b9050600061129b8284614f69565b905060005b82811015611303578160126000601484815481106112c0576112c0614f7d565b9060005260206000200154815260200190815260200160002060000160008282546112eb9190614e74565b909155508190506112fb81614f93565b9150506112a0565b5082601560008282546113169190614e74565b90915550600194505050505090565b6007546001600160a01b0316331461134f5760405162461bcd60e51b8152600401610ccb90614e29565b6103e881101580156113635750610bb88111155b61139e5760405162461bcd60e51b815260206004820152600c60248201526b486172646c696d697473202160a01b6044820152606401610ccb565b601955565b6007546001600160a01b031633146113cd5760405162461bcd60e51b8152600401610ccb90614e29565b61096081111561140e5760405162461bcd60e51b815260206004820152600c60248201526b486172646c696d697473202160a01b6044820152606401610ccb565b601855565b6007546001600160a01b0316331461143d5760405162461bcd60e51b8152600401610ccb90614e29565b6001600160a01b0381166114635760405162461bcd60e51b8152600401610ccb90614e8c565b600c80546001600160a01b0319166001600160a01b0392909216919091179055565b6007546001600160a01b031633146114af5760405162461bcd60e51b8152600401610ccb90614e29565b6127108111156114f95760405162461bcd60e51b81526020600482015260156024820152744e6f7420616464696e6720757020746f203130302560581b6044820152606401610ccb565b602555565b610e01838383604051806020016040528060008152506123ab565b600081815260126020526040812060020154601c90829060ff16600381111561154457611544614b83565b600381111561155557611555614b83565b815260208101919091526040016000205492915050565b6000818152600260205260408120546001600160a01b031680610bcb5760405162461bcd60e51b815260206004820152602960248201527f4552433732313a206f776e657220717565727920666f72206e6f6e657869737460448201526832b73a103a37b5b2b760b91b6064820152608401610ccb565b60006001600160a01b03821661164e5760405162461bcd60e51b815260206004820152602a60248201527f4552433732313a2062616c616e636520717565727920666f7220746865207a65604482015269726f206164647265737360b01b6064820152608401610ccb565b506001600160a01b031660009081526003602052604090205490565b6007546001600160a01b031633146116945760405162461bcd60e51b8152600401610ccb90614e29565b61169e600061370f565b565b6040516370a0823160e01b815233600482015260009030906370a0823190602401602060405180830381865afa1580156116de573d6000803e3d6000fd5b505050506040513d601f19601f820116820180604052508101906117029190614f23565b600114801561171f57503360009081526013602052604090205415155b61173b5760405162461bcd60e51b8152600401610ccb90614fae565b60265460011461175d5760405162461bcd60e51b8152600401610ccb90614fd0565b600060265561176b33613761565b9050600160265590565b601c602052600090815260409020805460018201546002830154600384018054939492939192916117a590614df4565b80601f01602080910402602001604051908101604052809291908181526020018280546117d190614df4565b801561181e5780601f106117f35761010080835404028352916020019161181e565b820191906000526020600020905b81548152906001019060200180831161180157829003601f168201915b5050505050908060040154905085565b6007546001600160a01b031633146118585760405162461bcd60e51b8152600401610ccb90614e29565b600a80546001600160a01b039092166001600160a01b0319928316811790915560118054909216179055565b6021818154811061189457600080fd5b600091825260209091200154905081565b60008060008060006118b63361346e565b945094509450945094509091929394565b6040516370a0823160e01b815233600482015230906370a0823190602401602060405180830381865afa158015611902573d6000803e3d6000fd5b505050506040513d601f19601f820116820180604052508101906119269190614f23565b600114801561194357503360009081526013602052604090205415155b61195f5760405162461bcd60e51b8152600401610ccb90614fae565b6026546001146119815760405162461bcd60e51b8152600401610ccb90614fd0565b6000602681905533815260136020908152604080832054835260128252808320815160e081018352815481526001820154938101939093526002810154909183019060ff1660038111156119d7576119d7614b83565b60038111156119e8576119e8614b83565b815260028201546001600160a01b0361010090910481166020830152600380840154909116604080840191909152600484015460608401526005909301546080909201919091528251918301519293509091600091601c918391811115611a5157611a51614b83565b6003811115611a6257611a62614b83565b8152602001908152602001600020600001549050600061271082601954611a899190614fff565b611a939190614f69565b601954611aa09190614f3c565b90506000612710611ab18386614fff565b611abb9190614f69565b601a5490915015611ba2576000612710601a5483611ad99190614fff565b611ae39190614f69565b600c54604051630852cd8d60e31b8152600481018390529192506001600160a01b0316906342966c6890602401600060405180830381600087803b158015611b2a57600080fd5b505af1158015611b3e573d6000803e3d6000fd5b5050600c54604051638827e09b60e01b8152600481018590526001600160a01b039091169250638827e09b9150602401600060405180830381600087803b158015611b8857600080fd5b505af1158015611b9c573d6000803e3d6000fd5b50505050505b601b5415611c45576000612710601b5483611bbd9190614fff565b611bc79190614f69565b600c5460105460405163a9059cbb60e01b81526001600160a01b03918216600482015260248101849052929350169063a9059cbb906044016020604051808303816000875af1158015611c1e573d6000803e3d6000fd5b505050506040513d601f19601f82011682018060405250810190611c42919061501e565b50505b600c546001600160a01b031663a9059cbb33611c618488614f3c565b6040516001600160e01b031960e085901b1681526001600160a01b03909216600483015260248201526044016020604051808303816000875af1158015611cac573d6000803e3d6000fd5b505050506040513d601f19601f82011682018060405250810190611cd0919061501e565b508360156000828254611ce39190614f3c565b90915550506020850151611cf79085614f3c565b60166000828254611d089190614f3c565b909155505060a0850180516000908152601260205260408120818155600181018290556002810180546001600160a81b03191690556003810180546001600160a01b0319169055600481018290556005015551611d6490613b04565b503360009081526013602052604081208190556009805491611d858361503b565b9190505550611d978560a00151613c3f565b7f9e4cd44a214c290e24a6167c728ce9a6e706dce33171779ea77807f9ab73cf87338660a0015187604001516003811115611dd457611dd4614b83565b604080516001600160a01b03909416845260208401929092529082015260600160405180910390a150506001602655505050565b606060018054610be090614df4565b600c546000906001600160a01b0316331480611e3d57506007546001600160a01b031633145b611e595760405162461bcd60e51b8152600401610ccb90614f03565b6040516330ae91d160e21b81526001600160a01b0384166004820152309063c2ba474490602401602060405180830381865afa158015611e9d573d6000803e3d6000fd5b505050506040513d601f19601f82011682018060405250810190611ec1919061501e565b15611ed757611ed08383613c7f565b9050610bcb565b50600092915050565b60228260038110611ef057600080fd5b018181548110611eff57600080fd5b6000918252602090912060049091020180546001820154600283015460039093015491945092506001600160a01b039091169084565b6001600160a01b038116600090815260136020908152604080832054835260128252808320815160e08101835281548152600182015493810193909352600281015484939283019060ff166003811115611f9157611f91614b83565b6003811115611fa257611fa2614b83565b815260028201546001600160a01b036101009091048116602083015260038084015490911660408301526004830154606083015260059092015460809091015290915081604001516003811115611ffb57611ffb614b83565b14156120455760405162461bcd60e51b815260206004820152601960248201527820b63932b0b23c902622a3a2a72220a92c9010902137bbb99760391b6044820152606401610ccb565b60008160400151600381111561205d5761205d614b83565b612068906001614e74565b600381111561207957612079614b83565b90506000601c600083600381111561209357612093614b83565b60038111156120a4576120a4614b83565b81526020019081526020016000206040518060a00160405290816000820154815260200160018201548152602001600282015481526020016003820180546120eb90614df4565b80601f016020809104026020016040519081016040528092919081815260200182805461211790614df4565b80156121645780601f1061213957610100808354040283529160200191612164565b820191906000526020600020905b81548152906001019060200180831161214757829003601f168201915b50505050508152602001600482015481525050905080608001518360c0015161218d9190614e74565b43101595945050505050565b6001600160a01b0382163314156121f25760405162461bcd60e51b815260206004820152601960248201527f4552433732313a20617070726f766520746f2063616c6c6572000000000000006044820152606401610ccb565b3360008181526005602090815260408083206001600160a01b03871680855290835292819020805460ff191686151590811790915590519081529192917f17307eab39ab6107e8899845ad3d59bd9653f200f220920489ca2b5937696c31910160405180910390a35050565b6000818152601260205260408120600201548190601c90829060ff16600381111561228b5761228b614b83565b600381111561229c5761229c614b83565b81526020019081526020016000206004015460126000858152602001908152602001600020600501546122cf9190614e74565b90504381116122e15750600092915050565b6122eb4382614f3c565b9392505050565b60008181526012602052604081206002015460ff166003811115610bcb57610bcb614b83565b6007546001600160a01b031633146123425760405162461bcd60e51b8152600401610ccb90614e29565b6001600160a01b0381166123895760405162461bcd60e51b815260206004820152600e60248201526d5a65726f2061646472657373202160901b6044820152606401610ccb565b600f80546001600160a01b0319166001600160a01b0392909216919091179055565b6123b53383613546565b6123d15760405162461bcd60e51b8152600401610ccb90614eb2565b6123dd84848484613fa4565b50505050565b6007546001600160a01b0316331461240d5760405162461bcd60e51b8152600401610ccb90614e29565b6001600160a01b0381166124335760405162461bcd60e51b8152600401610ccb90614e8c565b600e80546001600160a01b0319166001600160a01b0392909216919091179055565b600f546001600160a01b03163314610f255760405162461bcd60e51b8152600401610ccb90614f03565b600061248a826115e3565b612546576101f46009541080156124b057506018546017546124ac9190614e74565b4310155b80156125255750600e546040516336560f8f60e21b81526001600160a01b0384811660048301529091169063d9583e3c90602401602060405180830381865afa158015612501573d6000803e3d6000fd5b505050506040513d601f19601f82011682018060405250810190612525919061501e565b1561253257506001919050565b6101f4600854101561254657506001919050565b506000919050565b60006018546017546125609190614e74565b905090565b6007546001600160a01b0316331461258f5760405162461bcd60e51b8152600401610ccb90614e29565b6001600160a01b0381166125b55760405162461bcd60e51b8152600401610ccb90614e8c565b600d80546001600160a01b0319166001600160a01b0392909216919091179055565b60606125e2826134bb565b6126485760405162461bcd60e51b815260206004820152603160248201527f45524337323155524953746f726167653a2055524920717565727920666f72206044820152703737b732bc34b9ba32b73a103a37b5b2b760791b6064820152608401610ccb565b6000828152600660205260408120805461266190614df4565b80601f016020809104026020016040519081016040528092919081815260200182805461268d90614df4565b80156126da5780601f106126af576101008083540402835291602001916126da565b820191906000526020600020905b8154815290600101906020018083116126bd57829003601f168201915b5050505050905060006126f860408051602081019091526000815290565b905080516000141561270b575092915050565b81511561273d578082604051602001612725929190615052565b60405160208183030381529060405292505050919050565b61274684613fd7565b949350505050565b6040516370a0823160e01b815233600482015260009030906370a0823190602401602060405180830381865afa15801561278c573d6000803e3d6000fd5b505050506040513d601f19601f820116820180604052508101906127b09190614f23565b60011480156127cd57503360009081526013602052604090205415155b6127e95760405162461bcd60e51b8152600401610ccb90614fae565b60265460011461280b5760405162461bcd60e51b8152600401610ccb90614fd0565b6000602681905533815260136020908152604080832054835260128252808320815160e081018352815481526001820154938101939093526002810154909183019060ff16600381111561286157612861614b83565b600381111561287257612872614b83565b815260028201546001600160a01b0361010090910481166020830152600380840154909116604083015260048301546060830152600590920154608090910152909150816040015160038111156128cb576128cb614b83565b141561290c5760405162461bcd60e51b815260206004820152601060248201526f416c7265616479204d61782052616e6b60801b6044820152606401610ccb565b60008061291885612f6d565b60a0850151600090815260126020526040812060050180549395509193508492612943908490614f3c565b90915550612952905033613761565b5060a083015160008181526020805260409020600201546001600160a01b0316612986576129813383836140ae565b6129ce565b6000818152602080526040812060010180548492906129a6908490614e74565b90915550506000818152602080526040812080548492906129c8908490614e74565b90915550505b6000846040015160038111156129e6576129e6614b83565b1480156129fb575067c7d713b49da000008210155b15612a6557600d54604051630ecaea7360e01b8152336004820152602481018390526001600160a01b0390911690630ecaea7390604401600060405180830381600087803b158015612a4c57600080fd5b505af1158015612a60573d6000803e3d6000fd5b505050505b600c546040516323b872dd60e01b8152336004820152306024820152604481018890526001600160a01b03909116906323b872dd906064016020604051808303816000875af1158015612abc573d6000803e3d6000fd5b505050506040513d601f19601f82011682018060405250810190612ae0919061501e565b50600061271060255488612af49190614fff565b612afe9190614f69565b90506000612b0c8289614f3c565b600c54604051630852cd8d60e31b8152600481018390529192506001600160a01b0316906342966c6890602401600060405180830381600087803b158015612b5357600080fd5b505af1158015612b67573d6000803e3d6000fd5b5050600c54604051638827e09b60e01b8152600481018590526001600160a01b039091169250638827e09b9150602401600060405180830381600087803b158015612bb157600080fd5b505af1158015612bc5573d6000803e3d6000fd5b5050600c5460105460405163a9059cbb60e01b81526001600160a01b039182166004820152602481018790529116925063a9059cbb91506044016020604051808303816000875af1158015612c1e573d6000803e3d6000fd5b505050506040513d601f19601f82011682018060405250810190612c42919061501e565b5060a0808701516040805133815260208101929092528101879052606081018a9052608081018690527f8a34e5a55aca5b11ba8c51f65424c9c4c2baffea45d17126d714e5d62b5f10ab910160405180910390a150505060a090920151600090815260126020526040902060050154925050506001602655919050565b6010546001600160a01b0316331480612ce25750600c546001600160a01b031633145b612cfe5760405162461bcd60e51b8152600401610ccb90614f03565b6000306001600160a01b03166318160ddd6040518163ffffffff1660e01b8152600401602060405180830381865afa158015612d3e573d6000803e3d6000fd5b505050506040513d601f19601f82011682018060405250810190612d629190614f23565b90506000612d708284614f69565b905060008060005b84811015612e7b57612710601c60006012600060148681548110612d9e57612d9e614f7d565b6000918252602080832090910154835282019290925260400190206002015460ff166003811115612dd157612dd1614b83565b6003811115612de257612de2614b83565b81526020019081526020016000206002015485612dff9190614fff565b612e099190614f69565b9150612e158284614e74565b9250612e218285614e74565b6012600060148481548110612e3857612e38614f7d565b906000526020600020015481526020019081526020016000206000016000828254612e639190614e74565b90915550819050612e7381614f93565b915050612d78565b50612e868286614e74565b60166000828254612e979190614e74565b90915550612ea790508286614e74565b60156000828254612eb89190614e74565b9091555050600c546040516340c10f1960e01b8152306004820152602481018490526001600160a01b03909116906340c10f1990604401600060405180830381600087803b158015612f0957600080fd5b505af1158015612f1d573d6000803e3d6000fd5b505060165460408051898152602081019290925281018590527f7ecec5f783175055ae48800085a4ba5ce07e51dbd33e93fe1f7d2cb685b5d96a9250606001905060405180910390a15050505050565b60115460405163d06ca61f60e01b815260009182916001600160a01b039091169063d06ca61f90612fa5908690601d90600401615081565b600060405180830381865afa158015612fc2573d6000803e3d6000fd5b505050506040513d6000823e601f3d908101601f19168201604052612fea91908101906150dd565b600181518110612ffc57612ffc614f7d565b60200260200101519050670494654067e1000081101561305e5760405162461bcd60e51b815260206004820152601c60248201527f556e646572206d696e2e2076616c75653a203c20302e333320455448000000006044820152606401610ccb565b662386f26fc100006130726104b083614fff565b61307c9190614f69565b9150915091565b6014818154811061189457600080fd5b6000306001600160a01b03166318160ddd6040518163ffffffff1660e01b8152600401602060405180830381865afa1580156130d3573d6000803e3d6000fd5b505050506040513d601f19601f820116820180604052508101906130f79190614f23565b612560906101f4614f3c565b6007546001600160a01b0316331461312d5760405162461bcd60e51b8152600401610ccb90614e29565b6001600160a01b0381166131925760405162461bcd60e51b815260206004820152602660248201527f4f776e61626c653a206e6577206f776e657220697320746865207a65726f206160448201526564647265737360d01b6064820152608401610ccb565b61319b8161370f565b50565b6007546001600160a01b031633146131c85760405162461bcd60e51b8152600401610ccb90614e29565b6022601f54600381106131dd576131dd614f7d565b01602060006013816131f186850187614ae8565b6001600160a01b039081168252602080830193909352604091820160009081205485528484019590955292018320845460018181018755958552919093208354600490920201908155838301549381019390935560028083015490840180546001600160a01b0319169190921617905560039081015491810191909155601f54602291811061328257613282614f7d565b016020600060138161329960408701878601614ae8565b6001600160a01b039081168252602080830193909352604091820160009081205485528484019590955292018320845460018181018755958552919093208354600490920201908155838301549381019390935560028083015490840180546001600160a01b0319169190921617905560039081015491810191909155601f54602291811061332a5761332a614f7d565b01602060006013816133426060870160408801614ae8565b6001600160a01b0390811682526020808301939093526040918201600090812054855284840195909552920183208454600181810187559585529184208154600490930201918255848101549482019490945560028085015490820180546001600160a01b03191691909316179091556003928301549201919091555b60215481101561341557600060206000602184815481106133e2576133e2614f7d565b9060005260206000200154815260200190815260200160002060010181905550808061340d90614f93565b9150506133bf565b50601f805490600061342683614f93565b90915550506000601e8190556040517f2d094281a2e5055a44862ad39077235344f2a66e2dc38b09f0e43a38ba00cdb19161346391849190615183565b60405180910390a150565b600080600080600080613480876141a7565b90508060400151600381111561349857613498614b83565b8151602083015160a084015160c090940151929a91995097509195509350915050565b6000908152600260205260409020546001600160a01b0316151590565b600081815260046020526040902080546001600160a01b0319166001600160a01b038416908117909155819061350d8261156c565b6001600160a01b03167f8c5be1e5ebec7d5bd14f71427d1e84f3dd0314c0f7b2291e5b200ac8c7c3b92560405160405180910390a45050565b6000613551826134bb565b6135b25760405162461bcd60e51b815260206004820152602c60248201527f4552433732313a206f70657261746f7220717565727920666f72206e6f6e657860448201526b34b9ba32b73a103a37b5b2b760a11b6064820152608401610ccb565b60006135bd8361156c565b9050806001600160a01b0316846001600160a01b031614806135f85750836001600160a01b03166135ed84610c63565b6001600160a01b0316145b8061274657506001600160a01b0380821660009081526005602090815260408083209388168352929052205460ff16612746565b613635826115e3565b15801561365857506001600160a01b038216600090815260136020526040902054155b6136b05760405162461bcd60e51b8152602060048201526024808201527f4f776e657273686970206c696d6974656420746f203120706572206163636f756044820152636e74202160e01b6064820152608401610ccb565b6136bb838383614262565b6001600160a01b03928316600090815260136020908152604080832083905593909416808252838220839055918152601290935291206002018054610100600160a81b031916610100909202919091179055565b600780546001600160a01b038381166001600160a01b0319831681179093556040519116919082907f8be0079c531659141344cd1fd0a4f28419497f9722a3daafe3b4186f6b6457e090600090a35050565b6001600160a01b038116600090815260136020908152604080832054835260128252808320815160e08101835281548152600182015493810193909352600281015484939283019060ff1660038111156137bd576137bd614b83565b60038111156137ce576137ce614b83565b815260028201546001600160a01b03610100909104811660208301526003808401549091166040830152600483015460608301526005909201546080909101529091508160400151600381111561382757613827614b83565b14156138715760405162461bcd60e51b815260206004820152601960248201527820b63932b0b23c902622a3a2a72220a92c9010902137bbb99760391b6044820152606401610ccb565b61387a33611f35565b6138875750600092915050565b60008160400151600381111561389f5761389f614b83565b6138aa906001614e74565b90506138de6040518060a0016040528060008152602001600081526020016000815260200160608152602001600081525090565b60035b828110613af857601c60008260038111156138fe576138fe614b83565b600381111561390f5761390f614b83565b600381111561392057613920614b83565b81526020019081526020016000206040518060a001604052908160008201548152602001600182015481526020016002820154815260200160038201805461396790614df4565b80601f016020809104026020016040519081016040528092919081815260200182805461399390614df4565b80156139e05780601f106139b5576101008083540402835291602001916139e0565b820191906000526020600020905b8154815290600101906020018083116139c357829003601f168201915b50505050508152602001600482015481525050915081608001518460c00151613a099190614e74565b4310613ae657806003811115613a2157613a21614b83565b60a08501516000908152601260205260409020600201805460ff19166001836003811115613a5157613a51614b83565b0217905550613a688460a001518360600151614402565b7f764310f425e246ff0568f51beff5c40f3122a544b027411b48236cf7fc736f94338560a001514387604001516003811115613aa657613aa6614b83565b604080516001600160a01b03909516855260208501939093529183015260608201526080810183905260a00160405180910390a150600195945050505050565b80613af08161503b565b9150506138e1565b50600095945050505050565b601480546000918390613b18600184614f3c565b81548110613b2857613b28614f7d565b90600052602060002001541415613b6a576014805480613b4a57613b4a6151cc565b600190038181906000526020600020016000905590556001915050919050565b6000805b613b79600184614f3c565b811015613c0a5760148181548110613b9357613b93614f7d565b9060005260206000200154851415613baa57600191505b8115613bf8576014613bbd826001614e74565b81548110613bcd57613bcd614f7d565b906000526020600020015460148281548110613beb57613beb614f7d565b6000918252602090912001555b80613c0281614f93565b915050613b6e565b5080156122eb576014805480613c2257613c226151cc565b600190038181906000526020600020016000905590559392505050565b613c488161448d565b60008181526006602052604090208054613c6190614df4565b15905061319b57600081815260066020526040812061319b916148a8565b6000806008546001613c919190614e74565b905060006040518060e0016040528085815260200185815260200160006003811115613cbf57613cbf614b83565b81526001600160a01b038716602080830182905260408084019290925260608301869052436080909301929092526014805460018181019092557fce6d7b5282bd9a3661ae061feed1dbda4e52ab073b1f9285be6e155d9c38d4ec018690556000868152601284528290208451815592840151838201559083015160028301805494955085949192909160ff191690836003811115613d6057613d60614b83565b02179055506060820151600282018054610100600160a81b0319166101006001600160a01b039384160217905560808301516003830180546001600160a01b03191691831691909117905560a0830151600483015560c090920151600590910155851660009081526013602052604081208390556008805491613de283614f93565b909155505060098054906000613df783614f93565b91905055508360156000828254613e0e9190614e74565b909155505043601755613e218583614528565b613eef82601c600084604001516003811115613e3f57613e3f614b83565b6003811115613e5057613e50614b83565b81526020019081526020016000206003018054613e6c90614df4565b80601f0160208091040260200160405190810160405280929190818152602001828054613e9890614df4565b8015613ee55780601f10613eba57610100808354040283529160200191613ee5565b820191906000526020600020905b815481529060010190602001808311613ec857829003601f168201915b5050505050614402565b6101f4821115613f9c57600e54604051637435403560e01b81526001600160a01b03878116600483015290911690637435403590602401600060405180830381600087803b158015613f4057600080fd5b505af1158015613f54573d6000803e3d6000fd5b5050604080516001600160a01b0389168152602081018690527f4cc0a9c4a99ddc700de1af2c9f916a7cbfdb71f14801ccff94061ad1ef8a8040935001905060405180910390a15b509392505050565b613faf84848461362c565b613fbb84848484614546565b6123dd5760405162461bcd60e51b8152600401610ccb906151e2565b6060613fe2826134bb565b6140465760405162461bcd60e51b815260206004820152602f60248201527f4552433732314d657461646174613a2055524920717565727920666f72206e6f60448201526e3732bc34b9ba32b73a103a37b5b2b760891b6064820152608401610ccb565b600061405d60408051602081019091526000815290565b9050600081511161407d57604051806020016040528060008152506122eb565b8061408784614644565b604051602001614098929190615052565b6040516020818303038152906040529392505050565b6040805160808101825283815260208082018581526001600160a01b03878116848601908152606085018781526021805460018082019092557f3a6357012c1a3ae0a17d304c9920310382d968ebcc4b1771f41c6b304205b57001899055600089815295805296852086518155935196840196909655516002830180546001600160a01b031916919092161790559251600390930192909255601e80549192859261415a908490614e74565b9091555050604080516001600160a01b0386168152602081018590527fb6155581cb5d71a461ca31aa90f4ed908dbe215c374b24287ddcab8ae49007db910160405180910390a150505050565b6141af6148e2565b6001600160a01b03821660009081526013602090815260408083205483526012825291829020825160e081018452815481526001820154928101929092526002810154919290919083019060ff16600381111561420e5761420e614b83565b600381111561421f5761421f614b83565b815260028201546001600160a01b036101009091048116602083015260038301541660408201526004820154606082015260059091015460809091015292915050565b826001600160a01b03166142758261156c565b6001600160a01b0316146142dd5760405162461bcd60e51b815260206004820152602960248201527f4552433732313a207472616e73666572206f6620746f6b656e2074686174206960448201526839903737ba1037bbb760b91b6064820152608401610ccb565b6001600160a01b03821661433f5760405162461bcd60e51b8152602060048201526024808201527f4552433732313a207472616e7366657220746f20746865207a65726f206164646044820152637265737360e01b6064820152608401610ccb565b61434a6000826134d8565b6001600160a01b0383166000908152600360205260408120805460019290614373908490614f3c565b90915550506001600160a01b03821660009081526003602052604081208054600192906143a1908490614e74565b909155505060008181526002602052604080822080546001600160a01b0319166001600160a01b0386811691821790925591518493918716917fddf252ad1be2c89b69c2b068fc378daa952ba7f163c4a11628f55a4df523b3ef91a4505050565b61440b826134bb565b61446e5760405162461bcd60e51b815260206004820152602e60248201527f45524337323155524953746f726167653a2055524920736574206f66206e6f6e60448201526d32bc34b9ba32b73a103a37b5b2b760911b6064820152608401610ccb565b60008281526006602090815260409091208251610e0192840190614930565b60006144988261156c565b90506144a56000836134d8565b6001600160a01b03811660009081526003602052604081208054600192906144ce908490614f3c565b909155505060008281526002602052604080822080546001600160a01b0319169055518391906001600160a01b038416907fddf252ad1be2c89b69c2b068fc378daa952ba7f163c4a11628f55a4df523b3ef908390a45050565b614542828260405180602001604052806000815250614742565b5050565b60006001600160a01b0384163b1561463957604051630a85bd0160e11b81526001600160a01b0385169063150b7a029061458a903390899088908890600401615234565b6020604051808303816000875af19250505080156145c5575060408051601f3d908101601f191682019092526145c291810190615271565b60015b61461f573d8080156145f3576040519150601f19603f3d011682016040523d82523d6000602084013e6145f8565b606091505b5080516146175760405162461bcd60e51b8152600401610ccb906151e2565b805181602001fd5b6001600160e01b031916630a85bd0160e11b149050612746565b506001949350505050565b6060816146685750506040805180820190915260018152600360fc1b602082015290565b8160005b8115614692578061467c81614f93565b915061468b9050600a83614f69565b915061466c565b60008167ffffffffffffffff8111156146ad576146ad614c92565b6040519080825280601f01601f1916602001820160405280156146d7576020820181803683370190505b5090505b8415612746576146ec600183614f3c565b91506146f9600a8661528e565b614704906030614e74565b60f81b81838151811061471957614719614f7d565b60200101906001600160f81b031916908160001a90535061473b600a86614f69565b94506146db565b61474c8383614775565b6147596000848484614546565b610e015760405162461bcd60e51b8152600401610ccb906151e2565b6001600160a01b0382166147cb5760405162461bcd60e51b815260206004820181905260248201527f4552433732313a206d696e7420746f20746865207a65726f20616464726573736044820152606401610ccb565b6147d4816134bb565b156148215760405162461bcd60e51b815260206004820152601c60248201527f4552433732313a20746f6b656e20616c7265616479206d696e746564000000006044820152606401610ccb565b6001600160a01b038216600090815260036020526040812080546001929061484a908490614e74565b909155505060008181526002602052604080822080546001600160a01b0319166001600160a01b03861690811790915590518392907fddf252ad1be2c89b69c2b068fc378daa952ba7f163c4a11628f55a4df523b3ef908290a45050565b5080546148b490614df4565b6000825580601f106148c4575050565b601f01602090049060005260206000209081019061319b91906149b4565b6040518060e0016040528060008152602001600081526020016000600381111561490e5761490e614b83565b8152600060208201819052604082018190526060820181905260809091015290565b82805461493c90614df4565b90600052602060002090601f01602090048101928261495e57600085556149a4565b82601f1061497757805160ff19168380011785556149a4565b828001600101855582156149a4579182015b828111156149a4578251825591602001919060010190614989565b506149b09291506149b4565b5090565b5b808211156149b057600081556001016149b5565b6001600160e01b03198116811461319b57600080fd5b6000602082840312156149f157600080fd5b81356122eb816149c9565b60005b83811015614a175781810151838201526020016149ff565b838111156123dd5750506000910152565b60008151808452614a408160208601602086016149fc565b601f01601f19169290920160200192915050565b6020815260006122eb6020830184614a28565b600060208284031215614a7957600080fd5b5035919050565b80356001600160a01b0381168114614a9757600080fd5b919050565b60008060408385031215614aaf57600080fd5b614ab883614a80565b946020939093013593505050565b60008060408385031215614ad957600080fd5b50508035926020909101359150565b600060208284031215614afa57600080fd5b6122eb82614a80565b600080600060608486031215614b1857600080fd5b614b2184614a80565b9250614b2f60208501614a80565b9150604084013590509250925092565b6020808252825182820181905260009190848201906040850190845b81811015614b7757835183529284019291840191600101614b5b565b50909695505050505050565b634e487b7160e01b600052602160045260246000fd5b8781526020810187905260e0810160048710614bc557634e487b7160e01b600052602160045260246000fd5b60408201969096526001600160a01b03948516606082015292909316608083015260a082015260c0015292915050565b600060208284031215614c0757600080fd5b8135600481106122eb57600080fd5b85815284602082015283604082015260a060608201526000614c3b60a0830185614a28565b90508260808301529695505050505050565b801515811461319b57600080fd5b60008060408385031215614c6e57600080fd5b614c7783614a80565b91506020830135614c8781614c4d565b809150509250929050565b634e487b7160e01b600052604160045260246000fd5b604051601f8201601f1916810167ffffffffffffffff81118282101715614cd157614cd1614c92565b604052919050565b60008060008060808587031215614cef57600080fd5b614cf885614a80565b93506020614d07818701614a80565b935060408601359250606086013567ffffffffffffffff80821115614d2b57600080fd5b818801915088601f830112614d3f57600080fd5b813581811115614d5157614d51614c92565b614d63601f8201601f19168501614ca8565b91508082528984828501011115614d7957600080fd5b808484018584013760008482840101525080935050505092959194509250565b60008060408385031215614dac57600080fd5b614db583614a80565b9150614dc360208401614a80565b90509250929050565b600060608284031215614dde57600080fd5b82606083011115614dee57600080fd5b50919050565b600181811c90821680614e0857607f821691505b60208210811415614dee57634e487b7160e01b600052602260045260246000fd5b6020808252818101527f4f776e61626c653a2063616c6c6572206973206e6f7420746865206f776e6572604082015260600190565b634e487b7160e01b600052601160045260246000fd5b60008219821115614e8757614e87614e5e565b500190565b6020808252600c908201526b5a65726f206164647265737360a01b604082015260600190565b60208082526031908201527f4552433732313a207472616e736665722063616c6c6572206973206e6f74206f6040820152701ddb995c881b9bdc88185c1c1c9bdd9959607a1b606082015260800190565b6020808252600690820152650aadc82eae8d60d31b604082015260600190565b600060208284031215614f3557600080fd5b5051919050565b600082821015614f4e57614f4e614e5e565b500390565b634e487b7160e01b600052601260045260246000fd5b600082614f7857614f78614f53565b500490565b634e487b7160e01b600052603260045260246000fd5b6000600019821415614fa757614fa7614e5e565b5060010190565b6020808252600890820152674e6f204e4654202160c01b604082015260600190565b60208082526015908201527411549493d48e88105b9d1a4b5499595b9d1c985b9d605a1b604082015260600190565b600081600019048311821515161561501957615019614e5e565b500290565b60006020828403121561503057600080fd5b81516122eb81614c4d565b60008161504a5761504a614e5e565b506000190190565b600083516150648184602088016149fc565b8351908301906150788183602088016149fc565b01949350505050565b60006040820184835260206040818501528185548084526060860191508660005282600020935060005b818110156150d05784546001600160a01b0316835260019485019492840192016150ab565b5090979650505050505050565b600060208083850312156150f057600080fd5b825167ffffffffffffffff8082111561510857600080fd5b818501915085601f83011261511c57600080fd5b81518181111561512e5761512e614c92565b8060051b915061513f848301614ca8565b818152918301840191848101908884111561515957600080fd5b938501935b838510156151775784518252938501939085019061515e565b98975050505050505050565b60808101818460005b60038110156151bc576001600160a01b036151a683614a80565b168352602092830192919091019060010161518c565b5050508260608301529392505050565b634e487b7160e01b600052603160045260246000fd5b60208082526032908201527f4552433732313a207472616e7366657220746f206e6f6e20455243373231526560408201527131b2b4bb32b91034b6b83632b6b2b73a32b960711b606082015260800190565b6001600160a01b038581168252841660208201526040810183905260806060820181905260009061526790830184614a28565b9695505050505050565b60006020828403121561528357600080fd5b81516122eb816149c9565b60008261529d5761529d614f53565b50069056fea2646970667358221220f1611a0c2d2a08fd56acee063bc5378a202680b58939ebaffa23b8648296841264736f6c634300080a0033",
  "linkReferences": {},
  "deployedLinkReferences": {}
}