{
  "_format": "hh-sol-artifact-1",
  "contractName": "ZeppelinToken",
  "sourceName": "contracts/ZeppelinToken.sol",
  "abi": [
    {
      "inputs": [],
      "stateMutability": "nonpayable",
      "type": "constructor"
    },
    {
      "anonymous": false,
      "inputs": [
        {
          "indexed": true,
          "internalType": "address",
          "name": "owner",
          "type": "address"
        },
        {
          "indexed": true,
          "internalType": "address",
          "name": "spender",
          "type": "address"
        },
        {
          "indexed": false,
          "internalType": "uint256",
          "name": "value",
          "type": "uint256"
        }
      ],
      "name": "Approval",
      "type": "event"
    },
    {
      "anonymous": false,
      "inputs": [
        {
          "indexed": false,
          "internalType": "address",
          "name": "_account",
          "type": "address"
        },
        {
          "indexed": false,
          "internalType": "uint256",
          "name": "tokens",
          "type": "uint256"
        },
        {
          "indexed": false,
          "internalType": "uint256",
          "name": "eth",
          "type": "uint256"
        }
      ],
      "name": "Buy",
      "type": "event"
    },
    {
      "anonymous": false,
      "inputs": [
        {
          "indexed": true,
          "internalType": "address",
          "name": "previousOwner",
          "type": "address"
        },
        {
          "indexed": true,
          "internalType": "address",
          "name": "newOwner",
          "type": "address"
        }
      ],
      "name": "OwnershipTransferred",
      "type": "event"
    },
    {
      "anonymous": false,
      "inputs": [
        {
          "indexed": false,
          "internalType": "address",
          "name": "_account",
          "type": "address"
        },
        {
          "indexed": false,
          "internalType": "uint256",
          "name": "_tokens",
          "type": "uint256"
        }
      ],
      "name": "ReceivedFunds",
      "type": "event"
    },
    {
      "anonymous": false,
      "inputs": [
        {
          "indexed": false,
          "internalType": "address",
          "name": "_account",
          "type": "address"
        },
        {
          "indexed": false,
          "internalType": "uint256",
          "name": "tokens",
          "type": "uint256"
        }
      ],
      "name": "Sold",
      "type": "event"
    },
    {
      "anonymous": false,
      "inputs": [
        {
          "indexed": true,
          "internalType": "address",
          "name": "from",
          "type": "address"
        },
        {
          "indexed": true,
          "internalType": "address",
          "name": "to",
          "type": "address"
        },
        {
          "indexed": false,
          "internalType": "uint256",
          "name": "value",
          "type": "uint256"
        }
      ],
      "name": "Transfer",
      "type": "event"
    },
    {
      "anonymous": false,
      "inputs": [
        {
          "indexed": false,
          "internalType": "uint256",
          "name": "reward",
          "type": "uint256"
        },
        {
          "indexed": false,
          "internalType": "uint256",
          "name": "percent",
          "type": "uint256"
        }
      ],
      "name": "ZeppelinLoyalRewarded",
      "type": "event"
    },
    {
      "anonymous": false,
      "inputs": [
        {
          "indexed": false,
          "internalType": "uint256",
          "name": "reward",
          "type": "uint256"
        },
        {
          "indexed": false,
          "internalType": "uint256",
          "name": "percent",
          "type": "uint256"
        }
      ],
      "name": "ZeppelinSpotRewarded",
      "type": "event"
    },
    {
      "stateMutability": "payable",
      "type": "fallback"
    },
    {
      "inputs": [],
      "name": "FOMOV2_ETH_PAIR",
      "outputs": [
        {
          "internalType": "address",
          "name": "",
          "type": "address"
        }
      ],
      "stateMutability": "view",
      "type": "function"
    },
    {
      "inputs": [],
      "name": "KeeperContract",
      "outputs": [
        {
          "internalType": "contract IKeeper",
          "name": "",
          "type": "address"
        }
      ],
      "stateMutability": "view",
      "type": "function"
    },
    {
      "inputs": [],
      "name": "LP_GROWER_ADDRESS",
      "outputs": [
        {
          "internalType": "address",
          "name": "",
          "type": "address"
        }
      ],
      "stateMutability": "view",
      "type": "function"
    },
    {
      "inputs": [],
      "name": "LoyalNftContract",
      "outputs": [
        {
          "internalType": "contract ILoyaZeppelinlNFT",
          "name": "",
          "type": "address"
        }
      ],
      "stateMutability": "view",
      "type": "function"
    },
    {
      "inputs": [],
      "name": "PORTAL_ADDRESS",
      "outputs": [
        {
          "internalType": "address",
          "name": "",
          "type": "address"
        }
      ],
      "stateMutability": "view",
      "type": "function"
    },
    {
      "inputs": [],
      "name": "U_FACTORY_ADDRESS",
      "outputs": [
        {
          "internalType": "address",
          "name": "",
          "type": "address"
        }
      ],
      "stateMutability": "view",
      "type": "function"
    },
    {
      "inputs": [],
      "name": "U_ROUTER",
      "outputs": [
        {
          "internalType": "address",
          "name": "",
          "type": "address"
        }
      ],
      "stateMutability": "view",
      "type": "function"
    },
    {
      "inputs": [],
      "name": "WETH_ADDRESS",
      "outputs": [
        {
          "internalType": "address",
          "name": "",
          "type": "address"
        }
      ],
      "stateMutability": "view",
      "type": "function"
    },
    {
      "inputs": [],
      "name": "ZEPPELIN_ROUTER_ADDRESS",
      "outputs": [
        {
          "internalType": "address",
          "name": "",
          "type": "address"
        }
      ],
      "stateMutability": "view",
      "type": "function"
    },
    {
      "inputs": [],
      "name": "ZeppelinSpotNftContract",
      "outputs": [
        {
          "internalType": "contract IZeppelinSpotNFT",
          "name": "",
          "type": "address"
        }
      ],
      "stateMutability": "view",
      "type": "function"
    },
    {
      "inputs": [
        {
          "internalType": "address",
          "name": "owner",
          "type": "address"
        },
        {
          "internalType": "address",
          "name": "spender",
          "type": "address"
        }
      ],
      "name": "allowance",
      "outputs": [
        {
          "internalType": "uint256",
          "name": "",
          "type": "uint256"
        }
      ],
      "stateMutability": "view",
      "type": "function"
    },
    {
      "inputs": [
        {
          "internalType": "address",
          "name": "spender",
          "type": "address"
        },
        {
          "internalType": "uint256",
          "name": "amount",
          "type": "uint256"
        }
      ],
      "name": "approve",
      "outputs": [
        {
          "internalType": "bool",
          "name": "",
          "type": "bool"
        }
      ],
      "stateMutability": "nonpayable",
      "type": "function"
    },
    {
      "inputs": [
        {
          "internalType": "address",
          "name": "account",
          "type": "address"
        }
      ],
      "name": "balanceOf",
      "outputs": [
        {
          "internalType": "uint256",
          "name": "",
          "type": "uint256"
        }
      ],
      "stateMutability": "view",
      "type": "function"
    },
    {
      "inputs": [
        {
          "internalType": "uint256",
          "name": "_amount",
          "type": "uint256"
        }
      ],
      "name": "burn",
      "outputs": [],
      "stateMutability": "nonpayable",
      "type": "function"
    },
    {
      "inputs": [
        {
          "internalType": "address[]",
          "name": "_accounts",
          "type": "address[]"
        },
        {
          "internalType": "uint256[]",
          "name": "_minReqs",
          "type": "uint256[]"
        }
      ],
      "name": "createInitialZeppelinAccounts",
      "outputs": [],
      "stateMutability": "nonpayable",
      "type": "function"
    },
    {
      "inputs": [],
      "name": "decimals",
      "outputs": [
        {
          "internalType": "uint8",
          "name": "",
          "type": "uint8"
        }
      ],
      "stateMutability": "view",
      "type": "function"
    },
    {
      "inputs": [
        {
          "internalType": "address",
          "name": "spender",
          "type": "address"
        },
        {
          "internalType": "uint256",
          "name": "subtractedValue",
          "type": "uint256"
        }
      ],
      "name": "decreaseAllowance",
      "outputs": [
        {
          "internalType": "bool",
          "name": "",
          "type": "bool"
        }
      ],
      "stateMutability": "nonpayable",
      "type": "function"
    },
    {
      "inputs": [],
      "name": "determineFeePhase",
      "outputs": [
        {
          "internalType": "uint256",
          "name": "",
          "type": "uint256"
        },
        {
          "internalType": "uint256",
          "name": "",
          "type": "uint256"
        },
        {
          "internalType": "uint256",
          "name": "",
          "type": "uint256"
        }
      ],
      "stateMutability": "view",
      "type": "function"
    },
    {
      "inputs": [],
      "name": "determineFundDistribution",
      "outputs": [
        {
          "internalType": "uint256",
          "name": "",
          "type": "uint256"
        },
        {
          "internalType": "uint256",
          "name": "",
          "type": "uint256"
        }
      ],
      "stateMutability": "view",
      "type": "function"
    },
    {
      "inputs": [],
      "name": "endMigration",
      "outputs": [],
      "stateMutability": "nonpayable",
      "type": "function"
    },
    {
      "inputs": [],
      "name": "getFomoFund1",
      "outputs": [
        {
          "internalType": "uint256",
          "name": "",
          "type": "uint256"
        }
      ],
      "stateMutability": "view",
      "type": "function"
    },
    {
      "inputs": [],
      "name": "getLoyalMintPrice",
      "outputs": [
        {
          "internalType": "uint256",
          "name": "eth",
          "type": "uint256"
        },
        {
          "internalType": "uint256",
          "name": "zeppelin",
          "type": "uint256"
        }
      ],
      "stateMutability": "view",
      "type": "function"
    },
    {
      "inputs": [],
      "name": "getMinNftAmounts",
      "outputs": [
        {
          "internalType": "uint256",
          "name": "",
          "type": "uint256"
        },
        {
          "internalType": "uint256",
          "name": "",
          "type": "uint256"
        }
      ],
      "stateMutability": "view",
      "type": "function"
    },
    {
      "inputs": [],
      "name": "getNextLoyalBlock",
      "outputs": [
        {
          "internalType": "uint256",
          "name": "",
          "type": "uint256"
        }
      ],
      "stateMutability": "view",
      "type": "function"
    },
    {
      "inputs": [],
      "name": "getNextLoyalMintPriceInTokens",
      "outputs": [
        {
          "internalType": "uint256",
          "name": "",
          "type": "uint256"
        }
      ],
      "stateMutability": "view",
      "type": "function"
    },
    {
      "inputs": [],
      "name": "getNextZeppelinSpotBlock",
      "outputs": [
        {
          "internalType": "uint256",
          "name": "",
          "type": "uint256"
        }
      ],
      "stateMutability": "view",
      "type": "function"
    },
    {
      "inputs": [],
      "name": "getPairAddress",
      "outputs": [
        {
          "internalType": "address",
          "name": "",
          "type": "address"
        }
      ],
      "stateMutability": "view",
      "type": "function"
    },
    {
      "inputs": [
        {
          "internalType": "address",
          "name": "spender",
          "type": "address"
        },
        {
          "internalType": "uint256",
          "name": "addedValue",
          "type": "uint256"
        }
      ],
      "name": "increaseAllowance",
      "outputs": [
        {
          "internalType": "bool",
          "name": "",
          "type": "bool"
        }
      ],
      "stateMutability": "nonpayable",
      "type": "function"
    },
    {
      "inputs": [],
      "name": "initialMinEthforZeppelinSpot",
      "outputs": [
        {
          "internalType": "uint256",
          "name": "",
          "type": "uint256"
        }
      ],
      "stateMutability": "view",
      "type": "function"
    },
    {
      "inputs": [],
      "name": "lastLoyRewBlock",
      "outputs": [
        {
          "internalType": "uint256",
          "name": "",
          "type": "uint256"
        }
      ],
      "stateMutability": "view",
      "type": "function"
    },
    {
      "inputs": [],
      "name": "lastLoyalMintPriceEth",
      "outputs": [
        {
          "internalType": "uint256",
          "name": "",
          "type": "uint256"
        }
      ],
      "stateMutability": "view",
      "type": "function"
    },
    {
      "inputs": [],
      "name": "lastZeppelinSpotRewBlock",
      "outputs": [
        {
          "internalType": "uint256",
          "name": "",
          "type": "uint256"
        }
      ],
      "stateMutability": "view",
      "type": "function"
    },
    {
      "inputs": [],
      "name": "lpLockFeePercent",
      "outputs": [
        {
          "internalType": "uint256",
          "name": "",
          "type": "uint256"
        }
      ],
      "stateMutability": "view",
      "type": "function"
    },
    {
      "inputs": [],
      "name": "migrationEnded",
      "outputs": [
        {
          "internalType": "bool",
          "name": "",
          "type": "bool"
        }
      ],
      "stateMutability": "view",
      "type": "function"
    },
    {
      "inputs": [
        {
          "internalType": "address",
          "name": "_account",
          "type": "address"
        },
        {
          "internalType": "uint256",
          "name": "_amount",
          "type": "uint256"
        }
      ],
      "name": "mint",
      "outputs": [],
      "stateMutability": "nonpayable",
      "type": "function"
    },
    {
      "inputs": [
        {
          "internalType": "address[]",
          "name": "_accounts",
          "type": "address[]"
        },
        {
          "internalType": "uint256[]",
          "name": "_amounts",
          "type": "uint256[]"
        }
      ],
      "name": "mintFromSnapshot",
      "outputs": [],
      "stateMutability": "nonpayable",
      "type": "function"
    },
    {
      "inputs": [
        {
          "internalType": "uint256",
          "name": "_amtOfTokens",
          "type": "uint256"
        }
      ],
      "name": "mintInitialLPTokens",
      "outputs": [],
      "stateMutability": "nonpayable",
      "type": "function"
    },
    {
      "inputs": [
        {
          "internalType": "address",
          "name": "_account",
          "type": "address"
        }
      ],
      "name": "mintZeppelinSpot",
      "outputs": [],
      "stateMutability": "nonpayable",
      "type": "function"
    },
    {
      "inputs": [],
      "name": "name",
      "outputs": [
        {
          "internalType": "string",
          "name": "",
          "type": "string"
        }
      ],
      "stateMutability": "view",
      "type": "function"
    },
    {
      "inputs": [],
      "name": "owner",
      "outputs": [
        {
          "internalType": "address",
          "name": "",
          "type": "address"
        }
      ],
      "stateMutability": "view",
      "type": "function"
    },
    {
      "inputs": [
        {
          "internalType": "uint256",
          "name": "_amount",
          "type": "uint256"
        }
      ],
      "name": "receiveFunds",
      "outputs": [],
      "stateMutability": "nonpayable",
      "type": "function"
    },
    {
      "inputs": [],
      "name": "renounceOwnership",
      "outputs": [],
      "stateMutability": "nonpayable",
      "type": "function"
    },
    {
      "inputs": [],
      "name": "scaleAmount",
      "outputs": [
        {
          "internalType": "uint256",
          "name": "",
          "type": "uint256"
        }
      ],
      "stateMutability": "view",
      "type": "function"
    },
    {
      "inputs": [],
      "name": "scaleBasis",
      "outputs": [
        {
          "internalType": "uint256",
          "name": "",
          "type": "uint256"
        }
      ],
      "stateMutability": "view",
      "type": "function"
    },
    {
      "inputs": [],
      "name": "scaleZeppelinNftMintPrice",
      "outputs": [
        {
          "internalType": "uint256",
          "name": "inTokens",
          "type": "uint256"
        },
        {
          "internalType": "uint256",
          "name": "inETH",
          "type": "uint256"
        }
      ],
      "stateMutability": "view",
      "type": "function"
    },
    {
      "inputs": [],
      "name": "sendLoyalRewardsToNft",
      "outputs": [],
      "stateMutability": "nonpayable",
      "type": "function"
    },
    {
      "inputs": [],
      "name": "sendZeppelinSpotRewardsToNft",
      "outputs": [],
      "stateMutability": "nonpayable",
      "type": "function"
    },
    {
      "inputs": [
        {
          "internalType": "uint256",
          "name": "_newCd",
          "type": "uint256"
        }
      ],
      "name": "setCooldownLoyal",
      "outputs": [],
      "stateMutability": "nonpayable",
      "type": "function"
    },
    {
      "inputs": [
        {
          "internalType": "uint256",
          "name": "_newCd",
          "type": "uint256"
        }
      ],
      "name": "setCooldownZeppelinSpot",
      "outputs": [],
      "stateMutability": "nonpayable",
      "type": "function"
    },
    {
      "inputs": [
        {
          "internalType": "uint256",
          "name": "_amt",
          "type": "uint256"
        }
      ],
      "name": "setDefaultGwei",
      "outputs": [],
      "stateMutability": "nonpayable",
      "type": "function"
    },
    {
      "inputs": [
        {
          "internalType": "uint256",
          "name": "_amount",
          "type": "uint256"
        }
      ],
      "name": "setGasRefund",
      "outputs": [],
      "stateMutability": "nonpayable",
      "type": "function"
    },
    {
      "inputs": [
        {
          "internalType": "address",
          "name": "_addy",
          "type": "address"
        }
      ],
      "name": "setKeeperAddress",
      "outputs": [],
      "stateMutability": "nonpayable",
      "type": "function"
    },
    {
      "inputs": [
        {
          "internalType": "address",
          "name": "_addy",
          "type": "address"
        }
      ],
      "name": "setLoyalNftContract",
      "outputs": [],
      "stateMutability": "nonpayable",
      "type": "function"
    },
    {
      "inputs": [
        {
          "internalType": "address",
          "name": "_addy",
          "type": "address"
        }
      ],
      "name": "setLpGrowerAddress",
      "outputs": [],
      "stateMutability": "nonpayable",
      "type": "function"
    },
    {
      "inputs": [
        {
          "internalType": "uint256",
          "name": "amt",
          "type": "uint256"
        }
      ],
      "name": "setMinETHForZeppelinSpot",
      "outputs": [],
      "stateMutability": "nonpayable",
      "type": "function"
    },
    {
      "inputs": [
        {
          "internalType": "address",
          "name": "_addy",
          "type": "address"
        }
      ],
      "name": "setPairAddress",
      "outputs": [],
      "stateMutability": "nonpayable",
      "type": "function"
    },
    {
      "inputs": [
        {
          "internalType": "address",
          "name": "_addy",
          "type": "address"
        }
      ],
      "name": "setPortalAddress",
      "outputs": [],
      "stateMutability": "nonpayable",
      "type": "function"
    },
    {
      "inputs": [
        {
          "internalType": "address",
          "name": "_addy",
          "type": "address"
        }
      ],
      "name": "setRouterAddress",
      "outputs": [],
      "stateMutability": "nonpayable",
      "type": "function"
    },
    {
      "inputs": [
        {
          "internalType": "uint256",
          "name": "_lpTax",
          "type": "uint256"
        }
      ],
      "name": "setSellTax",
      "outputs": [],
      "stateMutability": "nonpayable",
      "type": "function"
    },
    {
      "inputs": [
        {
          "internalType": "uint256",
          "name": "_newFomoTax",
          "type": "uint256"
        },
        {
          "internalType": "uint256",
          "name": "_newLpTax",
          "type": "uint256"
        }
      ],
      "name": "setTax",
      "outputs": [],
      "stateMutability": "nonpayable",
      "type": "function"
    },
    {
      "inputs": [
        {
          "internalType": "address",
          "name": "_rAdd",
          "type": "address"
        },
        {
          "internalType": "address",
          "name": "_facAdd",
          "type": "address"
        }
      ],
      "name": "setUAddrs",
      "outputs": [],
      "stateMutability": "nonpayable",
      "type": "function"
    },
    {
      "inputs": [
        {
          "internalType": "address",
          "name": "_addy",
          "type": "address"
        }
      ],
      "name": "setZeppelinSpotContract",
      "outputs": [],
      "stateMutability": "nonpayable",
      "type": "function"
    },
    {
      "inputs": [],
      "name": "startTimestamp",
      "outputs": [
        {
          "internalType": "uint256",
          "name": "",
          "type": "uint256"
        }
      ],
      "stateMutability": "view",
      "type": "function"
    },
    {
      "inputs": [],
      "name": "symbol",
      "outputs": [
        {
          "internalType": "string",
          "name": "",
          "type": "string"
        }
      ],
      "stateMutability": "view",
      "type": "function"
    },
    {
      "inputs": [],
      "name": "totalSupply",
      "outputs": [
        {
          "internalType": "uint256",
          "name": "",
          "type": "uint256"
        }
      ],
      "stateMutability": "view",
      "type": "function"
    },
    {
      "inputs": [
        {
          "internalType": "address",
          "name": "recipient",
          "type": "address"
        },
        {
          "internalType": "uint256",
          "name": "amount",
          "type": "uint256"
        }
      ],
      "name": "transfer",
      "outputs": [
        {
          "internalType": "bool",
          "name": "",
          "type": "bool"
        }
      ],
      "stateMutability": "nonpayable",
      "type": "function"
    },
    {
      "inputs": [
        {
          "internalType": "address",
          "name": "sender",
          "type": "address"
        },
        {
          "internalType": "address",
          "name": "recipient",
          "type": "address"
        },
        {
          "internalType": "uint256",
          "name": "amount",
          "type": "uint256"
        }
      ],
      "name": "transferFrom",
      "outputs": [
        {
          "internalType": "bool",
          "name": "",
          "type": "bool"
        }
      ],
      "stateMutability": "nonpayable",
      "type": "function"
    },
    {
      "inputs": [
        {
          "internalType": "address",
          "name": "newOwner",
          "type": "address"
        }
      ],
      "name": "transferOwnership",
      "outputs": [],
      "stateMutability": "nonpayable",
      "type": "function"
    },
    {
      "inputs": [],
      "name": "zeppelinFund",
      "outputs": [
        {
          "internalType": "uint256",
          "name": "",
          "type": "uint256"
        }
      ],
      "stateMutability": "view",
      "type": "function"
    },
    {
      "stateMutability": "payable",
      "type": "receive"
    }
  ],
  "bytecode": "0x6080604052600754601380546001600160a01b039283166001600160a01b0319918216179091556008546014805491909316911617905561019060155560c8601655678ac7230489e800006017556702c68af0bb140000601855617080601f556104b060205564012a05f20060235560016025553480156200008057600080fd5b50604080518082018252600d81526c2d32b83832b634b72a37b5b2b760991b6020808301918252835180850190945260088452672d32b83832b634b760c11b908401528151919291620000d691600391620002ff565b508051620000ec906004906020840190620002ff565b5050506200010962000103620002a960201b60201c565b620002ad565b604080518082019091526009546001600160a01b031681523060208201526200013790600d9060026200038e565b50604080518082019091523081526009546001600160a01b031660208201526200016690600e9060026200038e565b5068056bc75e2d631000006019556729a2241af62c0000601a5569d3c21bcecceda1000000601b55610258601c55601e6020527f71a7154daf0d0a2c36caa34ec4479c03cdc2e81736de01b7183f8d7bcf11c88d8054600160ff1991821681179092557f1a1290510adaef18de206022737ee027d84d8e17de223723a2a40f32d3db414c80548216831790557fce0dbbb5a86294f6004c65d4e6b2b794f8b254befd266652c332375c8cb2910380548216831790557fbb0312711d4704af31a7869faede8ebc6958632b9c5e93bc4b0abf3f669199fd805482168317905573ad9ffffd4573b642959d3b854027735579555cbc6000527fa3de7abf498e9d2785d2f826ed3a437783dbfa735c1cad24bc3892756418d8b48054909116909117905542601d556a108b2a2c280290940000006006554360218190556022556200043a565b3390565b600580546001600160a01b038381166001600160a01b0319831681179093556040519116919082907f8be0079c531659141344cd1fd0a4f28419497f9722a3daafe3b4186f6b6457e090600090a35050565b8280546200030d90620003fd565b90600052602060002090601f0160209004810192826200033157600085556200037c565b82601f106200034c57805160ff19168380011785556200037c565b828001600101855582156200037c579182015b828111156200037c5782518255916020019190600101906200035f565b506200038a929150620003e6565b5090565b8280548282559060005260206000209081019282156200037c579160200282015b828111156200037c57825182546001600160a01b0319166001600160a01b03909116178255602090920191600190910190620003af565b5b808211156200038a5760008155600101620003e7565b600181811c908216806200041257607f821691505b602082108114156200043457634e487b7160e01b600052602260045260246000fd5b50919050565b613c7f806200044a6000396000f3fe6080604052600436106103cd5760003560e01c80636c525d04116101fb578063a457c2d711610117578063d7cfd5eb116100a5578063e4296ba511610077578063e4296ba514610b91578063e6fd48bc14610bb1578063e9ac77e914610bc7578063ea67791514610bdd578063f2fde38b14610bf257005b8063d7cfd5eb14610b00578063d881f6c214610b16578063dd62ed3e14610b36578063e19a1eb614610b7c57005b8063ab16aa99116100e9578063ab16aa9914610a76578063bcf29aeb14610a96578063befa515814610aab578063c03cd5a514610acb578063ce05c4ca14610ae057005b8063a457c2d7146109f6578063a5dd468614610a16578063a5fb2c2714610a36578063a9059cbb14610a5657005b80638827e09b116101945780638da5cb5b116101665780638da5cb5b1461096d57806395d89b411461098b578063979d20ac146109a0578063997ccf93146109c0578063a22d4832146109d657005b80638827e09b146108ef57806389258dc51461090f5780638cd09d501461092f5780638d5f81e21461094f57005b806379f99bfa116101cd57806379f99bfa146108805780637d0b4d60146108a05780637df9e3e6146108ba5780638543e05b146108da57005b80636c525d04146108005780636cb6f3271461081557806370a0823114610835578063715018a61461086b57005b806339509351116102ea5780634b3a4d2b116102835780635ded328d116102555780635ded328d1461076b5780635e3cc7de1461078b5780636222027a146107a05780636505ac89146107c0578063667f6526146107e057005b80634b3a4d2b146106f55780634c590f7c14610715578063517408f614610735578063548ccd5f1461075557005b806342966c68116102bc57806342966c681461067f5780634467472a1461069f578063476c3ad8146106b55780634aaf220c146106d557005b8063395093511461060a5780633f9e1c611461062a57806340c10f191461063f57806341cb87fc1461065f57005b806317d157c81161036757806320a730bc1161033957806320a730bc1461056957806323b872dd14610599578063279ef731146105b95780632b34be56146105d9578063313ce567146105ee57005b806317d157c8146104f457806318160ddd1461051e5780631a90d253146105335780631ed6dcfd1461055357005b806304e4cf03116103a057806304e4cf031461047657806306fdde031461048c578063095ea7b3146104ae578063142ede28146104de57005b8062cf24b9146103d657806301b40779146103fe578063040141e51461041e57806304ba804f1461045657005b366103d457005b005b3480156103e257600080fd5b506103eb610c12565b6040519081526020015b60405180910390f35b34801561040a57600080fd5b506103d4610419366004613663565b610c2f565b34801561042a57600080fd5b5060095461043e906001600160a01b031681565b6040516001600160a01b0390911681526020016103f5565b34801561046257600080fd5b50600a5461043e906001600160a01b031681565b34801561048257600080fd5b506103eb60065481565b34801561049857600080fd5b506104a1610c98565b6040516103f5919061367c565b3480156104ba57600080fd5b506104ce6104c93660046136ed565b610d2a565b60405190151581526020016103f5565b3480156104ea57600080fd5b506103eb601b5481565b34801561050057600080fd5b50610509610d40565b604080519283526020830191909152016103f5565b34801561052a57600080fd5b506002546103eb565b34801561053f57600080fd5b5060105461043e906001600160a01b031681565b34801561055f57600080fd5b506103eb60215481565b34801561057557600080fd5b5061057e610e7d565b604080519384526020840192909252908201526060016103f5565b3480156105a557600080fd5b506104ce6105b4366004613717565b610f2e565b3480156105c557600080fd5b506103d46105d4366004613663565b610fd8565b3480156105e557600080fd5b50610509611044565b3480156105fa57600080fd5b50604051601281526020016103f5565b34801561061657600080fd5b506104ce6106253660046136ed565b611160565b34801561063657600080fd5b506103eb61119c565b34801561064b57600080fd5b506103d461065a3660046136ed565b6111ae565b34801561066b57600080fd5b506103d461067a366004613753565b611216565b34801561068b57600080fd5b506103d461069a366004613663565b6112a6565b3480156106ab57600080fd5b506103eb60175481565b3480156106c157600080fd5b50600b5461043e906001600160a01b031681565b3480156106e157600080fd5b506103d46106f0366004613663565b6112b3565b34801561070157600080fd5b506103d4610710366004613663565b611320565b34801561072157600080fd5b5060085461043e906001600160a01b031681565b34801561074157600080fd5b506103d4610750366004613753565b611432565b34801561076157600080fd5b506103eb601c5481565b34801561077757600080fd5b506103d4610786366004613775565b6114a4565b34801561079757600080fd5b506103eb611515565b3480156107ac57600080fd5b506103d46107bb366004613753565b611631565b3480156107cc57600080fd5b506103d46107db366004613753565b6116a3565b3480156107ec57600080fd5b506103d46107fb3660046137a8565b611715565b34801561080c57600080fd5b506103d4611775565b34801561082157600080fd5b5060125461043e906001600160a01b031681565b34801561084157600080fd5b506103eb610850366004613753565b6001600160a01b031660009081526020819052604090205490565b34801561087757600080fd5b506103d46117ae565b34801561088c57600080fd5b506103d461089b366004613663565b6117e4565b3480156108ac57600080fd5b506026546104ce9060ff1681565b3480156108c657600080fd5b506103d46108d5366004613663565b611813565b3480156108e657600080fd5b506103eb611872565b3480156108fb57600080fd5b506103d461090a366004613663565b611884565b34801561091b57600080fd5b506103d461092a366004613753565b61194c565b34801561093b57600080fd5b506103d461094a366004613663565b611b05565b34801561095b57600080fd5b50600f546001600160a01b031661043e565b34801561097957600080fd5b506005546001600160a01b031661043e565b34801561099757600080fd5b506104a1611b64565b3480156109ac57600080fd5b506103d46109bb366004613753565b611b73565b3480156109cc57600080fd5b506103eb601a5481565b3480156109e257600080fd5b506103d46109f1366004613753565b611be5565b348015610a0257600080fd5b506104ce610a113660046136ed565b611cb7565b348015610a2257600080fd5b506103d4610a31366004613753565b611d50565b348015610a4257600080fd5b506103d4610a51366004613816565b611dc2565b348015610a6257600080fd5b506104ce610a713660046136ed565b611f85565b348015610a8257600080fd5b5060075461043e906001600160a01b031681565b348015610aa257600080fd5b50610509611f92565b348015610ab757600080fd5b5060115461043e906001600160a01b031681565b348015610ad757600080fd5b506103d4612092565b348015610aec57600080fd5b506103d4610afb366004613816565b6122a2565b348015610b0c57600080fd5b506103eb60185481565b348015610b2257600080fd5b50600f5461043e906001600160a01b031681565b348015610b4257600080fd5b506103eb610b51366004613775565b6001600160a01b03918216600090815260016020908152604080832093909416825291909152205490565b348015610b8857600080fd5b506103d4612479565b348015610b9d57600080fd5b50600c5461043e906001600160a01b031681565b348015610bbd57600080fd5b506103eb601d5481565b348015610bd357600080fd5b506103eb60225481565b348015610be957600080fd5b50610509612670565b348015610bfe57600080fd5b506103d4610c0d366004613753565b612705565b6000670de0b6b3a7640000600654610c2a9190613898565b905090565b6005546001600160a01b03163314610c625760405162461bcd60e51b8152600401610c59906138ba565b60405180910390fd5b6138408110158015610c775750620151808111155b610c935760405162461bcd60e51b8152600401610c59906138ef565b601f55565b606060038054610ca790613913565b80601f0160208091040260200160405190810160405280929190818152602001828054610cd390613913565b8015610d205780601f10610cf557610100808354040283529160200191610d20565b820191906000526020600020905b815481529060010190602001808311610d0357829003601f168201915b5050505050905090565b6000610d3733848461279d565b50600192915050565b6013546040516307c0329d60e21b815260009182916001600160a01b0390911690631f00ca7490610d80906702c68af0bb14000090600d90600401613997565b600060405180830381865afa158015610d9d573d6000803e3d6000fd5b505050506040513d6000823e601f3d908101601f19168201604052610dc591908101906139ce565b600181518110610dd757610dd7613a8c565b60209081029190910101516013546017546040516307c0329d60e21b81526001600160a01b0390921691631f00ca7491610e1691600d90600401613997565b600060405180830381865afa158015610e33573d6000803e3d6000fd5b505050506040513d6000823e601f3d908101601f19168201604052610e5b91908101906139ce565b600181518110610e6d57610e6d613a8c565b6020026020010151915091509091565b600080600080612710306001600160a01b03166318160ddd6040518163ffffffff1660e01b8152600401602060405180830381865afa158015610ec4573d6000803e3d6000fd5b505050506040513d601f19601f82011682018060405250810190610ee89190613aa2565b610ef490610bb8613abb565b610efe9190613898565b6006541090508015610f1d575050601554601654909390925060009150565b5060c8936000935061019092509050565b6000610f3b8484846128c1565b6001600160a01b038416600090815260016020908152604080832033845290915290205482811015610fc05760405162461bcd60e51b815260206004820152602860248201527f45524332303a207472616e7366657220616d6f756e74206578636565647320616044820152676c6c6f77616e636560c01b6064820152608401610c59565b610fcd853385840361279d565b506001949350505050565b6005546001600160a01b031633146110025760405162461bcd60e51b8152600401610c59906138ba565b670de0b6b3a76400008110158015611023575068056bc75e2d631000008111155b61103f5760405162461bcd60e51b8152600401610c59906138ef565b601755565b6000806000600b60009054906101000a90046001600160a01b03166001600160a01b03166370dcc45d6040518163ffffffff1660e01b8152600401602060405180830381865afa15801561109c573d6000803e3d6000fd5b505050506040513d601f19601f820116820180604052508101906110c09190613aa2565b60135460405163d06ca61f60e01b815291925082916001600160a01b039091169063d06ca61f906110f8908490600d90600401613997565b600060405180830381865afa158015611115573d6000803e3d6000fd5b505050506040513d6000823e601f3d908101601f1916820160405261113d91908101906139ce565b60018151811061114f5761114f613a8c565b602002602001015192509250509091565b3360008181526001602090815260408083206001600160a01b03871684529091528120549091610d37918590611197908690613ada565b61279d565b6000602054602254610c2a9190613ada565b600a546001600160a01b031633146112085760405162461bcd60e51b815260206004820152601c60248201527f4f6e6c7920746865205a657070656c696e2063616e206d696e742021000000006044820152606401610c59565b6112128282613000565b5050565b6005546001600160a01b031633146112405760405162461bcd60e51b8152600401610c59906138ba565b6001600160a01b0381166112845760405162461bcd60e51b815260206004820152600b60248201526a5a65726f2041647265737360a81b6044820152606401610c59565b601280546001600160a01b0319166001600160a01b0392909216919091179055565b6112b03382613079565b50565b6005546001600160a01b031633146112dd5760405162461bcd60e51b8152600401610c59906138ba565b678ac7230489e8000081101580156112ff5750690a968163f0a57b4000008111155b61131b5760405162461bcd60e51b8152600401610c59906138ef565b601955565b60265460ff16156113435760405162461bcd60e51b8152600401610c5990613af2565b6010546001600160a01b0316331461138d5760405162461bcd60e51b815260206004820152600d60248201526c4f6e6c7920506f7274616c202160981b6044820152606401610c59565b6113973382613000565b6113a36103e843613ada565b602455600b546113c7906001600160a01b03166a01a784379d99db42000000613000565b600b60009054906101000a90046001600160a01b03166001600160a01b0316632bd6f7b16040518163ffffffff1660e01b8152600401600060405180830381600087803b15801561141757600080fd5b505af115801561142b573d6000803e3d6000fd5b5050505050565b6005546001600160a01b0316331461145c5760405162461bcd60e51b8152600401610c59906138ba565b6001600160a01b0381166114825760405162461bcd60e51b8152600401610c5990613b21565b601080546001600160a01b0319166001600160a01b0392909216919091179055565b6005546001600160a01b031633146114ce5760405162461bcd60e51b8152600401610c59906138ba565b600780546001600160a01b039384166001600160a01b0319918216811790925560088054939094169281168317909355601380548416909117905560148054909216179055565b600080600b60009054906101000a90046001600160a01b03166001600160a01b031663f5677af36040518163ffffffff1660e01b8152600401602060405180830381865afa15801561156b573d6000803e3d6000fd5b505050506040513d601f19601f8201168201806040525081019061158f9190613aa2565b6013546040516307c0329d60e21b81529192506000916001600160a01b0390911690631f00ca74906115c8908590600e90600401613997565b600060405180830381865afa1580156115e5573d6000803e3d6000fd5b505050506040513d6000823e601f3d908101601f1916820160405261160d91908101906139ce565b60018151811061161f5761161f613a8c565b60200260200101519050809250505090565b6005546001600160a01b0316331461165b5760405162461bcd60e51b8152600401610c59906138ba565b6001600160a01b0381166116815760405162461bcd60e51b8152600401610c5990613b21565b600a80546001600160a01b0319166001600160a01b0392909216919091179055565b6005546001600160a01b031633146116cd5760405162461bcd60e51b8152600401610c59906138ba565b6001600160a01b0381166116f35760405162461bcd60e51b8152600401610c5990613b21565b601180546001600160a01b0319166001600160a01b0392909216919091179055565b6005546001600160a01b0316331461173f5760405162461bcd60e51b8152600401610c59906138ba565b6102bc61174c8284613ada565b111561176a5760405162461bcd60e51b8152600401610c59906138ef565b601591909155601655565b6005546001600160a01b0316331461179f5760405162461bcd60e51b8152600401610c59906138ba565b6026805460ff19166001179055565b6005546001600160a01b031633146117d85760405162461bcd60e51b8152600401610c59906138ba565b6117e260006131c7565b565b6005546001600160a01b0316331461180e5760405162461bcd60e51b8152600401610c59906138ba565b602355565b6005546001600160a01b0316331461183d5760405162461bcd60e51b8152600401610c59906138ba565b610258811015801561185157506112c08111155b61186d5760405162461bcd60e51b8152600401610c59906138ef565b602055565b6000601f54602154610c2a9190613ada565b600a546001600160a01b03163314806118a75750600b546001600160a01b031633145b806118bc57506011546001600160a01b031633145b6118f95760405162461bcd60e51b815260206004820152600e60248201526d556e617574686f72697a6564202160901b6044820152606401610c59565b806006600082825461190b9190613ada565b909155505060408051338152602081018390527f5741979df5f3e491501da74d3b0a83dd2496ab1f34929865b3e190a8ad75859a910160405180910390a150565b6012546001600160a01b031633146119765760405162461bcd60e51b8152600401610c5990613b47565b6025546001146119985760405162461bcd60e51b8152600401610c5990613b74565b600060258190556040805163bcf29aeb60e01b81528151309263bcf29aeb92600480820193918290030181865afa1580156119d7573d6000803e3d6000fd5b505050506040513d601f19601f820116820180604052508101906119fb9190613ba3565b506040516370a0823160e01b81526001600160a01b0384166004820152909150819030906370a0823190602401602060405180830381865afa158015611a45573d6000803e3d6000fd5b505050506040513d601f19601f82011682018060405250810190611a699190613aa2565b10158015611ae05750600a546040516330ae91d160e21b81526001600160a01b0384811660048301529091169063c2ba474490602401602060405180830381865afa158015611abc573d6000803e3d6000fd5b505050506040513d601f19601f82011682018060405250810190611ae09190613bc7565b8015611aed57503a602354145b15611afc57611afc8282613219565b50506001602555565b6005546001600160a01b03163314611b2f5760405162461bcd60e51b8152600401610c59906138ba565b61012c8110158015611b4357506103e88111155b611b5f5760405162461bcd60e51b8152600401610c59906138ef565b601c55565b606060048054610ca790613913565b6005546001600160a01b03163314611b9d5760405162461bcd60e51b8152600401610c59906138ba565b6001600160a01b038116611bc35760405162461bcd60e51b8152600401610c5990613b21565b600b80546001600160a01b0319166001600160a01b0392909216919091179055565b6005546001600160a01b0316331480611c085750600a546001600160a01b031633145b80611c1d5750600b546001600160a01b031633145b80611c3257506010546001600160a01b031633145b611c6f5760405162461bcd60e51b815260206004820152600e60248201526d556e617574686f72697a6564202160901b6044820152606401610c59565b6001600160a01b038116611c955760405162461bcd60e51b8152600401610c5990613b21565b600f80546001600160a01b0319166001600160a01b0392909216919091179055565b3360009081526001602090815260408083206001600160a01b038616845290915281205482811015611d395760405162461bcd60e51b815260206004820152602560248201527f45524332303a2064656372656173656420616c6c6f77616e63652062656c6f77604482015264207a65726f60d81b6064820152608401610c59565b611d46338585840361279d565b5060019392505050565b6005546001600160a01b03163314611d7a5760405162461bcd60e51b8152600401610c59906138ba565b6001600160a01b038116611da05760405162461bcd60e51b8152600401610c5990613b21565b600c80546001600160a01b0319166001600160a01b0392909216919091179055565b6005546001600160a01b03163314611dec5760405162461bcd60e51b8152600401610c59906138ba565b60265460ff1615611e0f5760405162461bcd60e51b8152600401610c5990613af2565b828114611e515760405162461bcd60e51b815260206004820152601060248201526f098cadccee8d0409ad2e6e6dac2e8c6d60831b6044820152606401610c59565b60005b8381101561142b57611eb0858583818110611e7157611e71613a8c565b9050602002016020810190611e869190613753565b600a546001600160a01b0316858585818110611ea457611ea4613a8c565b905060200201356132ad565b600a546001600160a01b0316630ecaea73868684818110611ed357611ed3613a8c565b9050602002016020810190611ee89190613753565b858585818110611efa57611efa613a8c565b6040516001600160e01b031960e087901b1681526001600160a01b03909416600485015260200291909101356024830152506044016020604051808303816000875af1158015611f4e573d6000803e3d6000fd5b505050506040513d601f19601f82011682018060405250810190611f729190613aa2565b5080611f7d81613be9565b915050611e54565b6000610d373384846128c1565b600080600060175490506a084595161401484a00000060065410611ff5576000601b54601a546a084595161401484a000000600654611fd19190613c04565b611fdb9190613abb565b611fe59190613898565b9050611ff18183613ada565b9150505b60135460405163d06ca61f60e01b81526001600160a01b039091169063d06ca61f90612028908490600d90600401613997565b600060405180830381865afa158015612045573d6000803e3d6000fd5b505050506040513d6000823e601f3d908101601f1916820160405261206d91908101906139ce565b60018151811061207f5761207f613a8c565b6020908102919091010151939092509050565b6012546001600160a01b031633146120bc5760405162461bcd60e51b8152600401610c5990613b47565b6025546001146120de5760405162461bcd60e51b8152600401610c5990613b74565b6000602555601f5460215443916120f491613ada565b106121325760405162461bcd60e51b815260206004820152600e60248201526d4e6f742074696d6520796574202160901b6044820152606401610c59565b6000306001600160a01b031663ea6779156040518163ffffffff1660e01b81526004016040805180830381865afa158015612171573d6000803e3d6000fd5b505050506040513d601f19601f820116820180604052508101906121959190613ba3565b5090506000612710826006546121ab9190613abb565b6121b59190613898565b905080600660008282546121c99190613c04565b909155505043602155600a54604051636bbc346d60e11b8152600481018390526001600160a01b039091169063d77868da90602401600060405180830381600087803b15801561221857600080fd5b505af115801561222c573d6000803e3d6000fd5b5050600a5461224792506001600160a01b0316905082613000565b61225f33601954601861225a9190613abb565b613000565b60408051828152602081018490527f3cfc7a902cecb43a3384ce2e93cd8eb68390010810a64851e24c97f0f901c61891015b60405180910390a150506001602555565b6005546001600160a01b031633146122cc5760405162461bcd60e51b8152600401610c59906138ba565b60265460ff16156122ef5760405162461bcd60e51b8152600401610c5990613af2565b8281146123305760405162461bcd60e51b815260206004820152600f60248201526e098cadccee8d0409ad2e6dac2e8c6d608b1b6044820152606401610c59565b60005b8381101561142b5784848281811061234d5761234d613a8c565b90506020020160208101906123629190613753565b6001600160a01b031673999999cf1046e68e36e1aa2e0e07105eddd1f08e6001600160a01b0316146124675760008585838181106123a2576123a2613a8c565b90506020020160208101906123b79190613753565b6001600160a01b03161415801561241a57508484828181106123db576123db613a8c565b90506020020160208101906123f09190613753565b6001600160a01b031673c0ffee254729296a45a3885639ac7e10f9d549796001600160a01b031614155b156124675761246785858381811061243457612434613a8c565b90506020020160208101906124499190613753565b84848481811061245b5761245b613a8c565b9050602002013561347d565b8061247181613be9565b915050612333565b6012546001600160a01b031633146124a35760405162461bcd60e51b8152600401610c5990613b47565b6025546001146124c55760405162461bcd60e51b8152600401610c5990613b74565b600060255560205460225443916124db91613ada565b106125195760405162461bcd60e51b815260206004820152600e60248201526d4e6f742074696d6520796574202160901b6044820152606401610c59565b6000306001600160a01b031663ea6779156040518163ffffffff1660e01b81526004016040805180830381865afa158015612558573d6000803e3d6000fd5b505050506040513d601f19601f8201168201806040525081019061257c9190613ba3565b9150506000612710826006546125929190613abb565b61259c9190613898565b905080600660008282546125b09190613c04565b909155505043602255600b54604051636bbc346d60e11b8152600481018390526001600160a01b039091169063d77868da90602401600060405180830381600087803b1580156125ff57600080fd5b505af1158015612613573d6000803e3d6000fd5b5050600b5461262e92506001600160a01b0316905082613000565b61263a33601954613000565b60408051828152602081018490527fa684085ee5e2b3dfb54e757919651e91a4a1c0ca4385fedecf134b492facfcd29101612291565b60008042601d54620d2f006126859190613ada565b1115612695575060509160039150565b42601d54621a5e006126a79190613ada565b10156126b75750605a9160049150565b42601d546234bc006126c99190613ada565b10156126d9575060649160059150565b42601d54624f1a006126eb9190613ada565b10156126fb5750606e9160069150565b5060789160079150565b6005546001600160a01b0316331461272f5760405162461bcd60e51b8152600401610c59906138ba565b6001600160a01b0381166127945760405162461bcd60e51b815260206004820152602660248201527f4f776e61626c653a206e6577206f776e657220697320746865207a65726f206160448201526564647265737360d01b6064820152608401610c59565b6112b0816131c7565b6001600160a01b0383166127ff5760405162461bcd60e51b8152602060048201526024808201527f45524332303a20617070726f76652066726f6d20746865207a65726f206164646044820152637265737360e01b6064820152608401610c59565b6001600160a01b0382166128605760405162461bcd60e51b815260206004820152602260248201527f45524332303a20617070726f766520746f20746865207a65726f206164647265604482015261737360f01b6064820152608401610c59565b6001600160a01b0383811660008181526001602090815260408083209487168084529482529182902085905590518481527f8c5be1e5ebec7d5bd14f71427d1e84f3dd0314c0f7b2291e5b200ac8c7c3b925910160405180910390a3505050565b61271081116129125760405162461bcd60e51b815260206004820152601760248201527f4572726f723a2053656e64204d6f726520546f6b656e730000000000000000006044820152606401610c59565b6001600160a01b0383163014806129365750600a546001600160a01b038381169116145b8061294e5750600a546001600160a01b038481169116145b806129665750600b546001600160a01b038381169116145b8061297e5750600b546001600160a01b038481169116145b8061299657506010546001600160a01b038481169116145b806129ae57506011546001600160a01b038481169116145b806129c657506012546001600160a01b038381169116145b806129de57506011546001600160a01b038381169116145b80612a0157506001600160a01b0383166000908152601e602052604090205460ff165b80612a2457506001600160a01b0382166000908152601e602052604090205460ff165b15612a3957612a348383836132ad565b505050565b600f546001600160a01b038481169116148015612a6357506013546001600160a01b038381169116145b80612a7b57506007546001600160a01b038481169116145b15612a8b57612a348383836132ad565b602454431015612b8f5760135460405163d06ca61f60e01b81526001600160a01b039091169063d06ca61f90612ad090670de0b6b3a764000090600d90600401613997565b600060405180830381865afa158015612aed573d6000803e3d6000fd5b505050506040513d6000823e601f3d908101601f19168201604052612b1591908101906139ce565b600181518110612b2757612b27613a8c565b6020026020010151811115612b8f5760405162461bcd60e51b815260206004820152602860248201527f4d6178205472616e73616374696f6e20416d6f756e7420526561636865643a20604482015267547279206c65737360c01b6064820152608401610c59565b600f546001600160a01b0383811691161415612c3e576000612710601c5483612bb89190613abb565b612bc29190613898565b90508015612be257601154612be29085906001600160a01b0316836132ad565b612bf68484612bf18486613c04565b6132ad565b604080516001600160a01b0386168152602081018490527fae92ab4b6f8f401ead768d3273e6bb937a13e39827d19c6376e8fd4512a05d9a910160405180910390a150505050565b6000806000306001600160a01b03166320a730bc6040518163ffffffff1660e01b8152600401606060405180830381865afa158015612c81573d6000803e3d6000fd5b505050506040513d601f19601f82011682018060405250810190612ca59190613c1b565b919450925090506000612710612cbb8587613abb565b612cc59190613898565b905060008215612ce957612710612cdc8488613abb565b612ce69190613898565b90505b612cfc88612cf78484613ada565b613079565b60008415612d3657612710612d118689613abb565b612d1b9190613898565b601154909150612d36908a906001600160a01b0316836132ad565b600081612d438585613ada565b612d4d9190613ada565b612d579089613c04565b90508360066000828254612d6b9190613ada565b90915550612d7c90508a8a836132ad565b600f546001600160a01b038b811691161415612ff4576013546040516307c0329d60e21b81526000916001600160a01b031690631f00ca7490612dc6908c90600d90600401613997565b600060405180830381865afa158015612de3573d6000803e3d6000fd5b505050506040513d6000823e601f3d908101601f19168201604052612e0b91908101906139ce565b600081518110612e1d57612e1d613a8c565b6020908102919091010151600b546040516370a0823160e01b81526001600160a01b038d81166004830152929350600092909116906370a0823190602401602060405180830381865afa158015612e78573d6000803e3d6000fd5b505050506040513d601f19601f82011682018060405250810190612e9c9190613aa2565b1115612f1057600b54604051631219778b60e01b81526001600160a01b038c81166004830152602482018490526044820185905290911690631219778b90606401600060405180830381600087803b158015612ef757600080fd5b505af1158015612f0b573d6000803e3d6000fd5b505050505b604080516001600160a01b038d168152602081018490529081018290527f1cbc5ab135991bd2b6a4b034a04aa2aa086dac1371cb9b16b8b5e2ed6b036bed9060600160405180910390a16018548110158015612fd55750600b546040516330ae91d160e21b81526001600160a01b038c811660048301529091169063c2ba474490602401602060405180830381865afa158015612fb1573d6000803e3d6000fd5b505050506040513d601f19601f82011682018060405250810190612fd59190613bc7565b8015612fe257503a602354145b15612ff257612ff28a828461355c565b505b50505050505050505050565b6010546001600160a01b0383811691161461306f576a0422ca8b0a00a425000000811061306f5760405162461bcd60e51b815260206004820152601c60248201527f43616e2774206d696e742074686174206d75636820646567656e2021000000006044820152606401610c59565b611212828261347d565b6001600160a01b0382166130d95760405162461bcd60e51b815260206004820152602160248201527f45524332303a206275726e2066726f6d20746865207a65726f206164647265736044820152607360f81b6064820152608401610c59565b6001600160a01b0382166000908152602081905260409020548181101561314d5760405162461bcd60e51b815260206004820152602260248201527f45524332303a206275726e20616d6f756e7420657863656564732062616c616e604482015261636560f01b6064820152608401610c59565b6001600160a01b038316600090815260208190526040812083830390556002805484929061317c908490613c04565b90915550506040518281526000906001600160a01b038516907fddf252ad1be2c89b69c2b068fc378daa952ba7f163c4a11628f55a4df523b3ef9060200160405180910390a3505050565b600580546001600160a01b038381166001600160a01b0319831681179093556040519116919082907f8be0079c531659141344cd1fd0a4f28419497f9722a3daafe3b4186f6b6457e090600090a35050565b600a54604051630ecaea7360e01b81526001600160a01b038481166004830152602482018490526000921690630ecaea73906044016020604051808303816000875af115801561326d573d6000803e3d6000fd5b505050506040513d601f19601f820116820180604052508101906132919190613aa2565b90508015612a3457600a54612a349084906001600160a01b0316845b6001600160a01b0383166133115760405162461bcd60e51b815260206004820152602560248201527f45524332303a207472616e736665722066726f6d20746865207a65726f206164604482015264647265737360d81b6064820152608401610c59565b6001600160a01b0382166133735760405162461bcd60e51b815260206004820152602360248201527f45524332303a207472616e7366657220746f20746865207a65726f206164647260448201526265737360e81b6064820152608401610c59565b6001600160a01b038316600090815260208190526040902054818110156133eb5760405162461bcd60e51b815260206004820152602660248201527f45524332303a207472616e7366657220616d6f756e7420657863656564732062604482015265616c616e636560d01b6064820152608401610c59565b6001600160a01b03808516600090815260208190526040808220858503905591851681529081208054849290613422908490613ada565b92505081905550826001600160a01b0316846001600160a01b03167fddf252ad1be2c89b69c2b068fc378daa952ba7f163c4a11628f55a4df523b3ef8460405161346e91815260200190565b60405180910390a35b50505050565b6001600160a01b0382166134d35760405162461bcd60e51b815260206004820152601f60248201527f45524332303a206d696e7420746f20746865207a65726f2061646472657373006044820152606401610c59565b80600260008282546134e59190613ada565b90915550506001600160a01b03821660009081526020819052604081208054839290613512908490613ada565b90915550506040518181526001600160a01b038316906000907fddf252ad1be2c89b69c2b068fc378daa952ba7f163c4a11628f55a4df523b3ef9060200160405180910390a35050565b600b54604080516370dcc45d60e01b815290516000926001600160a01b0316916370dcc45d9160048083019260209291908290030181865afa1580156135a6573d6000803e3d6000fd5b505050506040513d601f19601f820116820180604052508101906135ca9190613aa2565b905080831061347757600b546040516305165da360e41b81526001600160a01b03868116600483015260248201869052604482018590526000921690635165da30906064016020604051808303816000875af115801561362e573d6000803e3d6000fd5b505050506040513d601f19601f820116820180604052508101906136529190613aa2565b9050801561142b5750601855505050565b60006020828403121561367557600080fd5b5035919050565b600060208083528351808285015260005b818110156136a95785810183015185820160400152820161368d565b818111156136bb576000604083870101525b50601f01601f1916929092016040019392505050565b80356001600160a01b03811681146136e857600080fd5b919050565b6000806040838503121561370057600080fd5b613709836136d1565b946020939093013593505050565b60008060006060848603121561372c57600080fd5b613735846136d1565b9250613743602085016136d1565b9150604084013590509250925092565b60006020828403121561376557600080fd5b61376e826136d1565b9392505050565b6000806040838503121561378857600080fd5b613791836136d1565b915061379f602084016136d1565b90509250929050565b600080604083850312156137bb57600080fd5b50508035926020909101359150565b60008083601f8401126137dc57600080fd5b50813567ffffffffffffffff8111156137f457600080fd5b6020830191508360208260051b850101111561380f57600080fd5b9250929050565b6000806000806040858703121561382c57600080fd5b843567ffffffffffffffff8082111561384457600080fd5b613850888389016137ca565b9096509450602087013591508082111561386957600080fd5b50613876878288016137ca565b95989497509550505050565b634e487b7160e01b600052601160045260246000fd5b6000826138b557634e487b7160e01b600052601260045260246000fd5b500490565b6020808252818101527f4f776e61626c653a2063616c6c6572206973206e6f7420746865206f776e6572604082015260600190565b6020808252600a9082015269486172644c696d69747360b01b604082015260600190565b600181811c9082168061392757607f821691505b6020821081141561394857634e487b7160e01b600052602260045260246000fd5b50919050565b6000815480845260208085019450836000528060002060005b8381101561398c5781546001600160a01b031687529582019560019182019101613967565b509495945050505050565b8281526040602082015260006139b0604083018461394e565b949350505050565b634e487b7160e01b600052604160045260246000fd5b600060208083850312156139e157600080fd5b825167ffffffffffffffff808211156139f957600080fd5b818501915085601f830112613a0d57600080fd5b815181811115613a1f57613a1f6139b8565b8060051b604051601f19603f83011681018181108582111715613a4457613a446139b8565b604052918252848201925083810185019188831115613a6257600080fd5b938501935b82851015613a8057845184529385019392850192613a67565b98975050505050505050565b634e487b7160e01b600052603260045260246000fd5b600060208284031215613ab457600080fd5b5051919050565b6000816000190483118215151615613ad557613ad5613882565b500290565b60008219821115613aed57613aed613882565b500190565b6020808252601590820152744d6967726174696f6e2068617320656e646564202160581b604082015260600190565b6020808252600c908201526b5a65726f206164647265737360a01b604082015260600190565b6020808252601390820152722737ba102d32b83832b634b7102937baba32b960691b604082015260600190565b60208082526015908201527411549493d48e88105b9d1a4b5499595b9d1c985b9d605a1b604082015260600190565b60008060408385031215613bb657600080fd5b505080516020909101519092909150565b600060208284031215613bd957600080fd5b8151801515811461376e57600080fd5b6000600019821415613bfd57613bfd613882565b5060010190565b600082821015613c1657613c16613882565b500390565b600080600060608486031215613c3057600080fd5b835192506020840151915060408401519050925092509256fea2646970667358221220c6288cb406e0e4f09d168f8a39d077443d9b5e21e64a11ec7b950507212fa04764736f6c634300080a0033",
  "linkReferences": {},
  "deployedLinkReferences": {}
}