{
  "_format": "hh-sol-artifact-1",
  "contractName": "FirewallFactory",
  "sourceName": "contracts/FirewallFactory.sol",
  "abi": [
    {
      "anonymous": false,
      "inputs": [
        {
          "indexed": false,
          "internalType": "address",
          "name": "addr",
          "type": "address"
        }
      ],
      "name": "Deployed",
      "type": "event"
    },
    {
      "anonymous": false,
      "inputs": [
        {
          "indexed": false,
          "internalType": "bytes",
          "name": "code",
          "type": "bytes"
        }
      ],
      "name": "NotWhitelisted",
      "type": "event"
    },
    {
      "anonymous": false,
      "inputs": [
        {
          "indexed": true,
          "internalType": "address",
          "name": "previousOwner",
          "type": "address"
        },
        {
          "indexed": true,
          "internalType": "address",
          "name": "newOwner",
          "type": "address"
        }
      ],
      "name": "OwnershipTransferred",
      "type": "event"
    },
    {
      "anonymous": false,
      "inputs": [
        {
          "indexed": false,
          "internalType": "bytes",
          "name": "_code",
          "type": "bytes"
        },
        {
          "indexed": false,
          "internalType": "bool",
          "name": "_value",
          "type": "bool"
        }
      ],
      "name": "WhitelistUpdated",
      "type": "event"
    },
    {
      "stateMutability": "payable",
      "type": "fallback"
    },
    {
      "inputs": [
        {
          "internalType": "bytes",
          "name": "_code",
          "type": "bytes"
        }
      ],
      "name": "deploy",
      "outputs": [
        {
          "internalType": "address",
          "name": "addr",
          "type": "address"
        }
      ],
      "stateMutability": "nonpayable",
      "type": "function"
    },
    {
      "inputs": [
        {
          "internalType": "bytes",
          "name": "_code",
          "type": "bytes"
        },
        {
          "internalType": "uint256",
          "name": "_salt",
          "type": "uint256"
        }
      ],
      "name": "deploy2",
      "outputs": [
        {
          "internalType": "address",
          "name": "addr",
          "type": "address"
        }
      ],
      "stateMutability": "nonpayable",
      "type": "function"
    },
    {
      "inputs": [],
      "name": "owner",
      "outputs": [
        {
          "internalType": "address",
          "name": "",
          "type": "address"
        }
      ],
      "stateMutability": "view",
      "type": "function"
    },
    {
      "inputs": [],
      "name": "renounceOwnership",
      "outputs": [],
      "stateMutability": "nonpayable",
      "type": "function"
    },
    {
      "inputs": [
        {
          "internalType": "address",
          "name": "newOwner",
          "type": "address"
        }
      ],
      "name": "transferOwnership",
      "outputs": [],
      "stateMutability": "nonpayable",
      "type": "function"
    },
    {
      "inputs": [
        {
          "internalType": "bytes",
          "name": "_code",
          "type": "bytes"
        },
        {
          "internalType": "bool",
          "name": "_value",
          "type": "bool"
        }
      ],
      "name": "updateWhitelist",
      "outputs": [
        {
          "internalType": "bool",
          "name": "",
          "type": "bool"
        }
      ],
      "stateMutability": "nonpayable",
      "type": "function"
    },
    {
      "inputs": [
        {
          "internalType": "bytes",
          "name": "",
          "type": "bytes"
        }
      ],
      "name": "whitelist",
      "outputs": [
        {
          "internalType": "bool",
          "name": "",
          "type": "bool"
        }
      ],
      "stateMutability": "view",
      "type": "function"
    },
    {
      "stateMutability": "payable",
      "type": "receive"
    }
  ],
  "bytecode": "0x608060405234801561001057600080fd5b5061001a3361001f565b61006f565b600080546001600160a01b038381166001600160a01b0319831681178455604051919092169283917f8be0079c531659141344cd1fd0a4f28419497f9722a3daafe3b4186f6b6457e09190a35050565b6108c48061007e6000396000f3fe60806040526004361061006d5760003560e01c80638da5cb5b1161004b5780638da5cb5b14610113578063b162066a14610131578063b980a2b214610151578063f2fde38b1461017157005b806277436014610076578063715018a6146100b3578063749310d2146100c857005b3661007457005b005b34801561008257600080fd5b506100966100913660046106a1565b610191565b6040516001600160a01b0390911681526020015b60405180910390f35b3480156100bf57600080fd5b5061007461030c565b3480156100d457600080fd5b506101036100e33660046106a1565b805160208183018101805160018252928201919093012091525460ff1681565b60405190151581526020016100aa565b34801561011f57600080fd5b506000546001600160a01b0316610096565b34801561013d57600080fd5b5061010361014c3660046106de565b610342565b34801561015d57600080fd5b5061009661016c366004610735565b6103df565b34801561017d57600080fd5b5061007461018c36600461077a565b610513565b6000818051600014156101dc5760405162461bcd60e51b815260206004820152600e60248201526d4552524f523a206e6f20636f646560901b60448201526064015b60405180910390fd5b6001816040516101ec91906107da565b9081526040519081900360200190205460ff16610276577f96e4a5414fa13a388df692e3aa59e75756d1d616e785467d568a8cfae739b58b816040516102329190610822565b60405180910390a160405162461bcd60e51b81526020600482015260116024820152704e6f742057686974656c6973746564202160781b60448201526064016101d3565b8251602084016000f091506001600160a01b0382166102ca5760405162461bcd60e51b815260206004820152601060248201526f4661696c6564206f6e206465706c6f7960801b60448201526064016101d3565b6040516001600160a01b03831681527ff40fcec21964ffb566044d083b4073f29f7f7929110ea19e1b3ebe375d89055e9060200160405180910390a150919050565b6000546001600160a01b031633146103365760405162461bcd60e51b81526004016101d390610835565b61034060006105ae565b565b600080546001600160a01b0316331461036d5760405162461bcd60e51b81526004016101d390610835565b8160018460405161037e91906107da565b908152604051908190036020018120805492151560ff19909316929092179091557fd51380e4bdeee8e6ecabfd6ff459ff17fb09588bc080399e73be3a4736c83bae906103ce908590859061086a565b60405180910390a150600192915050565b6000828051600014156104255760405162461bcd60e51b815260206004820152600e60248201526d4552524f523a206e6f20636f646560901b60448201526064016101d3565b60018160405161043591906107da565b9081526040519081900360200190205460ff1661047b577f96e4a5414fa13a388df692e3aa59e75756d1d616e785467d568a8cfae739b58b816040516102329190610822565b828451602086016000f591506001600160a01b0382166104d05760405162461bcd60e51b815260206004820152601060248201526f4661696c6564206f6e206465706c6f7960801b60448201526064016101d3565b6040516001600160a01b03831681527ff40fcec21964ffb566044d083b4073f29f7f7929110ea19e1b3ebe375d89055e9060200160405180910390a15092915050565b6000546001600160a01b0316331461053d5760405162461bcd60e51b81526004016101d390610835565b6001600160a01b0381166105a25760405162461bcd60e51b815260206004820152602660248201527f4f776e61626c653a206e6577206f776e657220697320746865207a65726f206160448201526564647265737360d01b60648201526084016101d3565b6105ab816105ae565b50565b600080546001600160a01b038381166001600160a01b0319831681178455604051919092169283917f8be0079c531659141344cd1fd0a4f28419497f9722a3daafe3b4186f6b6457e09190a35050565b634e487b7160e01b600052604160045260246000fd5b600082601f83011261062557600080fd5b813567ffffffffffffffff80821115610640576106406105fe565b604051601f8301601f19908116603f01168101908282118183101715610668576106686105fe565b8160405283815286602085880101111561068157600080fd5b836020870160208301376000602085830101528094505050505092915050565b6000602082840312156106b357600080fd5b813567ffffffffffffffff8111156106ca57600080fd5b6106d684828501610614565b949350505050565b600080604083850312156106f157600080fd5b823567ffffffffffffffff81111561070857600080fd5b61071485828601610614565b9250506020830135801515811461072a57600080fd5b809150509250929050565b6000806040838503121561074857600080fd5b823567ffffffffffffffff81111561075f57600080fd5b61076b85828601610614565b95602094909401359450505050565b60006020828403121561078c57600080fd5b81356001600160a01b03811681146107a357600080fd5b9392505050565b60005b838110156107c55781810151838201526020016107ad565b838111156107d4576000848401525b50505050565b600082516107ec8184602087016107aa565b9190910192915050565b6000815180845261080e8160208601602086016107aa565b601f01601f19169290920160200192915050565b6020815260006107a360208301846107f6565b6020808252818101527f4f776e61626c653a2063616c6c6572206973206e6f7420746865206f776e6572604082015260600190565b60408152600061087d60408301856107f6565b90508215156020830152939250505056fea264697066735822122027d5e2be131616806dfbee65834849e75042baa67b341552d9db5de9e93ccb1664736f6c634300080a0033",
  "linkReferences": {},
  "deployedLinkReferences": {}
}