{
  "_format": "hh-sol-artifact-1",
  "contractName": "CollectibleNft",
  "sourceName": "contracts/RewardNFT.sol",
  "abi": [
    {
      "inputs": [
        {
          "internalType": "address",
          "name": "_royalAdd",
          "type": "address"
        },
        {
          "internalType": "address",
          "name": "_keeperAdd",
          "type": "address"
        }
      ],
      "stateMutability": "nonpayable",
      "type": "constructor"
    },
    {
      "anonymous": false,
      "inputs": [
        {
          "indexed": true,
          "internalType": "address",
          "name": "owner",
          "type": "address"
        },
        {
          "indexed": true,
          "internalType": "address",
          "name": "approved",
          "type": "address"
        },
        {
          "indexed": true,
          "internalType": "uint256",
          "name": "tokenId",
          "type": "uint256"
        }
      ],
      "name": "Approval",
      "type": "event"
    },
    {
      "anonymous": false,
      "inputs": [
        {
          "indexed": true,
          "internalType": "address",
          "name": "owner",
          "type": "address"
        },
        {
          "indexed": true,
          "internalType": "address",
          "name": "operator",
          "type": "address"
        },
        {
          "indexed": false,
          "internalType": "bool",
          "name": "approved",
          "type": "bool"
        }
      ],
      "name": "ApprovalForAll",
      "type": "event"
    },
    {
      "anonymous": false,
      "inputs": [
        {
          "indexed": false,
          "internalType": "uint256",
          "name": "_tokenId",
          "type": "uint256"
        },
        {
          "indexed": false,
          "internalType": "uint256",
          "name": "_royalId",
          "type": "uint256"
        }
      ],
      "name": "CollectibleConsumed",
      "type": "event"
    },
    {
      "anonymous": false,
      "inputs": [
        {
          "indexed": false,
          "internalType": "address",
          "name": "_owner",
          "type": "address"
        },
        {
          "indexed": false,
          "internalType": "uint256",
          "name": "_tokenId",
          "type": "uint256"
        },
        {
          "indexed": false,
          "internalType": "uint256",
          "name": "_royalId",
          "type": "uint256"
        }
      ],
      "name": "CollectibleFound",
      "type": "event"
    },
    {
      "anonymous": false,
      "inputs": [
        {
          "indexed": false,
          "internalType": "address",
          "name": "_owner",
          "type": "address"
        },
        {
          "indexed": false,
          "internalType": "uint256",
          "name": "_royalId",
          "type": "uint256"
        }
      ],
      "name": "CollectibleNotFound",
      "type": "event"
    },
    {
      "anonymous": false,
      "inputs": [
        {
          "indexed": false,
          "internalType": "address",
          "name": "_owner",
          "type": "address"
        },
        {
          "indexed": false,
          "internalType": "uint256",
          "name": "_tokenId",
          "type": "uint256"
        },
        {
          "indexed": false,
          "internalType": "uint256",
          "name": "_royalId",
          "type": "uint256"
        }
      ],
      "name": "CollectibleSpecialReward",
      "type": "event"
    },
    {
      "anonymous": false,
      "inputs": [
        {
          "indexed": false,
          "internalType": "address",
          "name": "_previousOwner",
          "type": "address"
        },
        {
          "indexed": false,
          "internalType": "address",
          "name": "_newOwner",
          "type": "address"
        },
        {
          "indexed": false,
          "internalType": "uint256",
          "name": "_tokenID",
          "type": "uint256"
        },
        {
          "indexed": false,
          "internalType": "uint256",
          "name": "blockNumber",
          "type": "uint256"
        },
        {
          "indexed": false,
          "internalType": "uint256",
          "name": "timeStamp",
          "type": "uint256"
        }
      ],
      "name": "CollectibleTeleported",
      "type": "event"
    },
    {
      "anonymous": false,
      "inputs": [
        {
          "indexed": true,
          "internalType": "address",
          "name": "previousOwner",
          "type": "address"
        },
        {
          "indexed": true,
          "internalType": "address",
          "name": "newOwner",
          "type": "address"
        }
      ],
      "name": "OwnershipTransferred",
      "type": "event"
    },
    {
      "anonymous": false,
      "inputs": [
        {
          "indexed": true,
          "internalType": "address",
          "name": "from",
          "type": "address"
        },
        {
          "indexed": true,
          "internalType": "address",
          "name": "to",
          "type": "address"
        },
        {
          "indexed": true,
          "internalType": "uint256",
          "name": "tokenId",
          "type": "uint256"
        }
      ],
      "name": "Transfer",
      "type": "event"
    },
    {
      "inputs": [],
      "name": "KEEPER_ADDRESS",
      "outputs": [
        {
          "internalType": "address",
          "name": "",
          "type": "address"
        }
      ],
      "stateMutability": "view",
      "type": "function"
    },
    {
      "inputs": [],
      "name": "LOYAL_ADDRESS",
      "outputs": [
        {
          "internalType": "address",
          "name": "",
          "type": "address"
        }
      ],
      "stateMutability": "view",
      "type": "function"
    },
    {
      "inputs": [],
      "name": "MARKETPLACE_ADDRESS",
      "outputs": [
        {
          "internalType": "address",
          "name": "",
          "type": "address"
        }
      ],
      "stateMutability": "view",
      "type": "function"
    },
    {
      "inputs": [
        {
          "internalType": "address",
          "name": "",
          "type": "address"
        },
        {
          "internalType": "uint256",
          "name": "",
          "type": "uint256"
        }
      ],
      "name": "accountToCollectible",
      "outputs": [
        {
          "internalType": "uint256",
          "name": "",
          "type": "uint256"
        }
      ],
      "stateMutability": "view",
      "type": "function"
    },
    {
      "inputs": [
        {
          "internalType": "address",
          "name": "to",
          "type": "address"
        },
        {
          "internalType": "uint256",
          "name": "tokenId",
          "type": "uint256"
        }
      ],
      "name": "approve",
      "outputs": [],
      "stateMutability": "nonpayable",
      "type": "function"
    },
    {
      "inputs": [
        {
          "internalType": "address",
          "name": "owner",
          "type": "address"
        }
      ],
      "name": "balanceOf",
      "outputs": [
        {
          "internalType": "uint256",
          "name": "",
          "type": "uint256"
        }
      ],
      "stateMutability": "view",
      "type": "function"
    },
    {
      "inputs": [
        {
          "internalType": "uint256",
          "name": "",
          "type": "uint256"
        }
      ],
      "name": "collectibles",
      "outputs": [
        {
          "internalType": "address",
          "name": "owner",
          "type": "address"
        },
        {
          "internalType": "address",
          "name": "minter",
          "type": "address"
        },
        {
          "internalType": "uint256",
          "name": "royalId",
          "type": "uint256"
        },
        {
          "internalType": "uint256",
          "name": "id",
          "type": "uint256"
        },
        {
          "internalType": "enum CollectibleNft.Rarity",
          "name": "rarity",
          "type": "uint8"
        }
      ],
      "stateMutability": "view",
      "type": "function"
    },
    {
      "inputs": [
        {
          "internalType": "uint256",
          "name": "_artifactId",
          "type": "uint256"
        }
      ],
      "name": "consumeArtifact",
      "outputs": [],
      "stateMutability": "nonpayable",
      "type": "function"
    },
    {
      "inputs": [
        {
          "internalType": "address",
          "name": "_account",
          "type": "address"
        },
        {
          "internalType": "uint256",
          "name": "_royalId",
          "type": "uint256"
        }
      ],
      "name": "create",
      "outputs": [],
      "stateMutability": "nonpayable",
      "type": "function"
    },
    {
      "inputs": [
        {
          "internalType": "uint256",
          "name": "_royalId",
          "type": "uint256"
        },
        {
          "internalType": "address",
          "name": "_account",
          "type": "address"
        },
        {
          "internalType": "uint256",
          "name": "_rarity",
          "type": "uint256"
        }
      ],
      "name": "createSpecialReward",
      "outputs": [],
      "stateMutability": "nonpayable",
      "type": "function"
    },
    {
      "inputs": [
        {
          "internalType": "uint256",
          "name": "tokenId",
          "type": "uint256"
        }
      ],
      "name": "getApproved",
      "outputs": [
        {
          "internalType": "address",
          "name": "",
          "type": "address"
        }
      ],
      "stateMutability": "view",
      "type": "function"
    },
    {
      "inputs": [
        {
          "internalType": "address",
          "name": "_acc",
          "type": "address"
        }
      ],
      "name": "getIdsForAccount",
      "outputs": [
        {
          "internalType": "uint256[]",
          "name": "ids",
          "type": "uint256[]"
        }
      ],
      "stateMutability": "view",
      "type": "function"
    },
    {
      "inputs": [
        {
          "internalType": "uint256",
          "name": "_tokenId",
          "type": "uint256"
        }
      ],
      "name": "getMinter",
      "outputs": [
        {
          "internalType": "address",
          "name": "",
          "type": "address"
        }
      ],
      "stateMutability": "view",
      "type": "function"
    },
    {
      "inputs": [
        {
          "internalType": "uint256",
          "name": "_tokenId",
          "type": "uint256"
        }
      ],
      "name": "getOwnerOfNftID",
      "outputs": [
        {
          "internalType": "address",
          "name": "",
          "type": "address"
        }
      ],
      "stateMutability": "view",
      "type": "function"
    },
    {
      "inputs": [
        {
          "internalType": "uint256",
          "name": "_tokenId",
          "type": "uint256"
        }
      ],
      "name": "getRarity",
      "outputs": [
        {
          "internalType": "uint256",
          "name": "",
          "type": "uint256"
        }
      ],
      "stateMutability": "view",
      "type": "function"
    },
    {
      "inputs": [
        {
          "internalType": "address",
          "name": "_account",
          "type": "address"
        }
      ],
      "name": "hasCollectible",
      "outputs": [
        {
          "internalType": "bool",
          "name": "",
          "type": "bool"
        }
      ],
      "stateMutability": "view",
      "type": "function"
    },
    {
      "inputs": [
        {
          "internalType": "address",
          "name": "_account",
          "type": "address"
        },
        {
          "internalType": "uint256",
          "name": "_tokenId",
          "type": "uint256"
        }
      ],
      "name": "hasCollectibleId",
      "outputs": [
        {
          "internalType": "bool",
          "name": "",
          "type": "bool"
        }
      ],
      "stateMutability": "view",
      "type": "function"
    },
    {
      "inputs": [
        {
          "internalType": "address",
          "name": "owner",
          "type": "address"
        },
        {
          "internalType": "address",
          "name": "operator",
          "type": "address"
        }
      ],
      "name": "isApprovedForAll",
      "outputs": [
        {
          "internalType": "bool",
          "name": "",
          "type": "bool"
        }
      ],
      "stateMutability": "view",
      "type": "function"
    },
    {
      "inputs": [
        {
          "internalType": "address",
          "name": "from",
          "type": "address"
        },
        {
          "internalType": "address",
          "name": "to",
          "type": "address"
        },
        {
          "internalType": "uint256",
          "name": "tokenId",
          "type": "uint256"
        }
      ],
      "name": "marketTransfer",
      "outputs": [],
      "stateMutability": "nonpayable",
      "type": "function"
    },
    {
      "inputs": [],
      "name": "name",
      "outputs": [
        {
          "internalType": "string",
          "name": "",
          "type": "string"
        }
      ],
      "stateMutability": "view",
      "type": "function"
    },
    {
      "inputs": [],
      "name": "owner",
      "outputs": [
        {
          "internalType": "address",
          "name": "",
          "type": "address"
        }
      ],
      "stateMutability": "view",
      "type": "function"
    },
    {
      "inputs": [
        {
          "internalType": "uint256",
          "name": "tokenId",
          "type": "uint256"
        }
      ],
      "name": "ownerOf",
      "outputs": [
        {
          "internalType": "address",
          "name": "",
          "type": "address"
        }
      ],
      "stateMutability": "view",
      "type": "function"
    },
    {
      "inputs": [
        {
          "internalType": "enum CollectibleNft.Rarity",
          "name": "",
          "type": "uint8"
        }
      ],
      "name": "rarityToProp",
      "outputs": [
        {
          "internalType": "uint256",
          "name": "step",
          "type": "uint256"
        },
        {
          "internalType": "uint256",
          "name": "max",
          "type": "uint256"
        },
        {
          "internalType": "uint256",
          "name": "counter",
          "type": "uint256"
        },
        {
          "internalType": "uint256",
          "name": "nextMulti",
          "type": "uint256"
        },
        {
          "internalType": "string",
          "name": "uri",
          "type": "string"
        }
      ],
      "stateMutability": "view",
      "type": "function"
    },
    {
      "inputs": [],
      "name": "renounceOwnership",
      "outputs": [],
      "stateMutability": "nonpayable",
      "type": "function"
    },
    {
      "inputs": [
        {
          "internalType": "address",
          "name": "from",
          "type": "address"
        },
        {
          "internalType": "address",
          "name": "to",
          "type": "address"
        },
        {
          "internalType": "uint256",
          "name": "tokenId",
          "type": "uint256"
        }
      ],
      "name": "safeTransferFrom",
      "outputs": [],
      "stateMutability": "nonpayable",
      "type": "function"
    },
    {
      "inputs": [
        {
          "internalType": "address",
          "name": "from",
          "type": "address"
        },
        {
          "internalType": "address",
          "name": "to",
          "type": "address"
        },
        {
          "internalType": "uint256",
          "name": "tokenId",
          "type": "uint256"
        },
        {
          "internalType": "bytes",
          "name": "_data",
          "type": "bytes"
        }
      ],
      "name": "safeTransferFrom",
      "outputs": [],
      "stateMutability": "nonpayable",
      "type": "function"
    },
    {
      "inputs": [
        {
          "internalType": "address",
          "name": "operator",
          "type": "address"
        },
        {
          "internalType": "bool",
          "name": "approved",
          "type": "bool"
        }
      ],
      "name": "setApprovalForAll",
      "outputs": [],
      "stateMutability": "nonpayable",
      "type": "function"
    },
    {
      "inputs": [
        {
          "internalType": "address",
          "name": "_keeperAddress",
          "type": "address"
        }
      ],
      "name": "setKeeperContract",
      "outputs": [],
      "stateMutability": "nonpayable",
      "type": "function"
    },
    {
      "inputs": [
        {
          "internalType": "address",
          "name": "_loyNftAddress",
          "type": "address"
        }
      ],
      "name": "setLoyalContract",
      "outputs": [],
      "stateMutability": "nonpayable",
      "type": "function"
    },
    {
      "inputs": [
        {
          "internalType": "address",
          "name": "_addy",
          "type": "address"
        }
      ],
      "name": "setMarketplaceAddress",
      "outputs": [],
      "stateMutability": "nonpayable",
      "type": "function"
    },
    {
      "inputs": [
        {
          "internalType": "bytes4",
          "name": "interfaceId",
          "type": "bytes4"
        }
      ],
      "name": "supportsInterface",
      "outputs": [
        {
          "internalType": "bool",
          "name": "",
          "type": "bool"
        }
      ],
      "stateMutability": "view",
      "type": "function"
    },
    {
      "inputs": [],
      "name": "symbol",
      "outputs": [
        {
          "internalType": "string",
          "name": "",
          "type": "string"
        }
      ],
      "stateMutability": "view",
      "type": "function"
    },
    {
      "inputs": [],
      "name": "tokenCounter",
      "outputs": [
        {
          "internalType": "uint256",
          "name": "",
          "type": "uint256"
        }
      ],
      "stateMutability": "view",
      "type": "function"
    },
    {
      "inputs": [],
      "name": "tokenSupply",
      "outputs": [
        {
          "internalType": "uint256",
          "name": "",
          "type": "uint256"
        }
      ],
      "stateMutability": "view",
      "type": "function"
    },
    {
      "inputs": [
        {
          "internalType": "uint256",
          "name": "tokenId",
          "type": "uint256"
        }
      ],
      "name": "tokenURI",
      "outputs": [
        {
          "internalType": "string",
          "name": "",
          "type": "string"
        }
      ],
      "stateMutability": "view",
      "type": "function"
    },
    {
      "inputs": [],
      "name": "totalSupply",
      "outputs": [
        {
          "internalType": "uint256",
          "name": "",
          "type": "uint256"
        }
      ],
      "stateMutability": "view",
      "type": "function"
    },
    {
      "inputs": [
        {
          "internalType": "address",
          "name": "from",
          "type": "address"
        },
        {
          "internalType": "address",
          "name": "to",
          "type": "address"
        },
        {
          "internalType": "uint256",
          "name": "tokenId",
          "type": "uint256"
        }
      ],
      "name": "transferFrom",
      "outputs": [],
      "stateMutability": "nonpayable",
      "type": "function"
    },
    {
      "inputs": [
        {
          "internalType": "address",
          "name": "newOwner",
          "type": "address"
        }
      ],
      "name": "transferOwnership",
      "outputs": [],
      "stateMutability": "nonpayable",
      "type": "function"
    }
  ],
  "bytecode": "0x60806040523480156200001157600080fd5b506040516200320c3803806200320c8339810160408190526200003491620005b3565b604080518082018252601681527f5a657070656c696e436f6c6c65637469626c654e46540000000000000000000060208083019182528351808501909452600e84526d10dbdb1b1958dd1a589b1953919560921b9084015281519192916200009f91600091620004f0565b508051620000b5906001906020840190620004f0565b505050620000d2620000cc6200049a60201b60201c565b6200049e565b600060088190556009819055600b80546001600160a01b038481166001600160a01b031992831617909255600a8054928616929091169190911781556040805160a08101825291825261014a602080840191825283830185815260016060860190815284518086019095526005855264697066732f60d81b8584015260808601948552958052600f825284517ff4803e074bd026baaf6ed2e288c9515f68c72fb7216eebdd7cae1718a53ec37590815592517ff4803e074bd026baaf6ed2e288c9515f68c72fb7216eebdd7cae1718a53ec37655517ff4803e074bd026baaf6ed2e288c9515f68c72fb7216eebdd7cae1718a53ec3775593517ff4803e074bd026baaf6ed2e288c9515f68c72fb7216eebdd7cae1718a53ec37855905180519293919262000224927ff4803e074bd026baaf6ed2e288c9515f68c72fb7216eebdd7cae1718a53ec379920190620004f0565b509050506040518060a001604052806032815260200160468152602001600081526020016001815260200160405180604001604052806005815260200164697066732f60d81b815250815250600f6000600160038111156200028a576200028a620005eb565b60038111156200029e576200029e620005eb565b8152602001908152602001600020600082015181600001556020820151816001015560408201518160020155606082015181600301556080820151816004019080519060200190620002f2929190620004f0565b509050506040518060a001604052806064815260200160238152602001600081526020016001815260200160405180604001604052806005815260200164697066732f60d81b815250815250600f600060026003811115620003585762000358620005eb565b60038111156200036c576200036c620005eb565b8152602001908152602001600020600082015181600001556020820151816001015560408201518160020155606082015181600301556080820151816004019080519060200190620003c0929190620004f0565b509050506040518060a001604052806101ae8152602001600a8152602001600081526020016001815260200160405180604001604052806005815260200164697066732f60d81b815250815250600f6000600380811115620004265762000426620005eb565b60038111156200043a576200043a620005eb565b81526020019081526020016000206000820151816000015560208201518160010155604082015181600201556060820151816003015560808201518160040190805190602001906200048e929190620004f0565b5090505050506200063e565b3390565b600780546001600160a01b038381166001600160a01b0319831681179093556040519116919082907f8be0079c531659141344cd1fd0a4f28419497f9722a3daafe3b4186f6b6457e090600090a35050565b828054620004fe9062000601565b90600052602060002090601f0160209004810192826200052257600085556200056d565b82601f106200053d57805160ff19168380011785556200056d565b828001600101855582156200056d579182015b828111156200056d57825182559160200191906001019062000550565b506200057b9291506200057f565b5090565b5b808211156200057b576000815560010162000580565b80516001600160a01b0381168114620005ae57600080fd5b919050565b60008060408385031215620005c757600080fd5b620005d28362000596565b9150620005e26020840162000596565b90509250929050565b634e487b7160e01b600052602160045260246000fd5b600181811c908216806200061657607f821691505b602082108114156200063857634e487b7160e01b600052602260045260246000fd5b50919050565b612bbe806200064e6000396000f3fe608060405234801561001057600080fd5b50600436106102325760003560e01c806366f3b63311610130578063b3b33505116100b8578063d082e3811161007c578063d082e38114610559578063e985e9c514610562578063f2fde38b1461059e578063f8ab3bf2146105b1578063fdf12500146105c457600080fd5b8063b3b33505146104fa578063b47cc5561461050d578063b88d4fde14610520578063bcf0dd8e14610533578063c87b56dd1461054657600080fd5b80637977300a116100ff5780637977300a1461048d5780638da5cb5b146104bb57806395d89b41146104cc57806397e3d096146104d4578063a22cb465146104e757600080fd5b806366f3b6331461045657806370a0823114610469578063715018a61461047c5780637824407f1461048457600080fd5b80632734295e116101be5780634bbb9787116101825780634bbb9787146103de5780635b7121f8146103f1578063602b97341461041d578063627cc5a0146104305780636352211e1461044357600080fd5b80632734295e1461035c5780633d6877e41461036f57806342842e0e14610398578063467de1dc146103ab57806348758697146103cb57600080fd5b80630a09859d116102055780630a09859d146102b45780630ecaea731461031157806318160ddd1461032457806323b872dd1461033657806324032bf31461034957600080fd5b806301ffc9a71461023757806306fdde031461025f578063081812fc14610274578063095ea7b31461029f575b600080fd5b61024a6102453660046124db565b6105e8565b60405190151581526020015b60405180910390f35b61026761063a565b6040516102569190612550565b610287610282366004612563565b6106cc565b6040516001600160a01b039091168152602001610256565b6102b26102ad366004612598565b610759565b005b6103006102c2366004612563565b600d60205260009081526040902080546001820154600283015460038401546004909401546001600160a01b03938416949390921692909160ff1685565b6040516102569594939291906125d8565b6102b261031f366004612598565b61086f565b6009545b604051908152602001610256565b6102b261034436600461262c565b610ba2565b61024a610357366004612668565b610bd3565b6102b261036a366004612668565b610c67565b61028761037d366004612563565b6000908152600d60205260409020546001600160a01b031690565b6102b26103a636600461262c565b610cd9565b6103be6103b9366004612668565b610cf4565b6040516102569190612683565b6103286103d9366004612563565b610d60565b6102b26103ec366004612563565b610d86565b6102876103ff366004612563565b6000908152600d60205260409020600101546001600160a01b031690565b6102b261042b366004612668565b610e26565b600b54610287906001600160a01b031681565b610287610451366004612563565b610e98565b600a54610287906001600160a01b031681565b610328610477366004612668565b610f0f565b6102b2610f96565b61032860095481565b61024a61049b366004612598565b6000908152600d60205260409020546001600160a01b0390811691161490565b6007546001600160a01b0316610287565b610267610fcc565b6102b26104e23660046126c7565b610fdb565b6102b26104f53660046126ec565b6111d3565b600c54610287906001600160a01b031681565b6102b261051b366004612668565b611298565b6102b261052e36600461273e565b61130a565b6102b261054136600461262c565b61133c565b610267610554366004612563565b611366565b61032860085481565b61024a61057036600461281a565b6001600160a01b03918216600090815260056020908152604080832093909416825291909152205460ff1690565b6102b26105ac366004612668565b6114dd565b6103286105bf366004612598565b611578565b6105d76105d236600461284d565b6115a9565b60405161025695949392919061286e565b60006001600160e01b031982166380ac58cd60e01b148061061957506001600160e01b03198216635b5e139f60e01b145b8061063457506301ffc9a760e01b6001600160e01b03198316145b92915050565b606060008054610649906128a4565b80601f0160208091040260200160405190810160405280929190818152602001828054610675906128a4565b80156106c25780601f10610697576101008083540402835291602001916106c2565b820191906000526020600020905b8154815290600101906020018083116106a557829003601f168201915b5050505050905090565b60006106d782611662565b61073d5760405162461bcd60e51b815260206004820152602c60248201527f4552433732313a20617070726f76656420717565727920666f72206e6f6e657860448201526b34b9ba32b73a103a37b5b2b760a11b60648201526084015b60405180910390fd5b506000908152600460205260409020546001600160a01b031690565b600061076482610e98565b9050806001600160a01b0316836001600160a01b031614156107d25760405162461bcd60e51b815260206004820152602160248201527f4552433732313a20617070726f76616c20746f2063757272656e74206f776e656044820152603960f91b6064820152608401610734565b336001600160a01b03821614806107ee57506107ee8133610570565b6108605760405162461bcd60e51b815260206004820152603860248201527f4552433732313a20617070726f76652063616c6c6572206973206e6f74206f7760448201527f6e6572206e6f7220617070726f76656420666f7220616c6c00000000000000006064820152608401610734565b61086a838361167f565b505050565b600a546001600160a01b031633146108995760405162461bcd60e51b8152600401610734906128df565b6101bd6009541015610b9e5761271060006108b48284612915565b905060006108ea6040518060a0016040528060008152602001600081526020016000815260200160008152602001606081525090565b6000806108f960036001612934565b90505b8015610b975761090d60018261294c565b9150600f6000836003811115610925576109256125c2565b6003811115610936576109366125c2565b6003811115610947576109476125c2565b81526020019081526020016000206040518060a001604052908160008201548152602001600182015481526020016002820154815260200160038201548152602001600482018054610998906128a4565b80601f01602080910402602001604051908101604052809291908181526020018280546109c4906128a4565b8015610a115780601f106109e657610100808354040283529160200191610a11565b820191906000526020600020905b8154815290600101906020018083116109f457829003601f168201915b50505050508152505092508260200151836040015114158015610a4c57506060830151610a3e9087612915565b8351610a4a9087612979565b145b15610b85578315610abb57600f6000836003811115610a6d57610a6d6125c2565b6003811115610a7e57610a7e6125c2565b6003811115610a8f57610a8f6125c2565b81526020019081526020016000206003016000815480929190610ab19061298d565b9190505550610b85565b60019350600f6000836003811115610ad557610ad56125c2565b6003811115610ae657610ae66125c2565b6003811115610af757610af76125c2565b81526020019081526020016000206003016000815480929190610b199061298d565b9190505550610b3a8789846003811115610b3557610b356125c2565b6116ed565b604080516001600160a01b038a168152602081018990529081018390527f2d45c3ee1f1c3bcaf7a7c3c5fa49ac120b7d9e61d11ae81946dac1c03815aa989060600160405180910390a15b80610b8f816129a8565b9150506108fc565b5050505050505b5050565b610bac33826119a2565b610bc85760405162461bcd60e51b8152600401610734906129bf565b61086a838383611a88565b6001600160a01b0381166000908152600e602052604081205480610bfa5750600092915050565b60005b81811015610c5d576001600160a01b0384166000908152600e60205260409020805482908110610c2f57610c2f612a10565b9060005260206000200154600014610c4b575060019392505050565b80610c558161298d565b915050610bfd565b5060009392505050565b6007546001600160a01b03163314610c915760405162461bcd60e51b815260040161073490612a26565b6001600160a01b038116610cb75760405162461bcd60e51b815260040161073490612a5b565b600a80546001600160a01b0319166001600160a01b0392909216919091179055565b61086a8383836040518060200160405280600081525061130a565b6001600160a01b0381166000908152600e6020908152604091829020805483518184028101840190945280845260609392830182828015610d5457602002820191906000526020600020905b815481526020019060010190808311610d40575b50505050509050919050565b6000818152600d602052604081206004015460ff166003811115610634576106346125c2565b600b546001600160a01b03163314610db05760405162461bcd60e51b8152600401610734906128df565b6000818152600d6020526040902054600b54610dd9916001600160a01b03908116911683611a88565b6000818152600d6020908152604091829020600201548251848152918201527fbdcbaee6988417f38a22625f942eca0fae46e0e852bbd7b930ee28bba08413b7910160405180910390a150565b6007546001600160a01b03163314610e505760405162461bcd60e51b815260040161073490612a26565b6001600160a01b038116610e765760405162461bcd60e51b815260040161073490612a5b565b600b80546001600160a01b0319166001600160a01b0392909216919091179055565b6000818152600260205260408120546001600160a01b0316806106345760405162461bcd60e51b815260206004820152602960248201527f4552433732313a206f776e657220717565727920666f72206e6f6e657869737460448201526832b73a103a37b5b2b760b91b6064820152608401610734565b60006001600160a01b038216610f7a5760405162461bcd60e51b815260206004820152602a60248201527f4552433732313a2062616c616e636520717565727920666f7220746865207a65604482015269726f206164647265737360b01b6064820152608401610734565b506001600160a01b031660009081526003602052604090205490565b6007546001600160a01b03163314610fc05760405162461bcd60e51b815260040161073490612a26565b610fca6000611b37565b565b606060018054610649906128a4565b6007546001600160a01b031633146110055760405162461bcd60e51b815260040161073490612a26565b6000600f600083600381111561101d5761101d6125c2565b600381111561102e5761102e6125c2565b600381111561103f5761103f6125c2565b81526020019081526020016000206040518060a001604052908160008201548152602001600182015481526020016002820154815260200160038201548152602001600482018054611090906128a4565b80601f01602080910402602001604051908101604052809291908181526020018280546110bc906128a4565b80156111095780601f106110de57610100808354040283529160200191611109565b820191906000526020600020905b8154815290600101906020018083116110ec57829003601f168201915b505050505081525050905080602001518160400151101561118a5761113b8484846003811115610b3557610b356125c2565b604080516001600160a01b0385168152602081018690529081018390527f2d45c3ee1f1c3bcaf7a7c3c5fa49ac120b7d9e61d11ae81946dac1c03815aa989060600160405180910390a16111cd565b604080516001600160a01b0385168152602081018690527f2c1b8724956d864ec2f276b02b4e89638d96519aa7587501cba8262d23197b01910160405180910390a15b50505050565b6001600160a01b03821633141561122c5760405162461bcd60e51b815260206004820152601960248201527f4552433732313a20617070726f766520746f2063616c6c6572000000000000006044820152606401610734565b3360008181526005602090815260408083206001600160a01b03871680855290835292819020805460ff191686151590811790915590519081529192917f17307eab39ab6107e8899845ad3d59bd9653f200f220920489ca2b5937696c31910160405180910390a35050565b6007546001600160a01b031633146112c25760405162461bcd60e51b815260040161073490612a26565b6001600160a01b0381166112e85760405162461bcd60e51b815260040161073490612a5b565b600c80546001600160a01b0319166001600160a01b0392909216919091179055565b61131433836119a2565b6113305760405162461bcd60e51b8152600401610734906129bf565b6111cd84848484611b89565b600c546001600160a01b03163314610bc85760405162461bcd60e51b8152600401610734906128df565b606061137182611662565b6113d75760405162461bcd60e51b815260206004820152603160248201527f45524337323155524953746f726167653a2055524920717565727920666f72206044820152703737b732bc34b9ba32b73a103a37b5b2b760791b6064820152608401610734565b600082815260066020526040812080546113f0906128a4565b80601f016020809104026020016040519081016040528092919081815260200182805461141c906128a4565b80156114695780601f1061143e57610100808354040283529160200191611469565b820191906000526020600020905b81548152906001019060200180831161144c57829003601f168201915b50505050509050600061148760408051602081019091526000815290565b905080516000141561149a575092915050565b8151156114cc5780826040516020016114b4929190612a83565b60405160208183030381529060405292505050919050565b6114d584611bbc565b949350505050565b6007546001600160a01b031633146115075760405162461bcd60e51b815260040161073490612a26565b6001600160a01b03811661156c5760405162461bcd60e51b815260206004820152602660248201527f4f776e61626c653a206e6577206f776e657220697320746865207a65726f206160448201526564647265737360d01b6064820152608401610734565b61157581611b37565b50565b600e602052816000526040600020818154811061159457600080fd5b90600052602060002001600091509150505481565b600f602052600090815260409020805460018201546002830154600384015460048501805494959394929391926115df906128a4565b80601f016020809104026020016040519081016040528092919081815260200182805461160b906128a4565b80156116585780601f1061162d57610100808354040283529160200191611658565b820191906000526020600020905b81548152906001019060200180831161163b57829003601f168201915b5050505050905085565b6000908152600260205260409020546001600160a01b0316151590565b600081815260046020526040902080546001600160a01b0319166001600160a01b03841690811790915581906116b482610e98565b6001600160a01b03167f8c5be1e5ebec7d5bd14f71427d1e84f3dd0314c0f7b2291e5b200ac8c7c3b92560405160405180910390a45050565b600060085460016116fe9190612934565b905060006040518060a00160405280856001600160a01b03168152602001856001600160a01b03168152602001868152602001838152602001846003811115611749576117496125c2565b90526000838152600d6020908152604091829020835181546001600160a01b039182166001600160a01b0319918216178355928501516001808401805492909316919094161790559183015160028301556060830151600380840191909155608084015160048401805495965086959193909260ff199092169184908111156117d4576117d46125c2565b021790555050506001600160a01b0384166000908152600e60209081526040822080546001810182559083529082200183905560088054916118158361298d565b90915550506009805490600061182a8361298d565b9190505550600f6000846003811115611845576118456125c2565b6003811115611856576118566125c2565b815260200190815260200160002060020160008154809291906118789061298d565b91905055506118878483611c94565b61195182600f60008660038111156118a1576118a16125c2565b60038111156118b2576118b26125c2565b815260200190815260200160002060040180546118ce906128a4565b80601f01602080910402602001604051908101604052809291908181526020018280546118fa906128a4565b80156119475780601f1061191c57610100808354040283529160200191611947565b820191906000526020600020905b81548152906001019060200180831161192a57829003601f168201915b5050505050611cae565b604080516001600160a01b0386168152602081018490529081018690527fae13ccf97b2fa261ecfb51329d053a765c61901be3cffbbf5c98a163f5a71ded9060600160405180910390a15050505050565b60006119ad82611662565b611a0e5760405162461bcd60e51b815260206004820152602c60248201527f4552433732313a206f70657261746f7220717565727920666f72206e6f6e657860448201526b34b9ba32b73a103a37b5b2b760a11b6064820152608401610734565b6000611a1983610e98565b9050806001600160a01b0316846001600160a01b03161480611a545750836001600160a01b0316611a49846106cc565b6001600160a01b0316145b806114d557506001600160a01b0380821660009081526005602090815260408083209388168352929052205460ff166114d5565b611a93838383611d39565b611a9d8382611ed9565b506001600160a01b038281166000818152600e60209081526040808320805460018101825590845282842001869055858352600d82529182902080546001600160a01b031916841790558151938716845283019190915281018290524360608201524260808201527f82d5d2ba61e492824fbd366ae08c7952b5e9d84a02c2a44ead70cf3206a08e5d9060a00160405180910390a1505050565b600780546001600160a01b038381166001600160a01b0319831681179093556040519116919082907f8be0079c531659141344cd1fd0a4f28419497f9722a3daafe3b4186f6b6457e090600090a35050565b611b94848484611a88565b611ba0848484846120ca565b6111cd5760405162461bcd60e51b815260040161073490612ab2565b6060611bc782611662565b611c2b5760405162461bcd60e51b815260206004820152602f60248201527f4552433732314d657461646174613a2055524920717565727920666f72206e6f60448201526e3732bc34b9ba32b73a103a37b5b2b760891b6064820152608401610734565b6000611c4260408051602081019091526000815290565b90506000815111611c625760405180602001604052806000815250611c8d565b80611c6c846121c8565b604051602001611c7d929190612a83565b6040516020818303038152906040525b9392505050565b610b9e8282604051806020016040528060008152506122c6565b611cb782611662565b611d1a5760405162461bcd60e51b815260206004820152602e60248201527f45524337323155524953746f726167653a2055524920736574206f66206e6f6e60448201526d32bc34b9ba32b73a103a37b5b2b760911b6064820152608401610734565b6000828152600660209081526040909120825161086a9284019061242c565b826001600160a01b0316611d4c82610e98565b6001600160a01b031614611db45760405162461bcd60e51b815260206004820152602960248201527f4552433732313a207472616e73666572206f6620746f6b656e2074686174206960448201526839903737ba1037bbb760b91b6064820152608401610734565b6001600160a01b038216611e165760405162461bcd60e51b8152602060048201526024808201527f4552433732313a207472616e7366657220746f20746865207a65726f206164646044820152637265737360e01b6064820152608401610734565b611e2160008261167f565b6001600160a01b0383166000908152600360205260408120805460019290611e4a90849061294c565b90915550506001600160a01b0382166000908152600360205260408120805460019290611e78908490612934565b909155505060008181526002602052604080822080546001600160a01b0319166001600160a01b0386811691821790925591518493918716917fddf252ad1be2c89b69c2b068fc378daa952ba7f163c4a11628f55a4df523b3ef91a4505050565b6001600160a01b0382166000908152600e602052604081205480611f01576000915050610634565b6001600160a01b0384166000908152600e602052604090208390611f2660018461294c565b81548110611f3657611f36612a10565b90600052602060002001541415611f8e576001600160a01b0384166000908152600e60205260409020805480611f6e57611f6e612b04565b600190038181906000526020600020016000905590556001915050610634565b6000805b611f9d60018461294c565b81101561207e576001600160a01b0386166000908152600e60205260409020805482908110611fce57611fce612a10565b9060005260206000200154851415611fe557600191505b811561206c576001600160a01b0386166000908152600e6020526040902061200e826001612934565b8154811061201e5761201e612a10565b9060005260206000200154600e6000886001600160a01b03166001600160a01b03168152602001908152602001600020828154811061205f5761205f612a10565b6000918252602090912001555b806120768161298d565b915050611f92565b5080156114d5576001600160a01b0385166000908152600e602052604090208054806120ac576120ac612b04565b60019003818190600052602060002001600090559055949350505050565b60006001600160a01b0384163b156121bd57604051630a85bd0160e11b81526001600160a01b0385169063150b7a029061210e903390899088908890600401612b1a565b6020604051808303816000875af1925050508015612149575060408051601f3d908101601f1916820190925261214691810190612b57565b60015b6121a3573d808015612177576040519150601f19603f3d011682016040523d82523d6000602084013e61217c565b606091505b50805161219b5760405162461bcd60e51b815260040161073490612ab2565b805181602001fd5b6001600160e01b031916630a85bd0160e11b1490506114d5565b506001949350505050565b6060816121ec5750506040805180820190915260018152600360fc1b602082015290565b8160005b811561221657806122008161298d565b915061220f9050600a83612979565b91506121f0565b60008167ffffffffffffffff81111561223157612231612728565b6040519080825280601f01601f19166020018201604052801561225b576020820181803683370190505b5090505b84156114d55761227060018361294c565b915061227d600a86612b74565b612288906030612934565b60f81b81838151811061229d5761229d612a10565b60200101906001600160f81b031916908160001a9053506122bf600a86612979565b945061225f565b6122d083836122f9565b6122dd60008484846120ca565b61086a5760405162461bcd60e51b815260040161073490612ab2565b6001600160a01b03821661234f5760405162461bcd60e51b815260206004820181905260248201527f4552433732313a206d696e7420746f20746865207a65726f20616464726573736044820152606401610734565b61235881611662565b156123a55760405162461bcd60e51b815260206004820152601c60248201527f4552433732313a20746f6b656e20616c7265616479206d696e746564000000006044820152606401610734565b6001600160a01b03821660009081526003602052604081208054600192906123ce908490612934565b909155505060008181526002602052604080822080546001600160a01b0319166001600160a01b03861690811790915590518392907fddf252ad1be2c89b69c2b068fc378daa952ba7f163c4a11628f55a4df523b3ef908290a45050565b828054612438906128a4565b90600052602060002090601f01602090048101928261245a57600085556124a0565b82601f1061247357805160ff19168380011785556124a0565b828001600101855582156124a0579182015b828111156124a0578251825591602001919060010190612485565b506124ac9291506124b0565b5090565b5b808211156124ac57600081556001016124b1565b6001600160e01b03198116811461157557600080fd5b6000602082840312156124ed57600080fd5b8135611c8d816124c5565b60005b838110156125135781810151838201526020016124fb565b838111156111cd5750506000910152565b6000815180845261253c8160208601602086016124f8565b601f01601f19169290920160200192915050565b602081526000611c8d6020830184612524565b60006020828403121561257557600080fd5b5035919050565b80356001600160a01b038116811461259357600080fd5b919050565b600080604083850312156125ab57600080fd5b6125b48361257c565b946020939093013593505050565b634e487b7160e01b600052602160045260246000fd5b6001600160a01b03868116825285166020820152604081018490526060810183905260a081016004831061261c57634e487b7160e01b600052602160045260246000fd5b8260808301529695505050505050565b60008060006060848603121561264157600080fd5b61264a8461257c565b92506126586020850161257c565b9150604084013590509250925092565b60006020828403121561267a57600080fd5b611c8d8261257c565b6020808252825182820181905260009190848201906040850190845b818110156126bb5783518352928401929184019160010161269f565b50909695505050505050565b6000806000606084860312156126dc57600080fd5b833592506126586020850161257c565b600080604083850312156126ff57600080fd5b6127088361257c565b91506020830135801515811461271d57600080fd5b809150509250929050565b634e487b7160e01b600052604160045260246000fd5b6000806000806080858703121561275457600080fd5b61275d8561257c565b935061276b6020860161257c565b925060408501359150606085013567ffffffffffffffff8082111561278f57600080fd5b818701915087601f8301126127a357600080fd5b8135818111156127b5576127b5612728565b604051601f8201601f19908116603f011681019083821181831017156127dd576127dd612728565b816040528281528a60208487010111156127f657600080fd5b82602086016020830137600060208483010152809550505050505092959194509250565b6000806040838503121561282d57600080fd5b6128368361257c565b91506128446020840161257c565b90509250929050565b60006020828403121561285f57600080fd5b813560048110611c8d57600080fd5b85815284602082015283604082015282606082015260a06080820152600061289960a0830184612524565b979650505050505050565b600181811c908216806128b857607f821691505b602082108114156128d957634e487b7160e01b600052602260045260246000fd5b50919050565b6020808252600690820152650aadc82eae8d60d31b604082015260600190565b634e487b7160e01b600052601160045260246000fd5b600081600019048311821515161561292f5761292f6128ff565b500290565b60008219821115612947576129476128ff565b500190565b60008282101561295e5761295e6128ff565b500390565b634e487b7160e01b600052601260045260246000fd5b60008261298857612988612963565b500490565b60006000198214156129a1576129a16128ff565b5060010190565b6000816129b7576129b76128ff565b506000190190565b60208082526031908201527f4552433732313a207472616e736665722063616c6c6572206973206e6f74206f6040820152701ddb995c881b9bdc88185c1c1c9bdd9959607a1b606082015260800190565b634e487b7160e01b600052603260045260246000fd5b6020808252818101527f4f776e61626c653a2063616c6c6572206973206e6f7420746865206f776e6572604082015260600190565b6020808252600e908201526d5a65726f2061646472657373202160901b604082015260600190565b60008351612a958184602088016124f8565b835190830190612aa98183602088016124f8565b01949350505050565b60208082526032908201527f4552433732313a207472616e7366657220746f206e6f6e20455243373231526560408201527131b2b4bb32b91034b6b83632b6b2b73a32b960711b606082015260800190565b634e487b7160e01b600052603160045260246000fd5b6001600160a01b0385811682528416602082015260408101839052608060608201819052600090612b4d90830184612524565b9695505050505050565b600060208284031215612b6957600080fd5b8151611c8d816124c5565b600082612b8357612b83612963565b50069056fea2646970667358221220db1fe1818cf97a4ac3d32a2b997805499b32847141ed8b81eba3cb09321ccc9464736f6c634300080a0033",
  "linkReferences": {},
  "deployedLinkReferences": {}
}