{
  "_format": "hh-sol-artifact-1",
  "contractName": "Account",
  "sourceName": "contracts/SimpleAccount.sol",
  "abi": [
    {
      "inputs": [
        {
          "internalType": "address payable",
          "name": "_owner",
          "type": "address"
        }
      ],
      "stateMutability": "nonpayable",
      "type": "constructor"
    },
    {
      "stateMutability": "payable",
      "type": "fallback"
    },
    {
      "inputs": [
        {
          "internalType": "address payable",
          "name": "recipient",
          "type": "address"
        }
      ],
      "name": "destroy",
      "outputs": [],
      "stateMutability": "nonpayable",
      "type": "function"
    },
    {
      "inputs": [],
      "name": "owner",
      "outputs": [
        {
          "internalType": "address",
          "name": "",
          "type": "address"
        }
      ],
      "stateMutability": "view",
      "type": "function"
    },
    {
      "inputs": [
        {
          "internalType": "address",
          "name": "_owner",
          "type": "address"
        }
      ],
      "name": "setOwner",
      "outputs": [],
      "stateMutability": "nonpayable",
      "type": "function"
    },
    {
      "stateMutability": "payable",
      "type": "receive"
    }
  ],
  "bytecode": "0x608060405234801561001057600080fd5b5060405161021a38038061021a83398101604081905261002f91610054565b600080546001600160a01b0319166001600160a01b0392909216919091179055610084565b60006020828403121561006657600080fd5b81516001600160a01b038116811461007d57600080fd5b9392505050565b610187806100936000396000f3fe6080604052600436106100345760003560e01c8062f55d9d1461003d57806313af40351461005d5780638da5cb5b1461007d57005b3661003b57005b005b34801561004957600080fd5b5061003b61005836600461012d565b6100b9565b34801561006957600080fd5b5061003b61007836600461012d565b6100dc565b34801561008957600080fd5b5060005461009d906001600160a01b031681565b6040516001600160a01b03909116815260200160405180910390f35b6000546001600160a01b031633146100d057600080fd5b806001600160a01b0316ff5b6000546001600160a01b031633146100f357600080fd5b600080546001600160a01b0319166001600160a01b0392909216919091179055565b6001600160a01b038116811461012a57600080fd5b50565b60006020828403121561013f57600080fd5b813561014a81610115565b939250505056fea2646970667358221220dd842a88fbccd7f5de3feee776e427a08829e4878f0ccc709114eb3787c9826464736f6c634300080a0033",
  "linkReferences": {},
  "deployedLinkReferences": {}
}