{
  "_format": "hh-sol-artifact-1",
  "contractName": "Marketplace",
  "sourceName": "contracts/Marketplace.sol",
  "abi": [
    {
      "inputs": [
        {
          "internalType": "address",
          "name": "_helperAddr",
          "type": "address"
        }
      ],
      "stateMutability": "nonpayable",
      "type": "constructor"
    },
    {
      "anonymous": false,
      "inputs": [
        {
          "indexed": false,
          "internalType": "contract IZenERC20",
          "name": "nftContract",
          "type": "address"
        },
        {
          "indexed": false,
          "internalType": "uint256",
          "name": "nftId",
          "type": "uint256"
        },
        {
          "indexed": false,
          "internalType": "address",
          "name": "seller",
          "type": "address"
        },
        {
          "indexed": false,
          "internalType": "address",
          "name": "buyer",
          "type": "address"
        },
        {
          "indexed": false,
          "internalType": "uint256",
          "name": "amount",
          "type": "uint256"
        }
      ],
      "name": "AcceptedOffer",
      "type": "event"
    },
    {
      "anonymous": false,
      "inputs": [
        {
          "indexed": false,
          "internalType": "contract IZenERC20",
          "name": "fromNftContract",
          "type": "address"
        },
        {
          "indexed": false,
          "internalType": "uint256",
          "name": "_fromNftId",
          "type": "uint256"
        },
        {
          "indexed": false,
          "internalType": "uint256",
          "name": "_amount",
          "type": "uint256"
        }
      ],
      "name": "DistributedProtocolFee",
      "type": "event"
    },
    {
      "anonymous": false,
      "inputs": [
        {
          "indexed": false,
          "internalType": "contract IZenERC20",
          "name": "nftContract",
          "type": "address"
        },
        {
          "indexed": false,
          "internalType": "uint256",
          "name": "nftId",
          "type": "uint256"
        },
        {
          "indexed": false,
          "internalType": "address",
          "name": "_toMinter",
          "type": "address"
        },
        {
          "indexed": false,
          "internalType": "uint256",
          "name": "_amount",
          "type": "uint256"
        }
      ],
      "name": "DistributedRoyalty",
      "type": "event"
    },
    {
      "anonymous": false,
      "inputs": [
        {
          "indexed": false,
          "internalType": "contract IZenERC20",
          "name": "nftContract",
          "type": "address"
        },
        {
          "indexed": false,
          "internalType": "uint256",
          "name": "nftId",
          "type": "uint256"
        },
        {
          "indexed": false,
          "internalType": "uint256",
          "name": "newExpiryBlock",
          "type": "uint256"
        },
        {
          "indexed": false,
          "internalType": "uint256",
          "name": "extendedWith",
          "type": "uint256"
        }
      ],
      "name": "ExtendedOffer",
      "type": "event"
    },
    {
      "anonymous": false,
      "inputs": [
        {
          "indexed": false,
          "internalType": "contract IZenERC20",
          "name": "nftContract",
          "type": "address"
        },
        {
          "indexed": false,
          "internalType": "uint256",
          "name": "nftId",
          "type": "uint256"
        },
        {
          "indexed": false,
          "internalType": "address",
          "name": "seller",
          "type": "address"
        },
        {
          "indexed": false,
          "internalType": "address",
          "name": "buyer",
          "type": "address"
        },
        {
          "indexed": false,
          "internalType": "uint256",
          "name": "amount",
          "type": "uint256"
        }
      ],
      "name": "InstantBought",
      "type": "event"
    },
    {
      "anonymous": false,
      "inputs": [
        {
          "indexed": false,
          "internalType": "contract IZenERC20",
          "name": "nftContract",
          "type": "address"
        },
        {
          "indexed": false,
          "internalType": "uint256",
          "name": "nftId",
          "type": "uint256"
        },
        {
          "indexed": false,
          "internalType": "address",
          "name": "oldBidder",
          "type": "address"
        },
        {
          "indexed": false,
          "internalType": "address",
          "name": "newBidder",
          "type": "address"
        },
        {
          "indexed": false,
          "internalType": "uint256",
          "name": "oldAmount",
          "type": "uint256"
        },
        {
          "indexed": false,
          "internalType": "uint256",
          "name": "newAmount",
          "type": "uint256"
        }
      ],
      "name": "NewBid",
      "type": "event"
    },
    {
      "anonymous": false,
      "inputs": [
        {
          "indexed": false,
          "internalType": "contract IZenERC20",
          "name": "nftContract",
          "type": "address"
        },
        {
          "indexed": false,
          "internalType": "uint256",
          "name": "nftId",
          "type": "uint256"
        },
        {
          "indexed": false,
          "internalType": "address",
          "name": "seller",
          "type": "address"
        },
        {
          "indexed": false,
          "internalType": "uint256",
          "name": "startPrice",
          "type": "uint256"
        },
        {
          "indexed": false,
          "internalType": "uint256",
          "name": "instantBuyPrice",
          "type": "uint256"
        },
        {
          "indexed": false,
          "internalType": "uint256",
          "name": "rarity",
          "type": "uint256"
        },
        {
          "indexed": false,
          "internalType": "uint256",
          "name": "expiryBlock",
          "type": "uint256"
        }
      ],
      "name": "NewOffer",
      "type": "event"
    },
    {
      "anonymous": false,
      "inputs": [
        {
          "indexed": false,
          "internalType": "contract IZenERC20",
          "name": "nftContract",
          "type": "address"
        },
        {
          "indexed": false,
          "internalType": "uint256",
          "name": "nftId",
          "type": "uint256"
        },
        {
          "indexed": false,
          "internalType": "address",
          "name": "_from",
          "type": "address"
        },
        {
          "indexed": false,
          "internalType": "address",
          "name": "_to",
          "type": "address"
        },
        {
          "indexed": false,
          "internalType": "uint256",
          "name": "_amount",
          "type": "uint256"
        }
      ],
      "name": "OwnershipChanged",
      "type": "event"
    },
    {
      "anonymous": false,
      "inputs": [
        {
          "indexed": true,
          "internalType": "address",
          "name": "previousOwner",
          "type": "address"
        },
        {
          "indexed": true,
          "internalType": "address",
          "name": "newOwner",
          "type": "address"
        }
      ],
      "name": "OwnershipTransferred",
      "type": "event"
    },
    {
      "anonymous": false,
      "inputs": [
        {
          "indexed": false,
          "internalType": "contract IZenERC20",
          "name": "nftContract",
          "type": "address"
        },
        {
          "indexed": false,
          "internalType": "uint256",
          "name": "nftId",
          "type": "uint256"
        },
        {
          "indexed": false,
          "internalType": "bool",
          "name": "ownershipChanged",
          "type": "bool"
        }
      ],
      "name": "Purged",
      "type": "event"
    },
    {
      "anonymous": false,
      "inputs": [
        {
          "indexed": false,
          "internalType": "contract IZenERC20",
          "name": "nftContract",
          "type": "address"
        },
        {
          "indexed": false,
          "internalType": "uint256",
          "name": "nftId",
          "type": "uint256"
        },
        {
          "indexed": false,
          "internalType": "address",
          "name": "bidder",
          "type": "address"
        },
        {
          "indexed": false,
          "internalType": "uint256",
          "name": "bidAmount",
          "type": "uint256"
        }
      ],
      "name": "Refunded",
      "type": "event"
    },
    {
      "anonymous": false,
      "inputs": [
        {
          "indexed": false,
          "internalType": "contract IZenERC20",
          "name": "nftContract",
          "type": "address"
        },
        {
          "indexed": false,
          "internalType": "uint256",
          "name": "nftId",
          "type": "uint256"
        },
        {
          "indexed": false,
          "internalType": "address",
          "name": "seller",
          "type": "address"
        },
        {
          "indexed": false,
          "internalType": "uint256",
          "name": "startPrice",
          "type": "uint256"
        }
      ],
      "name": "RemovedOffer",
      "type": "event"
    },
    {
      "anonymous": false,
      "inputs": [
        {
          "indexed": false,
          "internalType": "contract IZenERC20",
          "name": "nftContract",
          "type": "address"
        },
        {
          "indexed": false,
          "internalType": "uint256",
          "name": "nftId",
          "type": "uint256"
        },
        {
          "indexed": false,
          "internalType": "address",
          "name": "bidder",
          "type": "address"
        },
        {
          "indexed": false,
          "internalType": "uint256",
          "name": "amount",
          "type": "uint256"
        }
      ],
      "name": "WithdrawnBid",
      "type": "event"
    },
    {
      "stateMutability": "payable",
      "type": "fallback"
    },
    {
      "inputs": [],
      "name": "BID_WITHDRAW_CD",
      "outputs": [
        {
          "internalType": "uint256",
          "name": "",
          "type": "uint256"
        }
      ],
      "stateMutability": "view",
      "type": "function"
    },
    {
      "inputs": [],
      "name": "Helper",
      "outputs": [
        {
          "internalType": "contract IHelper",
          "name": "",
          "type": "address"
        }
      ],
      "stateMutability": "view",
      "type": "function"
    },
    {
      "inputs": [],
      "name": "MAX_OFFER_BLOCKS",
      "outputs": [
        {
          "internalType": "uint256",
          "name": "",
          "type": "uint256"
        }
      ],
      "stateMutability": "view",
      "type": "function"
    },
    {
      "inputs": [],
      "name": "MIN_PRICE",
      "outputs": [
        {
          "internalType": "uint256",
          "name": "",
          "type": "uint256"
        }
      ],
      "stateMutability": "view",
      "type": "function"
    },
    {
      "inputs": [],
      "name": "PROTOCOL_BUYING_FEE",
      "outputs": [
        {
          "internalType": "uint256",
          "name": "",
          "type": "uint256"
        }
      ],
      "stateMutability": "view",
      "type": "function"
    },
    {
      "inputs": [],
      "name": "PROTOCOL_LISTING_FEE",
      "outputs": [
        {
          "internalType": "uint256",
          "name": "",
          "type": "uint256"
        }
      ],
      "stateMutability": "view",
      "type": "function"
    },
    {
      "inputs": [],
      "name": "ROYALTY_FEE",
      "outputs": [
        {
          "internalType": "uint256",
          "name": "",
          "type": "uint256"
        }
      ],
      "stateMutability": "view",
      "type": "function"
    },
    {
      "inputs": [
        {
          "internalType": "contract IZenERC20",
          "name": "_nftContract",
          "type": "address"
        },
        {
          "internalType": "uint256",
          "name": "_nftId",
          "type": "uint256"
        }
      ],
      "name": "acceptBid",
      "outputs": [],
      "stateMutability": "nonpayable",
      "type": "function"
    },
    {
      "inputs": [
        {
          "internalType": "contract IZenERC20",
          "name": "_nftContract",
          "type": "address"
        }
      ],
      "name": "addToWhitelist",
      "outputs": [],
      "stateMutability": "nonpayable",
      "type": "function"
    },
    {
      "inputs": [
        {
          "internalType": "contract IZenERC20",
          "name": "_nftContract",
          "type": "address"
        },
        {
          "internalType": "uint256",
          "name": "_nftId",
          "type": "uint256"
        }
      ],
      "name": "autoAcceptBid",
      "outputs": [],
      "stateMutability": "nonpayable",
      "type": "function"
    },
    {
      "inputs": [
        {
          "internalType": "contract IZenERC20",
          "name": "",
          "type": "address"
        },
        {
          "internalType": "uint256",
          "name": "",
          "type": "uint256"
        }
      ],
      "name": "bids",
      "outputs": [
        {
          "components": [
            {
              "internalType": "uint256",
              "name": "nftId",
              "type": "uint256"
            },
            {
              "internalType": "contract IZenERC20",
              "name": "nftContract",
              "type": "address"
            },
            {
              "internalType": "address",
              "name": "seller",
              "type": "address"
            },
            {
              "internalType": "uint256",
              "name": "startPrice",
              "type": "uint256"
            },
            {
              "internalType": "uint256",
              "name": "instantBuyPrice",
              "type": "uint256"
            },
            {
              "internalType": "uint256",
              "name": "rarity",
              "type": "uint256"
            },
            {
              "internalType": "uint256",
              "name": "madeBlock",
              "type": "uint256"
            },
            {
              "internalType": "uint256",
              "name": "expiryBlock",
              "type": "uint256"
            }
          ],
          "internalType": "struct Marketplace.Offer",
          "name": "offer",
          "type": "tuple"
        },
        {
          "internalType": "address",
          "name": "bidder",
          "type": "address"
        },
        {
          "internalType": "uint256",
          "name": "amount",
          "type": "uint256"
        },
        {
          "internalType": "uint256",
          "name": "madeBlock",
          "type": "uint256"
        }
      ],
      "stateMutability": "view",
      "type": "function"
    },
    {
      "inputs": [
        {
          "internalType": "contract IZenERC20",
          "name": "_nftContract",
          "type": "address"
        },
        {
          "internalType": "uint256",
          "name": "_nftId",
          "type": "uint256"
        }
      ],
      "name": "buyNft",
      "outputs": [],
      "stateMutability": "payable",
      "type": "function"
    },
    {
      "inputs": [],
      "name": "checkPurge",
      "outputs": [
        {
          "internalType": "bool",
          "name": "shouldPurge",
          "type": "bool"
        },
        {
          "internalType": "address[]",
          "name": "contracts",
          "type": "address[]"
        },
        {
          "internalType": "uint256[]",
          "name": "ids",
          "type": "uint256[]"
        }
      ],
      "stateMutability": "view",
      "type": "function"
    },
    {
      "inputs": [
        {
          "internalType": "contract IZenERC20",
          "name": "",
          "type": "address"
        },
        {
          "internalType": "uint256",
          "name": "",
          "type": "uint256"
        }
      ],
      "name": "contractToIds",
      "outputs": [
        {
          "internalType": "uint256",
          "name": "",
          "type": "uint256"
        }
      ],
      "stateMutability": "view",
      "type": "function"
    },
    {
      "inputs": [
        {
          "internalType": "contract IZenERC20",
          "name": "_nftContract",
          "type": "address"
        },
        {
          "internalType": "uint256",
          "name": "_nftId",
          "type": "uint256"
        }
      ],
      "name": "enterBid",
      "outputs": [],
      "stateMutability": "payable",
      "type": "function"
    },
    {
      "inputs": [],
      "name": "getAllContracts",
      "outputs": [
        {
          "internalType": "address[]",
          "name": "",
          "type": "address[]"
        }
      ],
      "stateMutability": "view",
      "type": "function"
    },
    {
      "inputs": [
        {
          "internalType": "address",
          "name": "_account",
          "type": "address"
        }
      ],
      "name": "getBidsCountForAccount",
      "outputs": [
        {
          "internalType": "uint256",
          "name": "count",
          "type": "uint256"
        }
      ],
      "stateMutability": "view",
      "type": "function"
    },
    {
      "inputs": [
        {
          "internalType": "address",
          "name": "_account",
          "type": "address"
        },
        {
          "internalType": "uint256",
          "name": "_count",
          "type": "uint256"
        }
      ],
      "name": "getBidsForAccount",
      "outputs": [
        {
          "internalType": "address[]",
          "name": "contracts",
          "type": "address[]"
        },
        {
          "internalType": "uint256[]",
          "name": "ids",
          "type": "uint256[]"
        },
        {
          "internalType": "uint256[]",
          "name": "amounts",
          "type": "uint256[]"
        },
        {
          "internalType": "uint256[]",
          "name": "madeBlocks",
          "type": "uint256[]"
        }
      ],
      "stateMutability": "view",
      "type": "function"
    },
    {
      "inputs": [
        {
          "internalType": "contract IZenERC20",
          "name": "_nftContract",
          "type": "address"
        },
        {
          "internalType": "uint256",
          "name": "_nftId",
          "type": "uint256"
        }
      ],
      "name": "getFinalBuyPrice",
      "outputs": [
        {
          "internalType": "uint256",
          "name": "amountToSeller",
          "type": "uint256"
        },
        {
          "internalType": "uint256",
          "name": "amountFromBuyer",
          "type": "uint256"
        },
        {
          "internalType": "uint256",
          "name": "serviceFee",
          "type": "uint256"
        },
        {
          "internalType": "uint256",
          "name": "royaltyFee",
          "type": "uint256"
        }
      ],
      "stateMutability": "view",
      "type": "function"
    },
    {
      "inputs": [
        {
          "internalType": "contract IZenERC20",
          "name": "_nftContract",
          "type": "address"
        }
      ],
      "name": "getIds",
      "outputs": [
        {
          "internalType": "uint256[]",
          "name": "ids",
          "type": "uint256[]"
        }
      ],
      "stateMutability": "view",
      "type": "function"
    },
    {
      "inputs": [
        {
          "internalType": "contract IZenERC20",
          "name": "_nftContract",
          "type": "address"
        },
        {
          "internalType": "uint256",
          "name": "_nftId",
          "type": "uint256"
        }
      ],
      "name": "getMinimumBidAmount",
      "outputs": [
        {
          "internalType": "uint256",
          "name": "_nextPossibleAmt",
          "type": "uint256"
        }
      ],
      "stateMutability": "view",
      "type": "function"
    },
    {
      "inputs": [
        {
          "internalType": "contract IZenERC20",
          "name": "_nftContract",
          "type": "address"
        },
        {
          "internalType": "uint256",
          "name": "_nftId",
          "type": "uint256"
        }
      ],
      "name": "getOfferMadeBlockAndExpiry",
      "outputs": [
        {
          "internalType": "uint256",
          "name": "_madeBlock",
          "type": "uint256"
        },
        {
          "internalType": "uint256",
          "name": "_expiryBlock",
          "type": "uint256"
        }
      ],
      "stateMutability": "view",
      "type": "function"
    },
    {
      "inputs": [
        {
          "internalType": "uint256",
          "name": "start",
          "type": "uint256"
        },
        {
          "internalType": "uint256",
          "name": "count",
          "type": "uint256"
        },
        {
          "internalType": "uint256",
          "name": "sortBy",
          "type": "uint256"
        },
        {
          "internalType": "bool",
          "name": "highToLow",
          "type": "bool"
        }
      ],
      "name": "getOffers",
      "outputs": [
        {
          "internalType": "address[]",
          "name": "contracts",
          "type": "address[]"
        },
        {
          "internalType": "uint256[]",
          "name": "ids",
          "type": "uint256[]"
        },
        {
          "internalType": "uint256",
          "name": "totalCount",
          "type": "uint256"
        }
      ],
      "stateMutability": "view",
      "type": "function"
    },
    {
      "inputs": [],
      "name": "getOffersCount",
      "outputs": [
        {
          "internalType": "uint256",
          "name": "count",
          "type": "uint256"
        }
      ],
      "stateMutability": "view",
      "type": "function"
    },
    {
      "inputs": [
        {
          "internalType": "address[]",
          "name": "_nftContracts",
          "type": "address[]"
        },
        {
          "internalType": "uint256",
          "name": "start",
          "type": "uint256"
        },
        {
          "internalType": "uint256",
          "name": "count",
          "type": "uint256"
        },
        {
          "internalType": "uint256",
          "name": "sortBy",
          "type": "uint256"
        },
        {
          "internalType": "bool",
          "name": "highToLow",
          "type": "bool"
        }
      ],
      "name": "getOffersWithFilter",
      "outputs": [
        {
          "internalType": "address[]",
          "name": "contracts",
          "type": "address[]"
        },
        {
          "internalType": "uint256[]",
          "name": "ids",
          "type": "uint256[]"
        },
        {
          "internalType": "uint256",
          "name": "totalCount",
          "type": "uint256"
        }
      ],
      "stateMutability": "view",
      "type": "function"
    },
    {
      "inputs": [],
      "name": "getPurgeCount",
      "outputs": [
        {
          "internalType": "uint256",
          "name": "countP",
          "type": "uint256"
        }
      ],
      "stateMutability": "view",
      "type": "function"
    },
    {
      "inputs": [
        {
          "internalType": "address",
          "name": "_nftContract",
          "type": "address"
        },
        {
          "internalType": "uint256",
          "name": "_nftId",
          "type": "uint256"
        },
        {
          "internalType": "address",
          "name": "_account",
          "type": "address"
        }
      ],
      "name": "getRarity",
      "outputs": [
        {
          "internalType": "uint256",
          "name": "currentRank",
          "type": "uint256"
        }
      ],
      "stateMutability": "view",
      "type": "function"
    },
    {
      "inputs": [
        {
          "components": [
            {
              "internalType": "uint256",
              "name": "nftId",
              "type": "uint256"
            },
            {
              "internalType": "contract IZenERC20",
              "name": "nftContract",
              "type": "address"
            },
            {
              "internalType": "address",
              "name": "seller",
              "type": "address"
            },
            {
              "internalType": "uint256",
              "name": "startPrice",
              "type": "uint256"
            },
            {
              "internalType": "uint256",
              "name": "instantBuyPrice",
              "type": "uint256"
            },
            {
              "internalType": "uint256",
              "name": "rarity",
              "type": "uint256"
            },
            {
              "internalType": "uint256",
              "name": "madeBlock",
              "type": "uint256"
            },
            {
              "internalType": "uint256",
              "name": "expiryBlock",
              "type": "uint256"
            }
          ],
          "internalType": "struct Marketplace.Offer",
          "name": "offer",
          "type": "tuple"
        }
      ],
      "name": "getShouldPurge",
      "outputs": [
        {
          "internalType": "bool",
          "name": "should",
          "type": "bool"
        },
        {
          "internalType": "bool",
          "name": "ownership",
          "type": "bool"
        },
        {
          "internalType": "bool",
          "name": "rank",
          "type": "bool"
        }
      ],
      "stateMutability": "view",
      "type": "function"
    },
    {
      "inputs": [
        {
          "internalType": "contract IZenERC20",
          "name": "_nftContract",
          "type": "address"
        }
      ],
      "name": "inWhitelist",
      "outputs": [
        {
          "internalType": "bool",
          "name": "",
          "type": "bool"
        }
      ],
      "stateMutability": "view",
      "type": "function"
    },
    {
      "inputs": [],
      "name": "massBidRefund",
      "outputs": [],
      "stateMutability": "nonpayable",
      "type": "function"
    },
    {
      "inputs": [
        {
          "internalType": "contract IZenERC20",
          "name": "_nftContract",
          "type": "address"
        },
        {
          "internalType": "uint256",
          "name": "_nftId",
          "type": "uint256"
        },
        {
          "internalType": "uint256",
          "name": "_startPrice",
          "type": "uint256"
        },
        {
          "internalType": "uint256",
          "name": "_instantBuyPrice",
          "type": "uint256"
        }
      ],
      "name": "offerNftForSale",
      "outputs": [],
      "stateMutability": "payable",
      "type": "function"
    },
    {
      "inputs": [
        {
          "internalType": "contract IZenERC20",
          "name": "",
          "type": "address"
        },
        {
          "internalType": "uint256",
          "name": "",
          "type": "uint256"
        }
      ],
      "name": "offers",
      "outputs": [
        {
          "internalType": "uint256",
          "name": "nftId",
          "type": "uint256"
        },
        {
          "internalType": "contract IZenERC20",
          "name": "nftContract",
          "type": "address"
        },
        {
          "internalType": "address",
          "name": "seller",
          "type": "address"
        },
        {
          "internalType": "uint256",
          "name": "startPrice",
          "type": "uint256"
        },
        {
          "internalType": "uint256",
          "name": "instantBuyPrice",
          "type": "uint256"
        },
        {
          "internalType": "uint256",
          "name": "rarity",
          "type": "uint256"
        },
        {
          "internalType": "uint256",
          "name": "madeBlock",
          "type": "uint256"
        },
        {
          "internalType": "uint256",
          "name": "expiryBlock",
          "type": "uint256"
        }
      ],
      "stateMutability": "view",
      "type": "function"
    },
    {
      "inputs": [],
      "name": "owner",
      "outputs": [
        {
          "internalType": "address",
          "name": "",
          "type": "address"
        }
      ],
      "stateMutability": "view",
      "type": "function"
    },
    {
      "inputs": [
        {
          "internalType": "contract IZenERC20",
          "name": "_nftContract",
          "type": "address"
        },
        {
          "internalType": "uint256",
          "name": "_nftId",
          "type": "uint256"
        }
      ],
      "name": "purgeOffer",
      "outputs": [],
      "stateMutability": "nonpayable",
      "type": "function"
    },
    {
      "inputs": [
        {
          "internalType": "contract IZenERC20",
          "name": "_nftContract",
          "type": "address"
        }
      ],
      "name": "removeFromWhite",
      "outputs": [],
      "stateMutability": "nonpayable",
      "type": "function"
    },
    {
      "inputs": [
        {
          "internalType": "contract IZenERC20",
          "name": "_nftContract",
          "type": "address"
        },
        {
          "internalType": "uint256",
          "name": "_nftId",
          "type": "uint256"
        }
      ],
      "name": "removeOffer",
      "outputs": [],
      "stateMutability": "nonpayable",
      "type": "function"
    },
    {
      "inputs": [],
      "name": "renounceOwnership",
      "outputs": [],
      "stateMutability": "nonpayable",
      "type": "function"
    },
    {
      "inputs": [
        {
          "internalType": "uint256",
          "name": "_bidCd",
          "type": "uint256"
        },
        {
          "internalType": "uint256",
          "name": "_maxOBlocks",
          "type": "uint256"
        }
      ],
      "name": "setCd",
      "outputs": [],
      "stateMutability": "nonpayable",
      "type": "function"
    },
    {
      "inputs": [
        {
          "internalType": "address",
          "name": "_helperAddr",
          "type": "address"
        }
      ],
      "name": "setHelperAddress",
      "outputs": [],
      "stateMutability": "nonpayable",
      "type": "function"
    },
    {
      "inputs": [
        {
          "internalType": "uint256",
          "name": "_listingFee",
          "type": "uint256"
        },
        {
          "internalType": "uint256",
          "name": "_buyingFee",
          "type": "uint256"
        },
        {
          "internalType": "uint256",
          "name": "_floor",
          "type": "uint256"
        },
        {
          "internalType": "uint256",
          "name": "_royalty",
          "type": "uint256"
        }
      ],
      "name": "setProtocolValues",
      "outputs": [],
      "stateMutability": "nonpayable",
      "type": "function"
    },
    {
      "inputs": [
        {
          "internalType": "address",
          "name": "newOwner",
          "type": "address"
        }
      ],
      "name": "transferOwnership",
      "outputs": [],
      "stateMutability": "nonpayable",
      "type": "function"
    },
    {
      "inputs": [],
      "name": "tryMassRefund",
      "outputs": [],
      "stateMutability": "nonpayable",
      "type": "function"
    },
    {
      "inputs": [
        {
          "internalType": "uint256",
          "name": "",
          "type": "uint256"
        }
      ],
      "name": "whitelist",
      "outputs": [
        {
          "internalType": "contract IZenERC20",
          "name": "",
          "type": "address"
        }
      ],
      "stateMutability": "view",
      "type": "function"
    },
    {
      "inputs": [
        {
          "internalType": "contract IZenERC20",
          "name": "_nftContract",
          "type": "address"
        },
        {
          "internalType": "uint256",
          "name": "_nftId",
          "type": "uint256"
        }
      ],
      "name": "withdrawBid",
      "outputs": [],
      "stateMutability": "nonpayable",
      "type": "function"
    },
    {
      "stateMutability": "payable",
      "type": "receive"
    }
  ],
  "bytecode": "0x60806040526001600c553480156200001657600080fd5b5060405162005fb638038062005fb68339810160408190526200003991620000e9565b620000443362000099565b600b80546001600160a01b0319166001600160a01b03929092169190911790556706f05b59d3b20000600455662386f26fc1000060015560c860025561012c600355610e10600555621a5e006006556200011b565b600080546001600160a01b038381166001600160a01b0319831681178455604051919092169283917f8be0079c531659141344cd1fd0a4f28419497f9722a3daafe3b4186f6b6457e09190a35050565b600060208284031215620000fc57600080fd5b81516001600160a01b03811681146200011457600080fd5b9392505050565b615e8b806200012b6000396000f3fe6080604052600436106102535760003560e01c80636c2c03ce11610138578063b47ed396116100b0578063e43252d711610077578063e43252d714610886578063e49c5a9b146108a6578063f19bf548146108c6578063f2fde38b14610906578063fa17cb0514610926578063fd7f171d1461093c57005b8063b47ed396146107e8578063bd0b0d16146107fd578063cfdfc81a1461081d578063dddda5f114610832578063e2aafa211461085657005b80638da5cb5b116100ff5780638da5cb5b146106a6578063955a5a76146106c4578063a83900b5146106e4578063aa1a8411146106f7578063ad9f20a6146107b2578063b1bff7b8146107c857005b80636c2c03ce14610611578063715018a6146106315780637aa6d9ce146106465780637b999fc8146106665780637ebd1b301461068657005b8063335477fc116101cb5780634cb8ef5b116101925780634cb8ef5b146105075780634ddf4f8f1461052757806353e0e62b1461053a57806355025c621461059c578063585a83cc146105db57806362704b4a146105f157005b8063335477fc1461046457806336b7e7191461047a5780633e0504571461048f57806342b4ef95146104af57806345b8049f146104e757005b806318d3ce961161021a57806318d3ce96146103aa578063207f20bf146103cc5780632671b0d8146103ec5780632bf68c47146104195780632f2e7b751461043957806332904f751461044e57005b806301495c1c1461025c5780630b5a15aa146103245780630b73f300146103535780630dc202ae14610366578063173e7ef01461038a57005b3661025a57005b005b34801561026857600080fd5b5061030b6102773660046155dd565b60086020818152600093845260408085208252928452928290208251610100810184528154815260018201546001600160a01b039081169582019590955260028201548516938101939093526003810154606084015260048101546080840152600581015460a0840152600681015460c0840152600781015460e0840152908101546009820154600a909201549293169184565b60405161031b9493929190615665565b60405180910390f35b34801561033057600080fd5b5061034461033f3660046156b4565b61096c565b60405161031b939291906157c5565b61025a6103613660046157fb565b610b94565b34801561037257600080fd5b5061037c60025481565b60405190815260200161031b565b34801561039657600080fd5b506103446103a5366004615836565b611202565b3480156103b657600080fd5b506103bf6113d3565b60405161031b9190615877565b3480156103d857600080fd5b5061025a6103e73660046155dd565b61149e565b3480156103f857600080fd5b5061040c610407366004615891565b611786565b60405161031b91906158ae565b34801561042557600080fd5b5061037c610434366004615891565b6117f2565b34801561044557600080fd5b5061037c61197e565b34801561045a57600080fd5b5061037c60055481565b34801561047057600080fd5b5061037c60035481565b34801561048657600080fd5b5061025a6119ed565b34801561049b57600080fd5b5061025a6104aa3660046155dd565b611b2b565b3480156104bb57600080fd5b50600b546104cf906001600160a01b031681565b6040516001600160a01b03909116815260200161031b565b3480156104f357600080fd5b5061037c6105023660046158c1565b611c8e565b34801561051357600080fd5b5061025a6105223660046155dd565b611d14565b61025a6105353660046155dd565b611f89565b34801561054657600080fd5b506105876105553660046155dd565b6001600160a01b0391909116600090815260076020818152604080842094845293905291902060068101549101549091565b6040805192835260208301919091520161031b565b3480156105a857600080fd5b506105bc6105b7366004615919565b6122a6565b604080519315158452911515602084015215159082015260600161031b565b3480156105e757600080fd5b5061037c60015481565b3480156105fd57600080fd5b5061037c61060c3660046155dd565b612371565b34801561061d57600080fd5b5061025a61062c3660046159c4565b6123a2565b34801561063d57600080fd5b5061025a6123d7565b34801561065257600080fd5b5061037c6106613660046155dd565b61240d565b34801561067257600080fd5b5061025a6106813660046159e6565b61264c565b34801561069257600080fd5b506104cf6106a1366004615a18565b61268a565b3480156106b257600080fd5b506000546001600160a01b03166104cf565b3480156106d057600080fd5b5061025a6106df3660046155dd565b6126b4565b61025a6106f23660046155dd565b612959565b34801561070357600080fd5b5061076b6107123660046155dd565b600760208181526000938452604080852090915291835291208054600182015460028301546003840154600485015460058601546006870154969097015494966001600160a01b03948516969490931694919390929188565b604080519889526001600160a01b0397881660208a015295909616948701949094526060860192909252608085015260a084015260c083015260e08201526101000161031b565b3480156107be57600080fd5b5061037c60045481565b3480156107d457600080fd5b5061025a6107e33660046155dd565b6130f2565b3480156107f457600080fd5b5061025a6132b3565b34801561080957600080fd5b5061025a610818366004615891565b61336a565b34801561082957600080fd5b5061037c6133f8565b34801561083e57600080fd5b506108476135ba565b60405161031b93929190615a31565b34801561086257600080fd5b50610876610871366004615891565b61388f565b604051901515815260200161031b565b34801561089257600080fd5b5061025a6108a1366004615891565b61390c565b3480156108b257600080fd5b5061025a6108c1366004615891565b613a7b565b3480156108d257600080fd5b506108e66108e13660046155dd565b613bdb565b60408051948552602085019390935291830152606082015260800161031b565b34801561091257600080fd5b5061025a610921366004615891565b613c66565b34801561093257600080fd5b5061037c60065481565b34801561094857600080fd5b5061095c6109573660046155dd565b613cfe565b60405161031b9493929190615a68565b6060806000808881816001600160401b0381111561098c5761098c615903565b6040519080825280602002602001820160405280156109b5578160200160208202803683370190505b50905060005b82811015610a26578c8c828181106109d5576109d5615ac0565b90506020020160208101906109ea9190615891565b8282815181106109fc576109fc615ac0565b6001600160a01b039092166020928302919091019091015280610a1e81615aec565b9150506109bb565b5060005b82811015610a9357600a6000838381518110610a4857610a48615ac0565b60200260200101516001600160a01b03166001600160a01b031681526020019081526020016000208054905084610a7f9190615b07565b935080610a8b81615aec565b915050610a2a565b5089158015610aa0575088155b15610aad57829850610aec565b828a10610aec5760405162461bcd60e51b81526020600482015260086024820152674e6f206974656d7360c01b60448201526064015b60405180910390fd5b6000610af9848484614055565b90508860011415610b1257610b0d81614287565b610b48565b8860021415610b2457610b0d816142aa565b8860031415610b3657610b0d816142cd565b8860041415610b4857610b48816142f0565b896000610b55828e615b07565b905085811115610b6e575084610b6b8d82615b1f565b91505b610b7c8d828885878f614313565b98509850985050505050505096509650969350505050565b600c54600114610bb65760405162461bcd60e51b8152600401610ae390615b36565b6000600c55836001600160a01b038116610be25760405162461bcd60e51b8152600401610ae390615b65565b60405163e2aafa2160e01b81526001600160a01b0382166004820152309063e2aafa2190602401602060405180830381865afa158015610c26573d6000803e3d6000fd5b505050506040513d601f19601f82011682018060405250810190610c4a9190615b92565b610c665760405162461bcd60e51b8152600401610ae390615baf565b333214610c855760405162461bcd60e51b8152600401610ae390615bdf565b6001543414610cd65760405162461bcd60e51b815260206004820152601860248201527f4e6f7420636f7272656374206c697374696e67206665652e00000000000000006044820152606401610ae3565b6001600160a01b0385811660009081526007602090815260408083208884529091529020600201541615610d3f5760405162461bcd60e51b815260206004820152601060248201526f416c7265616479206c6973746564202160801b6044820152606401610ae3565b69d3c21bcecceda100000083108015610d61575069d3c21bcecceda100000082105b610d9b5760405162461bcd60e51b815260206004820152600b60248201526a111bdb89dd08151c9bdb1b60aa1b6044820152606401610ae3565b6040516331a9108f60e11b8152600481018590526000906001600160a01b03871690636352211e90602401602060405180830381865afa158015610de3573d6000803e3d6000fd5b505050506040513d601f19601f82011682018060405250810190610e079190615bfc565b9050336001600160a01b03821614610e315760405162461bcd60e51b8152600401610ae390615c19565b6001600160a01b038116610e575760405162461bcd60e51b8152600401610ae390615c40565b600454841015610e965760405162461bcd60e51b815260206004820152600a6024820152694d696e2e20507269636560b01b6044820152606401610ae3565b83831015610f005760405162461bcd60e51b815260206004820152603160248201527f496e7374616e74204275792053686f756c6420626520626967676572207468616044820152706e2062696420737461727420707269636560781b6064820152608401610ae3565b6000610f0d878733611c8e565b9050306001600160a01b0316638da5cb5b6040518163ffffffff1660e01b8152600401602060405180830381865afa158015610f4d573d6000803e3d6000fd5b505050506040513d601f19601f82011682018060405250810190610f719190615bfc565b6001600160a01b03166108fc6001549081150290604051600060405180830381858888f19350505050158015610fab573d6000803e3d6000fd5b50600060065443610fbc9190615b07565b9050604051806101000160405280888152602001896001600160a01b03168152602001336001600160a01b0316815260200187815260200186815260200183815260200143815260200182815250600760008a6001600160a01b03166001600160a01b0316815260200190815260200160002060008981526020019081526020016000206000820151816000015560208201518160010160006101000a8154816001600160a01b0302191690836001600160a01b0316021790555060408201518160020160006101000a8154816001600160a01b0302191690836001600160a01b03160217905550606082015181600301556080820151816004015560a0820151816005015560c0820151816006015560e08201518160070155905050600a6000896001600160a01b03166001600160a01b031681526020019081526020016000208790806001815401808255809150506001900390600052602060002001600090919091909150557f81840ad4486d476584c4aff474dbc811dae8b1e76e356603178a66fb20dcb98c8888338989878760405161119c97969594939291906001600160a01b03978816815260208101969096529390951660408501526060840191909152608083015260a082019290925260c081019190915260e00190565b60405180910390a1600154604080516001600160a01b038b168152602081018a9052908101919091527f8165cd12b13fcffd9e1a34dfb781a18951998ee38df8b2443ff299d9ff127394906060015b60405180910390a150506001600c55505050505050565b606080600080600980548060200260200160405190810160405280929190818152602001828054801561125e57602002820191906000526020600020905b81546001600160a01b03168152600190910190602001808311611240575b50506009549394506000939250839150505b818110156112d957600a600085838151811061128e5761128e615ac0565b60200260200101516001600160a01b03166001600160a01b0316815260200190815260200160002080549050836112c59190615b07565b9250806112d181615aec565b915050611270565b50891580156112e6575088155b156112f35781985061132d565b818a1061132d5760405162461bcd60e51b81526020600482015260086024820152674e6f206974656d7360c01b6044820152606401610ae3565b600061133a838386614055565b905088600114156113535761134e81614287565b611389565b88600214156113655761134e816142aa565b88600314156113775761134e816142cd565b886004141561138957611389816142f0565b896000611396828e615b07565b9050848111156113af5750836113ac8d82615b1f565b91505b6113bd8d828785878f614313565b9850985098505050505050509450945094915050565b6009546060906000816001600160401b038111156113f3576113f3615903565b60405190808252806020026020018201604052801561141c578160200160208202803683370190505b50905060005b82811015611497576009818154811061143d5761143d615ac0565b9060005260206000200160009054906101000a90046001600160a01b031682828151811061146d5761146d615ac0565b6001600160a01b03909216602092830291909101909101528061148f81615aec565b915050611422565b5092915050565b600c546001146114c05760405162461bcd60e51b8152600401610ae390615b36565b6000600c81905550600060076000846001600160a01b03166001600160a01b03168152602001908152602001600020600083815260200190815260200160002060405180610100016040529081600082015481526020016001820160009054906101000a90046001600160a01b03166001600160a01b03166001600160a01b031681526020016002820160009054906101000a90046001600160a01b03166001600160a01b03166001600160a01b03168152602001600382015481526020016004820154815260200160058201548152602001600682015481526020016007820154815250509050600060086000856001600160a01b03166001600160a01b0316815260200190815260200160002060008481526020019081526020016000206040518060800160405290816000820160405180610100016040529081600082015481526020016001820160009054906101000a90046001600160a01b03166001600160a01b03166001600160a01b031681526020016002820160009054906101000a90046001600160a01b03166001600160a01b03166001600160a01b031681526020016003820154815260200160048201548152602001600582015481526020016006820154815260200160078201548152505081526020016008820160009054906101000a90046001600160a01b03166001600160a01b03166001600160a01b0316815260200160098201548152602001600a820154815250509050600081604001511161171d5760405162461bcd60e51b81526020600482015260076024820152664e6f206269647360c81b6044820152606401610ae3565b8160e001514310156117625760405162461bcd60e51b815260206004820152600e60248201526d4e6f742074696d6520796574202160901b6044820152606401610ae3565b61177b8484836040015185604001518560200151614549565b50506001600c555050565b6001600160a01b0381166000908152600a60209081526040918290208054835181840281018401909452808452606093928301828280156117e657602002820191906000526020600020905b8154815260200190600101908083116117d2575b50505050509050919050565b600954600090818061180261552a565b60005b848110156119745760006009828154811061182257611822615ac0565b60009182526020808320909101546001600160a01b0316808352600a9091526040822054965091505b8581101561195f576001600160a01b0382166000908152600a6020526040902080548290811061187d5761187d615ac0565b60009182526020808320909101546001600160a01b038086168452600880845260408086208487528552948590208551610180810187528154608082019081526001830154851660a08301526002830154851660c0830152600383015460e083015260048301546101008301526005830154610120830152600683015461014083015260078301546101608301528152918101548316948201859052600981015495820195909552600a909401546060850152909750919550908a16141561194d578761194981615aec565b9850505b8061195781615aec565b91505061184b565b5050808061196c90615aec565b915050611805565b5050505050919050565b600954600090815b818110156119e857600a6000600983815481106119a5576119a5615ac0565b60009182526020808320909101546001600160a01b031683528201929092526040019020546119d49084615b07565b9250806119e081615aec565b915050611986565b505090565b6000546001600160a01b03163314611a175760405162461bcd60e51b8152600401610ae390615c63565b60095460005b81811015611b27576000600a600060098481548110611a3e57611a3e615ac0565b60009182526020808320909101546001600160a01b0316835282019290925260400181205491505b81811015611b1257611aff60098481548110611a8457611a84615ac0565b9060005260206000200160009054906101000a90046001600160a01b0316600a600060098781548110611ab957611ab9615ac0565b60009182526020808320909101546001600160a01b031683528201929092526040019020805484908110611aef57611aef615ac0565b90600052602060002001546146b6565b5080611b0a81615aec565b915050611a66565b50508080611b1f90615aec565b915050611a1d565b5050565b6001600160a01b0380831660009081526007602081815260408084208685528252808420815161010081018352815481526001820154871693810193909352600281015490951682820152600385015460608301526004808601546080840152600586015460a0840152600686015460c0840152949092015460e08201529051632a812e3160e11b81529092829130916355025c6291611bcd91879101615c98565b606060405180830381865afa158015611bea573d6000803e3d6000fd5b505050506040513d601f19601f82011682018060405250810190611c0e9190615ca7565b50915091508115611c8757611c27836020015185614878565b611c358360200151856146b6565b50602083810151604080516001600160a01b0390921682529181018690528215158183015290517f62e59a4c653fbf4caa83189895c25913dad3f464ac8f19bfb85445f5e28e54cd9181900360600190a15b5050505050565b600b546040516345b8049f60e01b81526001600160a01b03858116600483015260248201859052838116604483015260009216906345b8049f90606401602060405180830381865afa158015611ce8573d6000803e3d6000fd5b505050506040513d601f19601f82011682018060405250810190611d0c9190615ce9565b949350505050565b600c54600114611d365760405162461bcd60e51b8152600401610ae390615b36565b6000600c8190556001600160a01b0380841682526008602081815260408085208686528252938490208451610180810186528154608082019081526001830154861660a08301526002830154861660c0830152600383015460e08301526004830154610100830152600583015461012083015260068301546101408301526007830154610160830152815292810154909316908201819052600983015493820193909352600a909101546060820152903314611e345760405162461bcd60e51b815260206004820152601760248201527f596f75277265206e6f74207468652062696464657220210000000000000000006044820152606401610ae3565b6005548160600151611e469190615b07565b431015611e8c5760405162461bcd60e51b815260206004820152601460248201527343616e277420776974686472617720796574202160601b6044820152606401610ae3565b6001600160a01b03831660009081526008602081815260408084208685529091528083208381556001810180546001600160a01b0319908116909155600282018054821690556003820185905560048201859055600582018590556006820185905560078201859055928101805490931690925560098201839055600a909101829055828101519051339282156108fc02929190818181858888f19350505050158015611f3d573d6000803e3d6000fd5b507fb97f2938c66285abf4376477c7f52878d10ab15ffa46724f8dd44f1da7591ef08383338460400151604051611f779493929190615d02565b60405180910390a150506001600c5550565b600c54600114611fab5760405162461bcd60e51b8152600401610ae390615b36565b6000600c55333214611fcf5760405162461bcd60e51b8152600401610ae390615bdf565b6001600160a01b03808316600090815260076020818152604080842086855282529283902083516101008101855281548152600182015486169281019290925260028101549094169281018390526003840154606082015260048401546080820152600584015460a0820152600684015460c082015292015460e083015233141561209c5760405162461bcd60e51b815260206004820152601760248201527f43616e742062757920796f7572206f776e206f666665720000000000000000006044820152606401610ae3565b600b54604051634d18425d60e01b81526001600160a01b038581166004830152602482018590523360448301526000921690634d18425d90606401602060405180830381865afa1580156120f4573d6000803e3d6000fd5b505050506040513d601f19601f820116820180604052508101906121189190615b92565b9050806121375760405162461bcd60e51b8152600401610ae390615d2c565b604051631e337ea960e31b81526001600160a01b038516600482015260248101849052600090819081908190309063f19bf54890604401608060405180830381865afa15801561218b573d6000803e3d6000fd5b505050506040513d601f19601f820116820180604052508101906121af9190615d7e565b93509350935093508234146122065760405162461bcd60e51b815260206004820152601a60248201527f4e6f7420657861637420696e7374616e744275792070726963650000000000006044820152606401610ae3565b612218888884848a60400151336149cd565b85604001516001600160a01b03166108fc859081150290604051600060405180830381858888f19350505050158015612255573d6000803e3d6000fd5b506122608888614878565b61226a88886146b6565b507f55947ae8bf53e071c77f5da094b53991f2a70d01960a06b5e2bf5187cf0466178888886040015133346040516111eb959493929190615db4565b600080600083602001516001600160a01b0316636352211e85600001516040518263ffffffff1660e01b81526004016122e191815260200190565b602060405180830381865afa92505050801561231a575060408051601f3d908101601f1916820190925261231791810190615bfc565b60015b61232d575060019150819050600061236a565b6040850151602086015186516001600160a01b038381169085161415955061235492611c8e565b8560a001511415915082806123665750815b9350505b9193909250565b600a602052816000526040600020818154811061238d57600080fd5b90600052602060002001600091509150505481565b6000546001600160a01b031633146123cc5760405162461bcd60e51b8152600401610ae390615c63565b600591909155600655565b6000546001600160a01b031633146124015760405162461bcd60e51b8152600401610ae390615c63565b61240b6000614cdb565b565b60008060076000856001600160a01b03166001600160a01b03168152602001908152602001600020600084815260200190815260200160002060405180610100016040529081600082015481526020016001820160009054906101000a90046001600160a01b03166001600160a01b03166001600160a01b031681526020016002820160009054906101000a90046001600160a01b03166001600160a01b03166001600160a01b03168152602001600382015481526020016004820154815260200160058201548152602001600682015481526020016007820154815250509050600060086000866001600160a01b03166001600160a01b0316815260200190815260200160002060008581526020019081526020016000206040518060800160405290816000820160405180610100016040529081600082015481526020016001820160009054906101000a90046001600160a01b03166001600160a01b03166001600160a01b031681526020016002820160009054906101000a90046001600160a01b03166001600160a01b03166001600160a01b031681526020016003820154815260200160048201548152602001600582015481526020016006820154815260200160078201548152505081526020016008820160009054906101000a90046001600160a01b03166001600160a01b03166001600160a01b0316815260200160098201548152602001600a82015481525050905080604001516000141561263e5750606001519050612646565b604001519150505b92915050565b6000546001600160a01b031633146126765760405162461bcd60e51b8152600401610ae390615c63565b600193909355600291909155600455600355565b6009818154811061269a57600080fd5b6000918252602090912001546001600160a01b0316905081565b600c546001146126d65760405162461bcd60e51b8152600401610ae390615b36565b6000600c8190556001600160a01b03808416825260076020818152604080852086865282529384902084516101008101865281548152600182015485169281019290925260028101549093169381018490526003830154606082015260048301546080820152600583015460a0820152600683015460c082015291015460e082015290331461279a5760405162461bcd60e51b815260206004820152601060248201526f4e6f7420796f7572206f66666572202160801b6044820152606401610ae3565b6040516331a9108f60e11b8152600481018390526000906001600160a01b03851690636352211e90602401602060405180830381865afa1580156127e2573d6000803e3d6000fd5b505050506040513d601f19601f820116820180604052508101906128069190615bfc565b90506001600160a01b03811661282e5760405162461bcd60e51b8152600401610ae390615c40565b336001600160a01b038216146128565760405162461bcd60e51b8152600401610ae390615c19565b6001600160a01b0380851660009081526008602081815260408084208885528252928390208351610180810185528154608082019081526001830154871660a08301526002830154871660c0830152600383015460e08301526004830154610100830152600583015461012083015260068301546101408301526007830154610160830152815292810154909416908201526009830154918101829052600a9092015460608301526129345760405162461bcd60e51b81526020600482015260076024820152664e6f206269647360c81b6044820152606401610ae3565b61294d8585836040015186604001518560200151614549565b50506001600c55505050565b600c5460011461297b5760405162461bcd60e51b8152600401610ae390615b36565b6000600c5560045434116129bc5760405162461bcd60e51b81526020600482015260086024820152674e6f2076616c756560c01b6044820152606401610ae3565b69d3c21bcecceda10000003410612a0b5760405162461bcd60e51b81526020600482015260136024820152724552524f525f544f4f5f4d5543485f464f4d4f60681b6044820152606401610ae3565b333214612a2a5760405162461bcd60e51b8152600401610ae390615bdf565b600060076000846001600160a01b03166001600160a01b03168152602001908152602001600020600083815260200190815260200160002060405180610100016040529081600082015481526020016001820160009054906101000a90046001600160a01b03166001600160a01b03166001600160a01b031681526020016002820160009054906101000a90046001600160a01b03166001600160a01b03166001600160a01b03168152602001600382015481526020016004820154815260200160058201548152602001600682015481526020016007820154815250509050600060086000856001600160a01b03166001600160a01b0316815260200190815260200160002060008481526020019081526020016000206040518060800160405290816000820160405180610100016040529081600082015481526020016001820160009054906101000a90046001600160a01b03166001600160a01b03166001600160a01b031681526020016002820160009054906101000a90046001600160a01b03166001600160a01b03166001600160a01b031681526020016003820154815260200160048201548152602001600582015481526020016006820154815260200160078201548152505081526020016008820160009054906101000a90046001600160a01b03166001600160a01b03166001600160a01b0316815260200160098201548152602001600a820154815250509050306001600160a01b0316637aa6d9ce85856040518363ffffffff1660e01b8152600401612c839291906001600160a01b03929092168252602082015260400190565b602060405180830381865afa158015612ca0573d6000803e3d6000fd5b505050506040513d601f19601f82011682018060405250810190612cc49190615ce9565b3411612d225760405162461bcd60e51b815260206004820152602760248201527f4c657373207468616e2063757272656e7420626964206f72207374617274696e6044820152666720707269636560c81b6064820152608401610ae3565b60408201516001600160a01b0316331415612d7f5760405162461bcd60e51b815260206004820152601960248201527f43616e7420626964206f6e20796f7572206f66666572732021000000000000006044820152606401610ae3565b600b54604051634d18425d60e01b81526001600160a01b038681166004830152602482018690523360448301526000921690634d18425d90606401602060405180830381865afa158015612dd7573d6000803e3d6000fd5b505050506040513d601f19601f82011682018060405250810190612dfb9190615b92565b905080612e1a5760405162461bcd60e51b8152600401610ae390615d2c565b60208201516001600160a01b031615612eb55781602001516001600160a01b03166108fc83604001519081150290604051600060405180830381858888f19350505050158015612e6e573d6000803e3d6000fd5b507f45751971a4d14bc4cd653a41eb84cff467a04fd5311450db55257120987005f7858584602001518560400151604051612eac9493929190615d02565b60405180910390a15b6001600160a01b0385811660008181526008602081815260408084208a855282529283902091820180546001600160a01b03191633908117909155346009840181905543600a90940193909355878201518885015185519687529286018b9052909516928401929092526060830193909352608082015260a08101919091527f5b6a1c68ce7f86432ddd517d8d41843d075332774eaf29f72c0ffd66371c77539060c00160405180910390a1608083015134811161300e57612f7e868683876040015133614549565b7f55947ae8bf53e071c77f5da094b53991f2a70d01960a06b5e2bf5187cf046617868686604001513385604051612fb9959493929190615db4565b60405180910390a16000612fcd8234615b1f565b905061271081111561300857604051339082156108fc029083906000818181858888f19350505050158015613006573d6000803e3d6000fd5b505b506130e5565b60006006548560c001516130229190615b07565b61302e90611c20615b07565b60e086015190915060c890613044908290615b1f565b4310158015613062575081818760e0015161305f9190615b07565b11155b156130e257808660e001516130779190615b07565b6001600160a01b03891660008181526007602081815260408084208d8552825292839020909101849055815192835282018a9052810191909152606081018290527f62b1bf6f41df6f6a52a876009ee910016463cc1cf466121fd70ba408e0529a53906080016111eb565b50505b50506001600c5550505050565b600c546001146131145760405162461bcd60e51b8152600401610ae390615b36565b6000600c55816001600160a01b0381166131405760405162461bcd60e51b8152600401610ae390615b65565b60405163e2aafa2160e01b81526001600160a01b0382166004820152309063e2aafa2190602401602060405180830381865afa158015613184573d6000803e3d6000fd5b505050506040513d601f19601f820116820180604052508101906131a89190615b92565b6131c45760405162461bcd60e51b8152600401610ae390615baf565b3332146131e35760405162461bcd60e51b8152600401610ae390615bdf565b6040516331a9108f60e11b8152600481018390526000906001600160a01b03851690636352211e90602401602060405180830381865afa15801561322b573d6000803e3d6000fd5b505050506040513d601f19601f8201168201806040525081019061324f9190615bfc565b90506001600160a01b0381166132775760405162461bcd60e51b8152600401610ae390615c40565b336001600160a01b0382161461329f5760405162461bcd60e51b8152600401610ae390615c19565b6132a98484614878565b61294d84846146b6565b6000546001600160a01b031633146132dd5760405162461bcd60e51b8152600401610ae390615c63565b306001600160a01b03166336b7e7196040518163ffffffff1660e01b8152600401600060405180830381600087803b15801561331857600080fd5b505af1925050508015613329575060015b61240b57600080546040516001600160a01b03909116914780156108fc02929091818181858888f19350505050158015613367573d6000803e3d6000fd5b50565b6000546001600160a01b031633146133945760405162461bcd60e51b8152600401610ae390615c63565b6001600160a01b0381166133d65760405162461bcd60e51b81526020600482015260096024820152682d32b9379020b2323960b91b6044820152606401610ae3565b600b80546001600160a01b0319166001600160a01b0392909216919091179055565b600080600080613406615561565b60005b6009548110156135b05760006009828154811061342857613428615ac0565b60009182526020808320909101546001600160a01b0316808352600a9091526040822054965091505b8581101561359b576001600160a01b0382166000908152600a6020526040902080548290811061348357613483615ac0565b60009182526020808320909101546001600160a01b038086168452600780845260408086208487528552808620815161010081018352815481526001820154851696810196909652600281015490931685820152600383015460608601526004808401546080870152600584015460a0870152600684015460c0870152929091015460e085015251632a812e3160e11b815291985091965030916355025c629161352f91899101615c98565b606060405180830381865afa15801561354c573d6000803e3d6000fd5b505050506040513d601f19601f820116820180604052508101906135709190615ca7565b505090508015613588578761358481615aec565b9850505b508061359381615aec565b915050613451565b505080806135a890615aec565b915050613409565b5092949350505050565b600060608060006135c96133f8565b9050806135f15750506040805160008082526020820181815282840190935294909350909150565b6000816001600160401b0381111561360b5761360b615903565b604051908082528060200260200182016040528015613634578160200160208202803683370190505b5090506000826001600160401b0381111561365157613651615903565b60405190808252806020026020018201604052801561367a578160200160208202803683370190505b5090506000805b600954811015613881576000600982815481106136a0576136a0615ac0565b60009182526020808320909101546001600160a01b0316808352600a9091526040822054909250905b8181101561386b576001600160a01b0383166000908152600a602052604081208054839081106136fb576136fb615ac0565b60009182526020808320909101546001600160a01b038088168452600780845260408086208487528552808620815161010081018352815481526001820154851696810196909652600281015490931685820152600383015460608601526004808401546080870152600584015460a0870152600684015460c0870152929091015460e085015251632a812e3160e11b815291945091929130916355025c62916137a791869101615c98565b606060405180830381865afa1580156137c4573d6000803e3d6000fd5b505050506040513d601f19601f820116820180604052508101906137e89190615ca7565b5050905080156138555781602001518a898151811061380957613809615ac0565b60200260200101906001600160a01b031690816001600160a01b0316815250508289898151811061383c5761383c615ac0565b60209081029190910101528761385181615aec565b9850505b505050808061386390615aec565b9150506136c9565b505050808061387990615aec565b915050613681565b501515969195509350915050565b600954600090806138a35750600092915050565b60005b8181101561390257836001600160a01b0316600982815481106138cb576138cb615ac0565b6000918252602090912001546001600160a01b031614156138f0575060019392505050565b806138fa81615aec565b9150506138a6565b5060009392505050565b6000546001600160a01b031633146139365760405162461bcd60e51b8152600401610ae390615c63565b61393f8161388f565b156139835760405162461bcd60e51b8152602060048201526014602482015273105b1c9958591e481a5b881dda1a5d195b1a5cdd60621b6044820152606401610ae3565b6009546000805b82811015613a245760006001600160a01b0316600982815481106139b0576139b0615ac0565b6000918252602090912001546001600160a01b03161415613a125783600982815481106139df576139df615ac0565b9060005260206000200160006101000a8154816001600160a01b0302191690836001600160a01b03160217905550600191505b80613a1c81615aec565b91505061398a565b5080613a7657600980546001810182556000919091527f6e1540171b6c0c960b71a7020d9f60077f6af931a8bbf590da0223dacf75c7af0180546001600160a01b0319166001600160a01b0385161790555b505050565b6000546001600160a01b03163314613aa55760405162461bcd60e51b8152600401610ae390615c63565b806001600160a01b038116613acc5760405162461bcd60e51b8152600401610ae390615b65565b60405163e2aafa2160e01b81526001600160a01b0382166004820152309063e2aafa2190602401602060405180830381865afa158015613b10573d6000803e3d6000fd5b505050506040513d601f19601f82011682018060405250810190613b349190615b92565b613b505760405162461bcd60e51b8152600401610ae390615baf565b60095460005b81811015613bd557836001600160a01b031660098381548110613b7b57613b7b615ac0565b6000918252602090912001546001600160a01b03161415613bc35760098281548110613ba957613ba9615ac0565b600091825260209091200180546001600160a01b03191690555b80613bcd81615aec565b915050613b56565b50505050565b6001600160a01b03821660009081526007602090815260408083208484529091528120600401546002548291829182919061271090613c1a9083615de7565b613c249190615e06565b925061271060035482613c379190615de7565b613c419190615e06565b915082613c4e8383615b1f565b613c589190615b1f565b945092505b92959194509250565b6000546001600160a01b03163314613c905760405162461bcd60e51b8152600401610ae390615c63565b6001600160a01b038116613cf55760405162461bcd60e51b815260206004820152602660248201527f4f776e61626c653a206e6577206f776e657220697320746865207a65726f206160448201526564647265737360d01b6064820152608401610ae3565b61336781614cdb565b606080808084613d1457613d11866117f2565b94505b846001600160401b03811115613d2c57613d2c615903565b604051908082528060200260200182016040528015613d55578160200160208202803683370190505b509350846001600160401b03811115613d7057613d70615903565b604051908082528060200260200182016040528015613d99578160200160208202803683370190505b509250846001600160401b03811115613db457613db4615903565b604051908082528060200260200182016040528015613ddd578160200160208202803683370190505b509150846001600160401b03811115613df857613df8615903565b604051908082528060200260200182016040528015613e21578160200160208202803683370190505b50905084613e2e57613c5d565b600954600080613e3c61552a565b6000805b8581101561404657600060098281548110613e5d57613e5d615ac0565b60009182526020808320909101546001600160a01b0316808352600a9091526040822054975091505b86811015614031576001600160a01b0382166000908152600a60205260409020805482908110613eb857613eb8615ac0565b60009182526020808320909101546001600160a01b038086168452600880845260408086208487528552948590208551610180810187528154608082019081526001830154851660a08301526002830154851660c0830152600383015460e083015260048301546101008301526005830154610120830152600683015461014083015260078301546101608301528152918101548316948201859052600981015495820195909552600a909401546060850152909850919650908f16141561401f57818c8581518110613f8d57613f8d615ac0565b60200260200101906001600160a01b031690816001600160a01b031681525050858b8581518110613fc057613fc0615ac0565b60200260200101818152505084604001518a8581518110613fe357613fe3615ac0565b602002602001018181525050846060015189858151811061400657614006615ac0565b60209081029190910101528361401b81615aec565b9450505b8061402981615aec565b915050613e86565b5050808061403e90615aec565b915050613e40565b50505050505092959194509250565b60606000846001600160401b0381111561407157614071615903565b6040519080825280602002602001820160405280156140e457816020015b6140d16040518060c001604052806000815260200160006001600160a01b03168152602001600081526020016000815260200160008152602001600081525090565b81526020019060019003908161408f5790505b5090506000805b8581101561427c57600085828151811061410757614107615ac0565b6020908102919091018101516001600160a01b0381166000908152600a9092526040822054909250905b81811015614266576001600160a01b0383166000908152600a6020526040812080548390811061416357614163615ac0565b60009182526020808320909101546001600160a01b0387168352600882526040808420828552909252912060090154909150806141c357506001600160a01b03841660009081526007602090815260408083208484529091529020600301545b6040805160c0810182528381526001600160a01b03871660208083018290526000918252600781528382208683528082528483206006810154958501959095526060840186905260048501546080850152918690525260059091015460a0820152885189908990811061423857614238615ac0565b6020026020010181905250868061424e90615aec565b9750505050808061425e90615aec565b915050614131565b505050808061427490615aec565b9150506140eb565b509095945050505050565b60018151111561336757613367816000600184516142a59190615b1f565b614d2b565b60018151111561336757613367816000600184516142c89190615b1f565b614eb4565b60018151111561336757613367816000600184516142eb9190615b1f565b615035565b600181511115613367576133678160006001845161430e9190615b1f565b6151b6565b606080600080866001600160401b0381111561433157614331615903565b60405190808252806020026020018201604052801561435a578160200160208202803683370190505b5090506000876001600160401b0381111561437757614377615903565b6040519080825280602002602001820160405280156143a0578160200160208202803683370190505b509050600086156144815760008c5b8c81101561447a5760016143c3828e615b1f565b6143cd9190615b1f565b91508982815181106143e1576143e1615ac0565b6020026020010151602001518584815181106143ff576143ff615ac0565b60200260200101906001600160a01b031690816001600160a01b03168152505089828151811061443157614431615ac0565b60200260200101516000015184848151811061444f5761444f615ac0565b60209081029190910101528261446481615aec565b935050808061447290615aec565b9150506143af565b5050614538565b8b5b8b8110156145365788818151811061449d5761449d615ac0565b6020026020010151602001518483815181106144bb576144bb615ac0565b60200260200101906001600160a01b031690816001600160a01b0316815250508881815181106144ed576144ed615ac0565b60200260200101516000015183838151811061450b5761450b615ac0565b60209081029190910101528161452081615aec565b925050808061452e90615aec565b915050614483565b505b50909a909950969750505050505050565b60006127106002548561455c9190615de7565b6145669190615e06565b905060006127106003548661457b9190615de7565b6145859190615e06565b90506000826145948388615b1f565b61459e9190615b1f565b90506145aa8888614878565b6001600160a01b03881660009081526008602081815260408084208b855290915282208281556001810180546001600160a01b0319908116909155600282018054821690556003820184905560048201849055600582018490556006820184905560078201849055918101805490921690915560098101829055600a01556146368888858589896149cd565b6040516001600160a01b0386169082156108fc029083906000818181858888f1935050505015801561466c573d6000803e3d6000fd5b507f181d08e60edee610c82cd6c3ebb5e7af94e41228a430c2c0f69d8f265307b3ef888887878a6040516146a4959493929190615db4565b60405180910390a15050505050505050565b6001600160a01b03808316600090815260086020818152604080842086855282528084208151610180810183528154608082019081526001830154881660a08301526002830154881660c0830152600383015460e08301526004830154610100830152600583015461012083015260068301546101408301526007830154610160830152815293810154909516918301919091526009840154908201819052600a9093015460608201529091156139025780602001516001600160a01b03166108fc82604001519081150290604051600060405180830381858888f193505050501580156147a8573d6000803e3d6000fd5b506001600160a01b038416600090815260086020818152604080842087855282528084208481556001810180546001600160a01b0319908116909155600282018054821690556003820186905560048201869055600582018690556006820186905560078201869055938101805490941690935560098301849055600a90920192909255908201518282015191517f45751971a4d14bc4cd653a41eb84cff467a04fd5311450db55257120987005f792614866928892889290615d02565b60405180910390a16001915050612646565b6001600160a01b03808316600090815260076020818152604080842086855280835281852082516101008101845281548152600182018054808a16838801526002840180549a8b16968401969096526003840180546060850152600485018054608086015260058601805460a087015260068701805460c08801529a8701805460e08801528e8d5297909952948a90556001600160a01b0319918216909255909816909355958590559484905590839055908290559181905561493b8484615337565b9050806149825760405162461bcd60e51b81526020600482015260156024820152747761736e27742061626c6520746f2072656d6f766560581b6044820152606401610ae3565b7f3aa5c97676d9580aa4a2b893dc7d78c46012a05a79bee3ce93358f8ef83d905c8484846040015185606001516040516149bf9493929190615d02565b60405180910390a150505050565b604051630b6e243f60e31b81526004810186905286906000906001600160a01b03831690635b7121f890602401602060405180830381865afa158015614a17573d6000803e3d6000fd5b505050506040513d601f19601f82011682018060405250810190614a3b9190615bfc565b6040519091506001600160a01b0382169086156108fc029087906000818181858888f19350505050158015614a74573d6000803e3d6000fd5b50306001600160a01b0316638da5cb5b6040518163ffffffff1660e01b8152600401602060405180830381865afa158015614ab3573d6000803e3d6000fd5b505050506040513d601f19601f82011682018060405250810190614ad79190615bfc565b6001600160a01b03166108fc879081150290604051600060405180830381858888f19350505050158015614b0f573d6000803e3d6000fd5b50604051635e786ec760e11b81526001600160a01b03858116600483015284811660248301526044820189905283169063bcf0dd8e90606401600060405180830381600087803b158015614b6257600080fd5b505af1158015614b76573d6000803e3d6000fd5b50506040516331a9108f60e11b8152600481018a9052600092506001600160a01b0385169150636352211e90602401602060405180830381865afa158015614bc2573d6000803e3d6000fd5b505050506040513d601f19601f82011682018060405250810190614be69190615bfc565b9050836001600160a01b0316816001600160a01b031614614c495760405162461bcd60e51b815260206004820152601c60248201527f4275796572206469646e2774207265636569766520686973204e4654000000006044820152606401610ae3565b604080516001600160a01b038b168152602081018a90529081018890527f8165cd12b13fcffd9e1a34dfb781a18951998ee38df8b2443ff299d9ff1273949060600160405180910390a17f7be3a4f0550368bc0632dd1af361487f8e6e45559df528ce9c00f9f2929ef7c989898489604051614cc89493929190615d02565b60405180910390a1505050505050505050565b600080546001600160a01b038381166001600160a01b0319831681178455604051919092169283917f8be0079c531659141344cd1fd0a4f28419497f9722a3daafe3b4186f6b6457e09190a35050565b80821015613a76576000836002614d428486615b07565b614d4c9190615e06565b81518110614d5c57614d5c615ac0565b602090810291909101015160400151905082825b82868381518110614d8357614d83615ac0565b6020026020010151604001511015614da75781614d9f81615aec565b925050614d70565b82868281518110614dba57614dba615ac0565b6020026020010151604001511115614dde5780614dd681615e28565b915050614da7565b808210614dea57614e79565b858181518110614dfc57614dfc615ac0565b6020026020010151868381518110614e1657614e16615ac0565b6020026020010151878481518110614e3057614e30615ac0565b60200260200101888481518110614e4957614e49615ac0565b6020026020010182905282905250508180614e6390615aec565b9250508080614e7190615e28565b915050614d70565b80851015614e8c57614e8c868683614d2b565b80614e9681615aec565b91505083811015614eac57614eac868286614d2b565b505050505050565b80821015613a76576000836002614ecb8486615b07565b614ed59190615e06565b81518110614ee557614ee5615ac0565b602090810291909101015160600151905082825b82868381518110614f0c57614f0c615ac0565b6020026020010151606001511015614f305781614f2881615aec565b925050614ef9565b82868281518110614f4357614f43615ac0565b6020026020010151606001511115614f675780614f5f81615e28565b915050614f30565b808210614f7357615002565b858181518110614f8557614f85615ac0565b6020026020010151868381518110614f9f57614f9f615ac0565b6020026020010151878481518110614fb957614fb9615ac0565b60200260200101888481518110614fd257614fd2615ac0565b6020026020010182905282905250508180614fec90615aec565b9250508080614ffa90615e28565b915050614ef9565b8085101561501557615015868683614eb4565b8061501f81615aec565b91505083811015614eac57614eac868286614eb4565b80821015613a7657600083600261504c8486615b07565b6150569190615e06565b8151811061506657615066615ac0565b602090810291909101015160800151905082825b8286838151811061508d5761508d615ac0565b60200260200101516080015110156150b157816150a981615aec565b92505061507a565b828682815181106150c4576150c4615ac0565b60200260200101516080015111156150e857806150e081615e28565b9150506150b1565b8082106150f457615183565b85818151811061510657615106615ac0565b602002602001015186838151811061512057615120615ac0565b602002602001015187848151811061513a5761513a615ac0565b6020026020010188848151811061515357615153615ac0565b602002602001018290528290525050818061516d90615aec565b925050808061517b90615e28565b91505061507a565b8085101561519657615196868683615035565b806151a081615aec565b91505083811015614eac57614eac868286615035565b80821015613a765760008360026151cd8486615b07565b6151d79190615e06565b815181106151e7576151e7615ac0565b602090810291909101015160a00151905082825b8286838151811061520e5761520e615ac0565b602002602001015160a001511015615232578161522a81615aec565b9250506151fb565b8286828151811061524557615245615ac0565b602002602001015160a001511115615269578061526181615e28565b915050615232565b80821061527557615304565b85818151811061528757615287615ac0565b60200260200101518683815181106152a1576152a1615ac0565b60200260200101518784815181106152bb576152bb615ac0565b602002602001018884815181106152d4576152d4615ac0565b60200260200101829052829052505081806152ee90615aec565b92505080806152fc90615e28565b9150506151fb565b80851015615317576153178686836151b6565b8061532181615aec565b91505083811015614eac57614eac8682866151b6565b6001600160a01b0382166000908152600a60205260408120548061535f576000915050612646565b6001600160a01b0384166000908152600a602052604090208390615384600184615b1f565b8154811061539457615394615ac0565b906000526020600020015414156153ec576001600160a01b0384166000908152600a602052604090208054806153cc576153cc615e3f565b600190038181906000526020600020016000905590556001915050612646565b6000805b6153fb600184615b1f565b8110156154de576001600160a01b0386166000908152600a6020526040902080548691908390811061542f5761542f615ac0565b9060005260206000200154141561544557600191505b81156154cc576001600160a01b0386166000908152600a6020526040902061546e826001615b07565b8154811061547e5761547e615ac0565b9060005260206000200154600a6000886001600160a01b03166001600160a01b0316815260200190815260200160002082815481106154bf576154bf615ac0565b6000918252602090912001555b806154d681615aec565b9150506153f0565b508015611d0c576001600160a01b0385166000908152600a6020526040902080548061550c5761550c615e3f565b60019003818190600052602060002001600090559055949350505050565b604051806080016040528061553d615561565b815260200160006001600160a01b0316815260200160008152602001600081525090565b6040518061010001604052806000815260200160006001600160a01b0316815260200160006001600160a01b0316815260200160008152602001600081526020016000815260200160008152602001600081525090565b6001600160a01b038116811461336757600080fd5b80356155d8816155b8565b919050565b600080604083850312156155f057600080fd5b82356155fb816155b8565b946020939093013593505050565b80518252602081015160018060a01b0380821660208501528060408401511660408501525050606081015160608301526080810151608083015260a081015160a083015260c081015160c083015260e081015160e08301525050565b61016081016156748287615609565b6001600160a01b039490941661010082015261012081019290925261014090910152919050565b801515811461336757600080fd5b80356155d88161569b565b60008060008060008060a087890312156156cd57600080fd5b86356001600160401b03808211156156e457600080fd5b818901915089601f8301126156f857600080fd5b81358181111561570757600080fd5b8a60208260051b850101111561571c57600080fd5b6020928301985096505087013593506040870135925060608701359150615745608088016156a9565b90509295509295509295565b600081518084526020808501945080840160005b8381101561578a5781516001600160a01b031687529582019590820190600101615765565b509495945050505050565b600081518084526020808501945080840160005b8381101561578a578151875295820195908201906001016157a9565b6060815260006157d86060830186615751565b82810360208401526157ea8186615795565b915050826040830152949350505050565b6000806000806080858703121561581157600080fd5b843561581c816155b8565b966020860135965060408601359560600135945092505050565b6000806000806080858703121561584c57600080fd5b843593506020850135925060408501359150606085013561586c8161569b565b939692955090935050565b60208152600061588a6020830184615751565b9392505050565b6000602082840312156158a357600080fd5b813561588a816155b8565b60208152600061588a6020830184615795565b6000806000606084860312156158d657600080fd5b83356158e1816155b8565b92506020840135915060408401356158f8816155b8565b809150509250925092565b634e487b7160e01b600052604160045260246000fd5b600061010080838503121561592d57600080fd5b604051908101906001600160401b038211818310171561595d57634e487b7160e01b600052604160045260246000fd5b8160405283358152615971602085016155cd565b6020820152615982604085016155cd565b6040820152606084013560608201526080840135608082015260a084013560a082015260c084013560c082015260e084013560e0820152809250505092915050565b600080604083850312156159d757600080fd5b50508035926020909101359150565b600080600080608085870312156159fc57600080fd5b5050823594602084013594506040840135936060013592509050565b600060208284031215615a2a57600080fd5b5035919050565b8315158152606060208201526000615a4c6060830185615751565b8281036040840152615a5e8185615795565b9695505050505050565b608081526000615a7b6080830187615751565b8281036020840152615a8d8187615795565b90508281036040840152615aa18186615795565b90508281036060840152615ab58185615795565b979650505050505050565b634e487b7160e01b600052603260045260246000fd5b634e487b7160e01b600052601160045260246000fd5b6000600019821415615b0057615b00615ad6565b5060010190565b60008219821115615b1a57615b1a615ad6565b500190565b600082821015615b3157615b31615ad6565b500390565b60208082526015908201527411549493d48e88105b9d1a4b5499595b9d1c985b9d605a1b604082015260600190565b6020808252601390820152724552524f523a205a65726f206164647265737360681b604082015260600190565b600060208284031215615ba457600080fd5b815161588a8161569b565b60208082526016908201527511549493d48e88139bdd0815da1a5d195b1a5cdd195960521b604082015260600190565b602080825260039082015262454f4160e81b604082015260600190565b600060208284031215615c0e57600080fd5b815161588a816155b8565b6020808252600d908201526c2737ba1027232a1027bbb732b960991b604082015260600190565b60208082526009908201526830206164647265737360b81b604082015260600190565b6020808252818101527f4f776e61626c653a2063616c6c6572206973206e6f7420746865206f776e6572604082015260600190565b61010081016126468284615609565b600080600060608486031215615cbc57600080fd5b8351615cc78161569b565b6020850151909350615cd88161569b565b60408501519092506158f88161569b565b600060208284031215615cfb57600080fd5b5051919050565b6001600160a01b039485168152602081019390935292166040820152606081019190915260800190565b60208082526032908201527f596f7572206163636f756e742063616e74206f776e20616e79206d6f7265206e604082015271667473206f6620746869732074797065202160701b606082015260800190565b60008060008060808587031215615d9457600080fd5b505082516020840151604085015160609095015191969095509092509050565b6001600160a01b039586168152602081019490945291841660408401529092166060820152608081019190915260a00190565b6000816000190483118215151615615e0157615e01615ad6565b500290565b600082615e2357634e487b7160e01b600052601260045260246000fd5b500490565b600081615e3757615e37615ad6565b506000190190565b634e487b7160e01b600052603160045260246000fdfea264697066735822122078826dee6125890a48b79ac091d67b1830d3e05939254a8976611f8f3f944e2c64736f6c634300080a0033",
  "linkReferences": {},
  "deployedLinkReferences": {}
}