{
  "_format": "hh-sol-artifact-1",
  "contractName": "RoyaltyKeeper",
  "sourceName": "contracts/core/Keeper.sol",
  "abi": [
    {
      "inputs": [
        {
          "internalType": "address",
          "name": "_zepV2Addr",
          "type": "address"
        },
        {
          "internalType": "address",
          "name": "_royaltyAddr",
          "type": "address"
        },
        {
          "internalType": "address",
          "name": "_yieldAggAddr",
          "type": "address"
        }
      ],
      "stateMutability": "nonpayable",
      "type": "constructor"
    },
    {
      "anonymous": false,
      "inputs": [
        {
          "indexed": true,
          "internalType": "address",
          "name": "previousOwner",
          "type": "address"
        },
        {
          "indexed": true,
          "internalType": "address",
          "name": "newOwner",
          "type": "address"
        }
      ],
      "name": "OwnershipTransferred",
      "type": "event"
    },
    {
      "inputs": [],
      "name": "RewardsNftContract",
      "outputs": [
        {
          "internalType": "contract IRewardsNft",
          "name": "",
          "type": "address"
        }
      ],
      "stateMutability": "view",
      "type": "function"
    },
    {
      "inputs": [],
      "name": "RoyalNftContract",
      "outputs": [
        {
          "internalType": "contract IRoyalNFT",
          "name": "",
          "type": "address"
        }
      ],
      "stateMutability": "view",
      "type": "function"
    },
    {
      "inputs": [],
      "name": "YIELD_AGGREGATOR_ADDRESS",
      "outputs": [
        {
          "internalType": "address",
          "name": "",
          "type": "address"
        }
      ],
      "stateMutability": "view",
      "type": "function"
    },
    {
      "inputs": [],
      "name": "YIELD_AGGREGATOR_FEE",
      "outputs": [
        {
          "internalType": "uint256",
          "name": "",
          "type": "uint256"
        }
      ],
      "stateMutability": "view",
      "type": "function"
    },
    {
      "inputs": [],
      "name": "ZepToken",
      "outputs": [
        {
          "internalType": "contract IZeppelinToken",
          "name": "",
          "type": "address"
        }
      ],
      "stateMutability": "view",
      "type": "function"
    },
    {
      "inputs": [
        {
          "internalType": "uint256",
          "name": "",
          "type": "uint256"
        }
      ],
      "name": "amountStore",
      "outputs": [
        {
          "internalType": "uint256",
          "name": "",
          "type": "uint256"
        }
      ],
      "stateMutability": "view",
      "type": "function"
    },
    {
      "inputs": [
        {
          "internalType": "uint256",
          "name": "_zepAmount",
          "type": "uint256"
        },
        {
          "internalType": "uint256",
          "name": "_royalId",
          "type": "uint256"
        }
      ],
      "name": "deposit",
      "outputs": [],
      "stateMutability": "nonpayable",
      "type": "function"
    },
    {
      "inputs": [
        {
          "internalType": "uint256",
          "name": "_royaltyId",
          "type": "uint256"
        }
      ],
      "name": "getAmountInKeep",
      "outputs": [
        {
          "internalType": "uint256",
          "name": "",
          "type": "uint256"
        }
      ],
      "stateMutability": "view",
      "type": "function"
    },
    {
      "inputs": [
        {
          "internalType": "uint256",
          "name": "_rewardNftId",
          "type": "uint256"
        }
      ],
      "name": "getTaxReductionFromRewardNft",
      "outputs": [
        {
          "internalType": "uint256",
          "name": "feeAfterReduction",
          "type": "uint256"
        }
      ],
      "stateMutability": "view",
      "type": "function"
    },
    {
      "inputs": [
        {
          "internalType": "uint256",
          "name": "_rewardNftId",
          "type": "uint256"
        },
        {
          "internalType": "uint256",
          "name": "_zepAmount",
          "type": "uint256"
        }
      ],
      "name": "getZepAmountsAfterRewardNftReduction",
      "outputs": [
        {
          "internalType": "uint256",
          "name": "yieldAggAmount",
          "type": "uint256"
        },
        {
          "internalType": "uint256",
          "name": "finalAmount",
          "type": "uint256"
        }
      ],
      "stateMutability": "view",
      "type": "function"
    },
    {
      "inputs": [],
      "name": "owner",
      "outputs": [
        {
          "internalType": "address",
          "name": "",
          "type": "address"
        }
      ],
      "stateMutability": "view",
      "type": "function"
    },
    {
      "inputs": [],
      "name": "renounceOwnership",
      "outputs": [],
      "stateMutability": "nonpayable",
      "type": "function"
    },
    {
      "inputs": [
        {
          "internalType": "address",
          "name": "_addy",
          "type": "address"
        }
      ],
      "name": "setAutoCompounderAddress",
      "outputs": [],
      "stateMutability": "nonpayable",
      "type": "function"
    },
    {
      "inputs": [
        {
          "internalType": "address",
          "name": "_addy",
          "type": "address"
        }
      ],
      "name": "setRewardNftsContract",
      "outputs": [],
      "stateMutability": "nonpayable",
      "type": "function"
    },
    {
      "inputs": [
        {
          "internalType": "address",
          "name": "_addy",
          "type": "address"
        }
      ],
      "name": "setRoyaltyContract",
      "outputs": [],
      "stateMutability": "nonpayable",
      "type": "function"
    },
    {
      "inputs": [
        {
          "internalType": "address",
          "name": "_addy",
          "type": "address"
        }
      ],
      "name": "setZepContract",
      "outputs": [],
      "stateMutability": "nonpayable",
      "type": "function"
    },
    {
      "inputs": [
        {
          "internalType": "uint256",
          "name": "_rewardNftId",
          "type": "uint256"
        }
      ],
      "name": "teleportRewardNft",
      "outputs": [],
      "stateMutability": "nonpayable",
      "type": "function"
    },
    {
      "inputs": [
        {
          "internalType": "address",
          "name": "newOwner",
          "type": "address"
        }
      ],
      "name": "transferOwnership",
      "outputs": [],
      "stateMutability": "nonpayable",
      "type": "function"
    },
    {
      "inputs": [],
      "name": "withdraw",
      "outputs": [],
      "stateMutability": "nonpayable",
      "type": "function"
    },
    {
      "inputs": [
        {
          "internalType": "uint256",
          "name": "_rewardId",
          "type": "uint256"
        }
      ],
      "name": "withdrawWithReward",
      "outputs": [],
      "stateMutability": "nonpayable",
      "type": "function"
    }
  ],
  "bytecode": "0x608060405260016007553480156200001657600080fd5b5060405162001839380380620018398339810160408190526200003991620000fa565b62000044336200008d565b600180546001600160a01b039485166001600160a01b0319918216179091556002805493851693821693909317909255600480549190931691161790556103e860065562000144565b600080546001600160a01b038381166001600160a01b0319831681178455604051919092169283917f8be0079c531659141344cd1fd0a4f28419497f9722a3daafe3b4186f6b6457e09190a35050565b80516001600160a01b0381168114620000f557600080fd5b919050565b6000806000606084860312156200011057600080fd5b6200011b84620000dd565b92506200012b60208501620000dd565b91506200013b60408501620000dd565b90509250925092565b6116e580620001546000396000f3fe608060405234801561001057600080fd5b506004361061012c5760003560e01c8063711f725d116100ad578063d9aa187c11610071578063d9aa187c1461027b578063e2bbb1581461028e578063e30c710a146102a1578063e461d54e146102b4578063f2fde38b146102d457600080fd5b8063711f725d14610233578063715018a61461023c5780638da5cb5b14610244578063a9edce4614610255578063ad1e2b5b1461026857600080fd5b80634378734f116100f45780634378734f146101b25780634c0e5ec9146101c557806354d06f3f146101d857806365a1fd20146102005780636a7d92041461022057600080fd5b8063084a98a614610131578063260787d41461014657806339b37daf1461016c5780633ccfd60b1461017f5780633cf4d59014610187575b600080fd5b61014461013f366004611501565b6102e7565b005b610159610154366004611525565b610362565b6040519081526020015b60405180910390f35b61014461017a366004611501565b6104cc565b61014461053e565b60035461019a906001600160a01b031681565b6040516001600160a01b039091168152602001610163565b60015461019a906001600160a01b031681565b6101446101d3366004611525565b610a01565b6101eb6101e636600461153e565b61103f565b60408051928352602083019190915201610163565b61015961020e366004611525565b60056020526000908152604090205481565b61014461022e366004611501565b61107c565b61015960065481565b6101446110ee565b6000546001600160a01b031661019a565b60025461019a906001600160a01b031681565b60045461019a906001600160a01b031681565b610144610289366004611501565b611124565b61014461029c36600461153e565b611196565b6101446102af366004611525565b611200565b6101596102c2366004611525565b60009081526005602052604090205490565b6101446102e2366004611501565b611401565b6000546001600160a01b0316331461031a5760405162461bcd60e51b815260040161031190611560565b60405180910390fd5b6001600160a01b0381166103405760405162461bcd60e51b815260040161031190611595565b600380546001600160a01b0319166001600160a01b0392909216919091179055565b600354604051634875869760e01b81526004810183905260009182916001600160a01b0390911690634875869790602401602060405180830381865afa1580156103b0573d6000803e3d6000fd5b505050506040513d601f19601f820116820180604052508101906103d491906115bb565b60408051600480825260a0820190925291925060009190602082016080803683370190505090506107d081600081518110610411576104116115d4565b60200260200101818152505061177081600181518110610433576104336115d4565b602002602001018181525050611d4c81600281518110610455576104556115d4565b60200260200101818152505061251c81600381518110610477576104776115d4565b602002602001018181525050612710818381518110610498576104986115d4565b60200260200101516006546104ad9190611600565b6104b7919061161f565b6006546104c49190611641565b949350505050565b6000546001600160a01b031633146104f65760405162461bcd60e51b815260040161031190611560565b6001600160a01b03811661051c5760405162461bcd60e51b815260040161031190611595565b600180546001600160a01b0319166001600160a01b0392909216919091179055565b6007546001146105885760405162461bcd60e51b815260206004820152601560248201527411549493d48e88105b9d1a4b5499595b9d1c985b9d605a1b6044820152606401610311565b60006007553332146105d35760405162461bcd60e51b8152602060048201526014602482015273139bc818dbdb9d1c9858dd1cc8185b1b1bddd95960621b6044820152606401610311565b60025460405163b2b439c560e01b81523360048201526000916001600160a01b03169063b2b439c590602401602060405180830381865afa15801561061c573d6000803e3d6000fd5b505050506040513d601f19601f8201168201806040525081019061064091906115bb565b6002546040516331a9108f60e11b81526004810183905291925033916001600160a01b0390911690636352211e90602401602060405180830381865afa15801561068e573d6000803e3d6000fd5b505050506040513d601f19601f820116820180604052508101906106b29190611658565b6001600160a01b0316146107085760405162461bcd60e51b815260206004820152601c60248201527f4e6f7420796f7572204e4654202d3e204e6f7420796f7572205a6570000000006044820152606401610311565b600081815260056020526040902054670de0b6b3a764000081116107645760405162461bcd60e51b8152602060048201526013602482015272125b9cdcdd599a58da595b9d08105b5bdd5b9d606a1b6044820152606401610311565b6001546040516370a0823160e01b815230600482015282916001600160a01b0316906370a0823190602401602060405180830381865afa1580156107ac573d6000803e3d6000fd5b505050506040513d601f19601f820116820180604052508101906107d091906115bb565b101561080a5760405162461bcd60e51b8152602060048201526009602482015268546f6f204d7563682160b81b6044820152606401610311565b60008281526005602052604080822091909155600254905163f0384b5760e01b81523360048201526001600160a01b039091169063f0384b5790602401600060405180830381600087803b15801561086157600080fd5b505af1158015610875573d6000803e3d6000fd5b5050600254604051637435403560e01b81523360048201526001600160a01b03909116925063743540359150602401600060405180830381600087803b1580156108be57600080fd5b505af11580156108d2573d6000803e3d6000fd5b505050506000612710600654836108e99190611600565b6108f3919061161f565b905060006109018284611641565b60015460405163a9059cbb60e01b8152336004820152602481018390529192506001600160a01b03169063a9059cbb906044016020604051808303816000875af1158015610953573d6000803e3d6000fd5b505050506040513d601f19601f820116820180604052508101906109779190611675565b506001546004805460405163a9059cbb60e01b81526001600160a01b0391821692810192909252602482018590529091169063a9059cbb906044016020604051808303816000875af11580156109d1573d6000803e3d6000fd5b505050506040513d601f19601f820116820180604052508101906109f59190611675565b50506001600755505050565b600754600114610a4b5760405162461bcd60e51b815260206004820152601560248201527411549493d48e88105b9d1a4b5499595b9d1c985b9d605a1b6044820152606401610311565b6000600755333214610a965760405162461bcd60e51b8152602060048201526014602482015273139bc818dbdb9d1c9858dd1cc8185b1b1bddd95960621b6044820152606401610311565b60025460405163b2b439c560e01b81523360048201526000916001600160a01b03169063b2b439c590602401602060405180830381865afa158015610adf573d6000803e3d6000fd5b505050506040513d601f19601f82011682018060405250810190610b0391906115bb565b6002546040516331a9108f60e11b81526004810183905291925033916001600160a01b0390911690636352211e90602401602060405180830381865afa158015610b51573d6000803e3d6000fd5b505050506040513d601f19601f82011682018060405250810190610b759190611658565b6001600160a01b031614610bcb5760405162461bcd60e51b815260206004820152601c60248201527f4e6f7420796f7572204e4654202d3e204e6f7420796f7572205a6570000000006044820152606401610311565b6003546040516331a9108f60e11b81526004810184905233916001600160a01b031690636352211e90602401602060405180830381865afa158015610c14573d6000803e3d6000fd5b505050506040513d601f19601f82011682018060405250810190610c389190611658565b6001600160a01b0316148015610cbe57506003546040516319f7e9f960e11b8152336004820152602481018490526001600160a01b03909116906333efd3f2906044016020604051808303816000875af1158015610c9a573d6000803e3d6000fd5b505050506040513d601f19601f82011682018060405250810190610cbe9190611675565b610d025760405162461bcd60e51b81526020600482015260156024820152744e6f7420796f757220526577617264204e4654202160581b6044820152606401610311565b600081815260056020526040902054670de0b6b3a76400008111610d5e5760405162461bcd60e51b8152602060048201526013602482015272125b9cdcdd599a58da595b9d08105b5bdd5b9d606a1b6044820152606401610311565b6001546040516370a0823160e01b815230600482015282916001600160a01b0316906370a0823190602401602060405180830381865afa158015610da6573d6000803e3d6000fd5b505050506040513d601f19601f82011682018060405250810190610dca91906115bb565b1015610e045760405162461bcd60e51b8152602060048201526009602482015268546f6f204d7563682160b81b6044820152606401610311565b600080610e11858461103f565b60025460405163f0384b5760e01b81523360048201529294509092506001600160a01b03169063f0384b5790602401600060405180830381600087803b158015610e5a57600080fd5b505af1158015610e6e573d6000803e3d6000fd5b50505060008581526005602052604080822091909155600354905163f9f8697360e01b8152600481018890526001600160a01b03909116915063f9f8697390602401600060405180830381600087803b158015610eca57600080fd5b505af1158015610ede573d6000803e3d6000fd5b5050600254604051637435403560e01b81523360048201526001600160a01b03909116925063743540359150602401600060405180830381600087803b158015610f2757600080fd5b505af1158015610f3b573d6000803e3d6000fd5b505060015460405163a9059cbb60e01b8152336004820152602481018590526001600160a01b03909116925063a9059cbb91506044016020604051808303816000875af1158015610f90573d6000803e3d6000fd5b505050506040513d601f19601f82011682018060405250810190610fb49190611675565b506001546004805460405163a9059cbb60e01b81526001600160a01b0391821692810192909252602482018590529091169063a9059cbb906044016020604051808303816000875af115801561100e573d6000803e3d6000fd5b505050506040513d601f19601f820116820180604052508101906110329190611675565b5050600160075550505050565b600080600061104d85610362565b905061271061105c8286611600565b611066919061161f565b92506110728385611641565b9150509250929050565b6000546001600160a01b031633146110a65760405162461bcd60e51b815260040161031190611560565b6001600160a01b0381166110cc5760405162461bcd60e51b815260040161031190611595565b600480546001600160a01b0319166001600160a01b0392909216919091179055565b6000546001600160a01b031633146111185760405162461bcd60e51b815260040161031190611560565b611122600061149c565b565b6000546001600160a01b0316331461114e5760405162461bcd60e51b815260040161031190611560565b6001600160a01b0381166111745760405162461bcd60e51b815260040161031190611595565b600280546001600160a01b0319166001600160a01b0392909216919091179055565b6002546001600160a01b031633146111d95760405162461bcd60e51b81526020600482015260066024820152650aadc82eae8d60d31b6044820152606401610311565b600081815260056020526040812080548492906111f7908490611697565b90915550505050565b6000546001600160a01b0316331461122a5760405162461bcd60e51b815260040161031190611560565b600360009054906101000a90046001600160a01b03166001600160a01b031663095ea7b3306001600160a01b0316638da5cb5b6040518163ffffffff1660e01b8152600401602060405180830381865afa15801561128c573d6000803e3d6000fd5b505050506040513d601f19601f820116820180604052508101906112b09190611658565b6040516001600160e01b031960e084901b1681526001600160a01b03909116600482015260248101849052604401600060405180830381600087803b1580156112f857600080fd5b505af115801561130c573d6000803e3d6000fd5b50505050600360009054906101000a90046001600160a01b03166001600160a01b03166323b872dd30306001600160a01b0316638da5cb5b6040518163ffffffff1660e01b8152600401602060405180830381865afa158015611373573d6000803e3d6000fd5b505050506040513d601f19601f820116820180604052508101906113979190611658565b6040516001600160e01b031960e085901b1681526001600160a01b0392831660048201529116602482015260448101849052606401600060405180830381600087803b1580156113e657600080fd5b505af11580156113fa573d6000803e3d6000fd5b5050505050565b6000546001600160a01b0316331461142b5760405162461bcd60e51b815260040161031190611560565b6001600160a01b0381166114905760405162461bcd60e51b815260206004820152602660248201527f4f776e61626c653a206e6577206f776e657220697320746865207a65726f206160448201526564647265737360d01b6064820152608401610311565b6114998161149c565b50565b600080546001600160a01b038381166001600160a01b0319831681178455604051919092169283917f8be0079c531659141344cd1fd0a4f28419497f9722a3daafe3b4186f6b6457e09190a35050565b6001600160a01b038116811461149957600080fd5b60006020828403121561151357600080fd5b813561151e816114ec565b9392505050565b60006020828403121561153757600080fd5b5035919050565b6000806040838503121561155157600080fd5b50508035926020909101359150565b6020808252818101527f4f776e61626c653a2063616c6c6572206973206e6f7420746865206f776e6572604082015260600190565b6020808252600c908201526b5a65726f206164647265737360a01b604082015260600190565b6000602082840312156115cd57600080fd5b5051919050565b634e487b7160e01b600052603260045260246000fd5b634e487b7160e01b600052601160045260246000fd5b600081600019048311821515161561161a5761161a6115ea565b500290565b60008261163c57634e487b7160e01b600052601260045260246000fd5b500490565b600082821015611653576116536115ea565b500390565b60006020828403121561166a57600080fd5b815161151e816114ec565b60006020828403121561168757600080fd5b8151801515811461151e57600080fd5b600082198211156116aa576116aa6115ea565b50019056fea2646970667358221220382f935cb4faf246524f6c3a074e9d2fd19aff23cd2ca53b51a0a82bc2bfb4cf64736f6c634300080a0033",
  "linkReferences": {},
  "deployedLinkReferences": {}
}